{
	"Blockchain/Logical operator.sol": {
		"LogicalOperator": {
			"abi": [
				{
					"constant": true,
					"inputs": [
						{
							"name": "a",
							"type": "bool"
						},
						{
							"name": "b",
							"type": "bool"
						}
					],
					"name": "logic",
					"outputs": [
						{
							"name": "",
							"type": "bool"
						},
						{
							"name": "",
							"type": "bool"
						},
						{
							"name": "",
							"type": "bool"
						}
					],
					"payable": false,
					"stateMutability": "view",
					"type": "function"
				}
			],
			"devdoc": {
				"methods": {}
			},
			"evm": {
				"assembly": "    /* \"Blockchain/Logical operator.sol\":103:452  contract LogicalOperator {\r... */\n  mstore(0x40, 0x80)\n  callvalue\n    /* \"--CODEGEN--\":8:17   */\n  dup1\n    /* \"--CODEGEN--\":5:7   */\n  iszero\n  tag_1\n  jumpi\n    /* \"--CODEGEN--\":30:31   */\n  0x0\n    /* \"--CODEGEN--\":27:28   */\n  dup1\n    /* \"--CODEGEN--\":20:32   */\n  revert\n    /* \"--CODEGEN--\":5:7   */\ntag_1:\n    /* \"Blockchain/Logical operator.sol\":103:452  contract LogicalOperator {\r... */\n  pop\n  dataSize(sub_0)\n  dup1\n  dataOffset(sub_0)\n  0x0\n  codecopy\n  0x0\n  return\nstop\n\nsub_0: assembly {\n        /* \"Blockchain/Logical operator.sol\":103:452  contract LogicalOperator {\r... */\n      mstore(0x40, 0x80)\n      jumpi(tag_1, lt(calldatasize, 0x4))\n      calldataload(0x0)\n      0x100000000000000000000000000000000000000000000000000000000\n      swap1\n      div\n      0xffffffff\n      and\n      dup1\n      0x87bfe677\n      eq\n      tag_2\n      jumpi\n    tag_1:\n      0x0\n      dup1\n      revert\n        /* \"Blockchain/Logical operator.sol\":186:449  function logic(bool a, bool b) public pure returns (bool, bool, bool) {\r... */\n    tag_2:\n      callvalue\n        /* \"--CODEGEN--\":8:17   */\n      dup1\n        /* \"--CODEGEN--\":5:7   */\n      iszero\n      tag_3\n      jumpi\n        /* \"--CODEGEN--\":30:31   */\n      0x0\n        /* \"--CODEGEN--\":27:28   */\n      dup1\n        /* \"--CODEGEN--\":20:32   */\n      revert\n        /* \"--CODEGEN--\":5:7   */\n    tag_3:\n        /* \"Blockchain/Logical operator.sol\":186:449  function logic(bool a, bool b) public pure returns (bool, bool, bool) {\r... */\n      pop\n      tag_4\n      0x4\n      dup1\n      calldatasize\n      sub\n        /* \"--CODEGEN--\":13:15   */\n      0x40\n        /* \"--CODEGEN--\":8:11   */\n      dup2\n        /* \"--CODEGEN--\":5:16   */\n      lt\n        /* \"--CODEGEN--\":2:4   */\n      iszero\n      tag_5\n      jumpi\n        /* \"--CODEGEN--\":29:30   */\n      0x0\n        /* \"--CODEGEN--\":26:27   */\n      dup1\n        /* \"--CODEGEN--\":19:31   */\n      revert\n        /* \"--CODEGEN--\":2:4   */\n    tag_5:\n        /* \"Blockchain/Logical operator.sol\":186:449  function logic(bool a, bool b) public pure returns (bool, bool, bool) {\r... */\n      dup2\n      add\n      swap1\n      dup1\n      dup1\n      calldataload\n      iszero\n      iszero\n      swap1\n      0x20\n      add\n      swap1\n      swap3\n      swap2\n      swap1\n      dup1\n      calldataload\n      iszero\n      iszero\n      swap1\n      0x20\n      add\n      swap1\n      swap3\n      swap2\n      swap1\n      pop\n      pop\n      pop\n      jump(tag_6)\n    tag_4:\n      mload(0x40)\n      dup1\n      dup5\n      iszero\n      iszero\n      iszero\n      iszero\n      dup2\n      mstore\n      0x20\n      add\n      dup4\n      iszero\n      iszero\n      iszero\n      iszero\n      dup2\n      mstore\n      0x20\n      add\n      dup3\n      iszero\n      iszero\n      iszero\n      iszero\n      dup2\n      mstore\n      0x20\n      add\n      swap4\n      pop\n      pop\n      pop\n      pop\n      mload(0x40)\n      dup1\n      swap2\n      sub\n      swap1\n      return\n    tag_6:\n        /* \"Blockchain/Logical operator.sol\":238:242  bool */\n      0x0\n        /* \"Blockchain/Logical operator.sol\":244:248  bool */\n      dup1\n        /* \"Blockchain/Logical operator.sol\":250:254  bool */\n      0x0\n        /* \"Blockchain/Logical operator.sol\":284:298  bool andResult */\n      dup1\n        /* \"Blockchain/Logical operator.sol\":301:302  a */\n      dup6\n        /* \"Blockchain/Logical operator.sol\":301:307  a && b */\n      dup1\n      iszero\n      tag_8\n      jumpi\n      pop\n        /* \"Blockchain/Logical operator.sol\":306:307  b */\n      dup5\n        /* \"Blockchain/Logical operator.sol\":301:307  a && b */\n    tag_8:\n        /* \"Blockchain/Logical operator.sol\":284:307  bool andResult = a && b */\n      swap1\n      pop\n        /* \"Blockchain/Logical operator.sol\":334:347  bool orResult */\n      0x0\n        /* \"Blockchain/Logical operator.sol\":350:351  a */\n      dup7\n        /* \"Blockchain/Logical operator.sol\":350:356  a || b */\n      dup1\n      tag_9\n      jumpi\n      pop\n        /* \"Blockchain/Logical operator.sol\":355:356  b */\n      dup6\n        /* \"Blockchain/Logical operator.sol\":350:356  a || b */\n    tag_9:\n        /* \"Blockchain/Logical operator.sol\":334:356  bool orResult = a || b */\n      swap1\n      pop\n        /* \"Blockchain/Logical operator.sol\":384:398  bool notResult */\n      0x0\n        /* \"Blockchain/Logical operator.sol\":402:403  a */\n      dup8\n        /* \"Blockchain/Logical operator.sol\":401:403  !a */\n      iszero\n        /* \"Blockchain/Logical operator.sol\":384:403  bool notResult = !a */\n      swap1\n      pop\n        /* \"Blockchain/Logical operator.sol\":414:423  andResult */\n      dup3\n        /* \"Blockchain/Logical operator.sol\":425:433  orResult */\n      dup3\n        /* \"Blockchain/Logical operator.sol\":435:444  notResult */\n      dup3\n        /* \"Blockchain/Logical operator.sol\":406:445  return (andResult, orResult, notResult) */\n      swap6\n      pop\n      swap6\n      pop\n      swap6\n      pop\n      pop\n      pop\n      pop\n        /* \"Blockchain/Logical operator.sol\":186:449  function logic(bool a, bool b) public pure returns (bool, bool, bool) {\r... */\n      swap3\n      pop\n      swap3\n      pop\n      swap3\n      jump\t// out\n\n    auxdata: 0xa165627a7a723058208b992e2c9fd8c4fccf3cc3c0c06c653a857fa4b4ccc8d7978a78c83beabbaa040029\n}\n",
				"bytecode": {
					"linkReferences": {},
					"object": "608060405234801561001057600080fd5b50610119806100206000396000f3fe608060405260043610603f576000357c0100000000000000000000000000000000000000000000000000000000900463ffffffff16806387bfe677146044575b600080fd5b348015604f57600080fd5b50608760048036036040811015606457600080fd5b8101908080351515906020019092919080351515906020019092919050505060b7565b60405180841515151581526020018315151515815260200182151515158152602001935050505060405180910390f35b60008060008085801560c65750845b90506000868060d25750855b9050600087159050828282955095509550505050925092509256fea165627a7a723058208b992e2c9fd8c4fccf3cc3c0c06c653a857fa4b4ccc8d7978a78c83beabbaa040029",
					"opcodes": "PUSH1 0x80 PUSH1 0x40 MSTORE CALLVALUE DUP1 ISZERO PUSH2 0x10 JUMPI PUSH1 0x0 DUP1 REVERT JUMPDEST POP PUSH2 0x119 DUP1 PUSH2 0x20 PUSH1 0x0 CODECOPY PUSH1 0x0 RETURN INVALID PUSH1 0x80 PUSH1 0x40 MSTORE PUSH1 0x4 CALLDATASIZE LT PUSH1 0x3F JUMPI PUSH1 0x0 CALLDATALOAD PUSH29 0x100000000000000000000000000000000000000000000000000000000 SWAP1 DIV PUSH4 0xFFFFFFFF AND DUP1 PUSH4 0x87BFE677 EQ PUSH1 0x44 JUMPI JUMPDEST PUSH1 0x0 DUP1 REVERT JUMPDEST CALLVALUE DUP1 ISZERO PUSH1 0x4F JUMPI PUSH1 0x0 DUP1 REVERT JUMPDEST POP PUSH1 0x87 PUSH1 0x4 DUP1 CALLDATASIZE SUB PUSH1 0x40 DUP2 LT ISZERO PUSH1 0x64 JUMPI PUSH1 0x0 DUP1 REVERT JUMPDEST DUP2 ADD SWAP1 DUP1 DUP1 CALLDATALOAD ISZERO ISZERO SWAP1 PUSH1 0x20 ADD SWAP1 SWAP3 SWAP2 SWAP1 DUP1 CALLDATALOAD ISZERO ISZERO SWAP1 PUSH1 0x20 ADD SWAP1 SWAP3 SWAP2 SWAP1 POP POP POP PUSH1 0xB7 JUMP JUMPDEST PUSH1 0x40 MLOAD DUP1 DUP5 ISZERO ISZERO ISZERO ISZERO DUP2 MSTORE PUSH1 0x20 ADD DUP4 ISZERO ISZERO ISZERO ISZERO DUP2 MSTORE PUSH1 0x20 ADD DUP3 ISZERO ISZERO ISZERO ISZERO DUP2 MSTORE PUSH1 0x20 ADD SWAP4 POP POP POP POP PUSH1 0x40 MLOAD DUP1 SWAP2 SUB SWAP1 RETURN JUMPDEST PUSH1 0x0 DUP1 PUSH1 0x0 DUP1 DUP6 DUP1 ISZERO PUSH1 0xC6 JUMPI POP DUP5 JUMPDEST SWAP1 POP PUSH1 0x0 DUP7 DUP1 PUSH1 0xD2 JUMPI POP DUP6 JUMPDEST SWAP1 POP PUSH1 0x0 DUP8 ISZERO SWAP1 POP DUP3 DUP3 DUP3 SWAP6 POP SWAP6 POP SWAP6 POP POP POP POP SWAP3 POP SWAP3 POP SWAP3 JUMP INVALID LOG1 PUSH6 0x627A7A723058 KECCAK256 DUP12 SWAP10 0x2e 0x2c SWAP16 0xd8 0xc4 0xfc 0xcf EXTCODECOPY 0xc3 0xc0 0xc0 PUSH13 0x653A857FA4B4CCC8D7978A78C8 EXTCODESIZE 0xea 0xbb 0xaa DIV STOP 0x29 "
				},
				"gasEstimates": {
					"creation": {
						"codeDepositCost": "56200",
						"executionCost": "105",
						"totalCost": "56305"
					},
					"external": {
						"logic(bool,bool)": "520"
					}
				},
				"methodIdentifiers": {
					"logic(bool,bool)": "87bfe677"
				}
			},
			"userdoc": {
				"methods": {}
			}
		}
	}
}