{
	"Blockchain/Contracts.sol": {
		"E": {
			"abi": [
				{
					"constant": false,
					"inputs": [
						{
							"name": "a",
							"type": "uint256"
						}
					],
					"name": "updateData",
					"outputs": [],
					"payable": false,
					"stateMutability": "nonpayable",
					"type": "function"
				},
				{
					"constant": true,
					"inputs": [],
					"name": "info",
					"outputs": [
						{
							"name": "",
							"type": "uint256"
						}
					],
					"payable": false,
					"stateMutability": "view",
					"type": "function"
				},
				{
					"constant": true,
					"inputs": [],
					"name": "getData",
					"outputs": [
						{
							"name": "",
							"type": "uint256"
						}
					],
					"payable": false,
					"stateMutability": "view",
					"type": "function"
				},
				{
					"constant": false,
					"inputs": [],
					"name": "getComputedResult",
					"outputs": [],
					"payable": false,
					"stateMutability": "nonpayable",
					"type": "function"
				},
				{
					"constant": true,
					"inputs": [],
					"name": "getResult",
					"outputs": [
						{
							"name": "",
							"type": "uint256"
						}
					],
					"payable": false,
					"stateMutability": "view",
					"type": "function"
				},
				{
					"inputs": [],
					"payable": false,
					"stateMutability": "nonpayable",
					"type": "constructor"
				}
			],
			"devdoc": {
				"methods": {}
			},
			"evm": {
				"assembly": "    /* \"Blockchain/Contracts.sol\":666:970  contract E is C {\r... */\n  mstore(0x40, 0x80)\n    /* \"Blockchain/Contracts.sol\":721:760  constructor() public {\r... */\n  callvalue\n    /* \"--CODEGEN--\":8:17   */\n  dup1\n    /* \"--CODEGEN--\":5:7   */\n  iszero\n  tag_1\n  jumpi\n    /* \"--CODEGEN--\":30:31   */\n  0x0\n    /* \"--CODEGEN--\":27:28   */\n  dup1\n    /* \"--CODEGEN--\":20:32   */\n  revert\n    /* \"--CODEGEN--\":5:7   */\ntag_1:\n    /* \"Blockchain/Contracts.sol\":721:760  constructor() public {\r... */\n  pop\n    /* \"Blockchain/Contracts.sol\":178:180  10 */\n  0xa\n    /* \"Blockchain/Contracts.sol\":171:175  info */\n  0x1\n    /* \"Blockchain/Contracts.sol\":171:180  info = 10 */\n  dup2\n  swap1\n  sstore\n  pop\n    /* \"Blockchain/Contracts.sol\":749:756  new C() */\n  tag_6\n  jump\t// in(tag_7)\ntag_6:\n  mload(0x40)\n  dup1\n  swap2\n  sub\n  swap1\n  0x0\n  create\n  dup1\n  iszero\n    /* \"--CODEGEN--\":8:17   */\n  dup1\n    /* \"--CODEGEN--\":5:7   */\n  iszero\n  tag_8\n  jumpi\n    /* \"--CODEGEN--\":45:61   */\n  returndatasize\n    /* \"--CODEGEN--\":42:43   */\n  0x0\n    /* \"--CODEGEN--\":39:40   */\n  dup1\n    /* \"--CODEGEN--\":24:62   */\n  returndatacopy\n    /* \"--CODEGEN--\":77:93   */\n  returndatasize\n    /* \"--CODEGEN--\":74:75   */\n  0x0\n    /* \"--CODEGEN--\":67:94   */\n  revert\n    /* \"--CODEGEN--\":5:7   */\ntag_8:\n    /* \"Blockchain/Contracts.sol\":749:756  new C() */\n  pop\n    /* \"Blockchain/Contracts.sol\":745:746  c */\n  0x3\n  0x0\n    /* \"Blockchain/Contracts.sol\":745:756  c = new C() */\n  0x100\n  exp\n  dup2\n  sload\n  dup2\n  0xffffffffffffffffffffffffffffffffffffffff\n  mul\n  not\n  and\n  swap1\n  dup4\n  0xffffffffffffffffffffffffffffffffffffffff\n  and\n  mul\n  or\n  swap1\n  sstore\n  pop\n    /* \"Blockchain/Contracts.sol\":666:970  contract E is C {\r... */\n  jump(tag_9)\ntag_7:\n  mload(0x40)\n  dataSize(sub_1)\n  dup1\n  dataOffset(sub_1)\n  dup4\n  codecopy\n  add\n  swap1\n  jump\t// out\ntag_9:\n  dataSize(sub_0)\n  dup1\n  dataOffset(sub_0)\n  0x0\n  codecopy\n  0x0\n  return\nstop\n\nsub_0: assembly {\n        /* \"Blockchain/Contracts.sol\":666:970  contract E is C {\r... */\n      mstore(0x40, 0x80)\n      jumpi(tag_1, lt(calldatasize, 0x4))\n      calldataload(0x0)\n      0x100000000000000000000000000000000000000000000000000000000\n      swap1\n      div\n      0xffffffff\n      and\n      dup1\n      0x9e96008\n      eq\n      tag_2\n      jumpi\n      dup1\n      0x370158ea\n      eq\n      tag_3\n      jumpi\n      dup1\n      0x3bc5de30\n      eq\n      tag_4\n      jumpi\n      dup1\n      0x43eea6e9\n      eq\n      tag_5\n      jumpi\n      dup1\n      0xde292789\n      eq\n      tag_6\n      jumpi\n    tag_1:\n      0x0\n      dup1\n      revert\n        /* \"Blockchain/Contracts.sol\":303:353  function updateData(uint a) public {\r... */\n    tag_2:\n      callvalue\n        /* \"--CODEGEN--\":8:17   */\n      dup1\n        /* \"--CODEGEN--\":5:7   */\n      iszero\n      tag_7\n      jumpi\n        /* \"--CODEGEN--\":30:31   */\n      0x0\n        /* \"--CODEGEN--\":27:28   */\n      dup1\n        /* \"--CODEGEN--\":20:32   */\n      revert\n        /* \"--CODEGEN--\":5:7   */\n    tag_7:\n        /* \"Blockchain/Contracts.sol\":303:353  function updateData(uint a) public {\r... */\n      pop\n      tag_8\n      0x4\n      dup1\n      calldatasize\n      sub\n        /* \"--CODEGEN--\":13:15   */\n      0x20\n        /* \"--CODEGEN--\":8:11   */\n      dup2\n        /* \"--CODEGEN--\":5:16   */\n      lt\n        /* \"--CODEGEN--\":2:4   */\n      iszero\n      tag_9\n      jumpi\n        /* \"--CODEGEN--\":29:30   */\n      0x0\n        /* \"--CODEGEN--\":26:27   */\n      dup1\n        /* \"--CODEGEN--\":19:31   */\n      revert\n        /* \"--CODEGEN--\":2:4   */\n    tag_9:\n        /* \"Blockchain/Contracts.sol\":303:353  function updateData(uint a) public {\r... */\n      dup2\n      add\n      swap1\n      dup1\n      dup1\n      calldataload\n      swap1\n      0x20\n      add\n      swap1\n      swap3\n      swap2\n      swap1\n      pop\n      pop\n      pop\n      jump(tag_10)\n    tag_8:\n      stop\n        /* \"Blockchain/Contracts.sol\":112:128  uint public info */\n    tag_3:\n      callvalue\n        /* \"--CODEGEN--\":8:17   */\n      dup1\n        /* \"--CODEGEN--\":5:7   */\n      iszero\n      tag_11\n      jumpi\n        /* \"--CODEGEN--\":30:31   */\n      0x0\n        /* \"--CODEGEN--\":27:28   */\n      dup1\n        /* \"--CODEGEN--\":20:32   */\n      revert\n        /* \"--CODEGEN--\":5:7   */\n    tag_11:\n        /* \"Blockchain/Contracts.sol\":112:128  uint public info */\n      pop\n      tag_12\n      jump(tag_13)\n    tag_12:\n      mload(0x40)\n      dup1\n      dup3\n      dup2\n      mstore\n      0x20\n      add\n      swap2\n      pop\n      pop\n      mload(0x40)\n      dup1\n      swap2\n      sub\n      swap1\n      return\n        /* \"Blockchain/Contracts.sol\":899:967  function getData() public view returns (uint) {\r... */\n    tag_4:\n      callvalue\n        /* \"--CODEGEN--\":8:17   */\n      dup1\n        /* \"--CODEGEN--\":5:7   */\n      iszero\n      tag_14\n      jumpi\n        /* \"--CODEGEN--\":30:31   */\n      0x0\n        /* \"--CODEGEN--\":27:28   */\n      dup1\n        /* \"--CODEGEN--\":20:32   */\n      revert\n        /* \"--CODEGEN--\":5:7   */\n    tag_14:\n        /* \"Blockchain/Contracts.sol\":899:967  function getData() public view returns (uint) {\r... */\n      pop\n      tag_15\n      jump(tag_16)\n    tag_15:\n      mload(0x40)\n      dup1\n      dup3\n      dup2\n      mstore\n      0x20\n      add\n      swap2\n      pop\n      pop\n      mload(0x40)\n      dup1\n      swap2\n      sub\n      swap1\n      return\n        /* \"Blockchain/Contracts.sol\":762:827  function getComputedResult() public {\r... */\n    tag_5:\n      callvalue\n        /* \"--CODEGEN--\":8:17   */\n      dup1\n        /* \"--CODEGEN--\":5:7   */\n      iszero\n      tag_17\n      jumpi\n        /* \"--CODEGEN--\":30:31   */\n      0x0\n        /* \"--CODEGEN--\":27:28   */\n      dup1\n        /* \"--CODEGEN--\":20:32   */\n      revert\n        /* \"--CODEGEN--\":5:7   */\n    tag_17:\n        /* \"Blockchain/Contracts.sol\":762:827  function getComputedResult() public {\r... */\n      pop\n      tag_18\n      jump(tag_19)\n    tag_18:\n      stop\n        /* \"Blockchain/Contracts.sol\":829:897  function getResult() public view returns (uint) {\r... */\n    tag_6:\n      callvalue\n        /* \"--CODEGEN--\":8:17   */\n      dup1\n        /* \"--CODEGEN--\":5:7   */\n      iszero\n      tag_20\n      jumpi\n        /* \"--CODEGEN--\":30:31   */\n      0x0\n        /* \"--CODEGEN--\":27:28   */\n      dup1\n        /* \"--CODEGEN--\":20:32   */\n      revert\n        /* \"--CODEGEN--\":5:7   */\n    tag_20:\n        /* \"Blockchain/Contracts.sol\":829:897  function getResult() public view returns (uint) {\r... */\n      pop\n      tag_21\n      jump(tag_22)\n    tag_21:\n      mload(0x40)\n      dup1\n      dup3\n      dup2\n      mstore\n      0x20\n      add\n      swap2\n      pop\n      pop\n      mload(0x40)\n      dup1\n      swap2\n      sub\n      swap1\n      return\n        /* \"Blockchain/Contracts.sol\":303:353  function updateData(uint a) public {\r... */\n    tag_10:\n        /* \"Blockchain/Contracts.sol\":348:349  a */\n      dup1\n        /* \"Blockchain/Contracts.sol\":341:345  data */\n      0x0\n        /* \"Blockchain/Contracts.sol\":341:349  data = a */\n      dup2\n      swap1\n      sstore\n      pop\n        /* \"Blockchain/Contracts.sol\":303:353  function updateData(uint a) public {\r... */\n      pop\n      jump\t// out\n        /* \"Blockchain/Contracts.sol\":112:128  uint public info */\n    tag_13:\n      sload(0x1)\n      dup2\n      jump\t// out\n        /* \"Blockchain/Contracts.sol\":899:967  function getData() public view returns (uint) {\r... */\n    tag_16:\n        /* \"Blockchain/Contracts.sol\":939:943  uint */\n      0x0\n        /* \"Blockchain/Contracts.sol\":955:956  c */\n      0x3\n      0x0\n      swap1\n      sload\n      swap1\n      0x100\n      exp\n      swap1\n      div\n      0xffffffffffffffffffffffffffffffffffffffff\n      and\n        /* \"Blockchain/Contracts.sol\":955:961  c.info */\n      0xffffffffffffffffffffffffffffffffffffffff\n      and\n      0x370158ea\n        /* \"Blockchain/Contracts.sol\":955:963  c.info() */\n      mload(0x40)\n      dup2\n      0xffffffff\n      and\n      0x100000000000000000000000000000000000000000000000000000000\n      mul\n      dup2\n      mstore\n      0x4\n      add\n      0x20\n      mload(0x40)\n      dup1\n      dup4\n      sub\n      dup2\n      dup7\n      dup1\n      extcodesize\n      iszero\n        /* \"--CODEGEN--\":8:17   */\n      dup1\n        /* \"--CODEGEN--\":5:7   */\n      iszero\n      tag_25\n      jumpi\n        /* \"--CODEGEN--\":30:31   */\n      0x0\n        /* \"--CODEGEN--\":27:28   */\n      dup1\n        /* \"--CODEGEN--\":20:32   */\n      revert\n        /* \"--CODEGEN--\":5:7   */\n    tag_25:\n        /* \"Blockchain/Contracts.sol\":955:963  c.info() */\n      pop\n      gas\n      staticcall\n      iszero\n        /* \"--CODEGEN--\":8:17   */\n      dup1\n        /* \"--CODEGEN--\":5:7   */\n      iszero\n      tag_26\n      jumpi\n        /* \"--CODEGEN--\":45:61   */\n      returndatasize\n        /* \"--CODEGEN--\":42:43   */\n      0x0\n        /* \"--CODEGEN--\":39:40   */\n      dup1\n        /* \"--CODEGEN--\":24:62   */\n      returndatacopy\n        /* \"--CODEGEN--\":77:93   */\n      returndatasize\n        /* \"--CODEGEN--\":74:75   */\n      0x0\n        /* \"--CODEGEN--\":67:94   */\n      revert\n        /* \"--CODEGEN--\":5:7   */\n    tag_26:\n        /* \"Blockchain/Contracts.sol\":955:963  c.info() */\n      pop\n      pop\n      pop\n      pop\n      mload(0x40)\n      returndatasize\n        /* \"--CODEGEN--\":13:15   */\n      0x20\n        /* \"--CODEGEN--\":8:11   */\n      dup2\n        /* \"--CODEGEN--\":5:16   */\n      lt\n        /* \"--CODEGEN--\":2:4   */\n      iszero\n      tag_27\n      jumpi\n        /* \"--CODEGEN--\":29:30   */\n      0x0\n        /* \"--CODEGEN--\":26:27   */\n      dup1\n        /* \"--CODEGEN--\":19:31   */\n      revert\n        /* \"--CODEGEN--\":2:4   */\n    tag_27:\n        /* \"Blockchain/Contracts.sol\":955:963  c.info() */\n      dup2\n      add\n      swap1\n      dup1\n      dup1\n      mload\n      swap1\n      0x20\n      add\n      swap1\n      swap3\n      swap2\n      swap1\n      pop\n      pop\n      pop\n        /* \"Blockchain/Contracts.sol\":948:963  return c.info() */\n      swap1\n      pop\n        /* \"Blockchain/Contracts.sol\":899:967  function getData() public view returns (uint) {\r... */\n      swap1\n      jump\t// out\n        /* \"Blockchain/Contracts.sol\":762:827  function getComputedResult() public {\r... */\n    tag_19:\n        /* \"Blockchain/Contracts.sol\":810:823  compute(3, 5) */\n      tag_29\n        /* \"Blockchain/Contracts.sol\":818:819  3 */\n      0x3\n        /* \"Blockchain/Contracts.sol\":821:822  5 */\n      0x5\n        /* \"Blockchain/Contracts.sol\":810:817  compute */\n      tag_30\n        /* \"Blockchain/Contracts.sol\":810:823  compute(3, 5) */\n      jump\t// in\n    tag_29:\n        /* \"Blockchain/Contracts.sol\":801:807  result */\n      0x2\n        /* \"Blockchain/Contracts.sol\":801:823  result = compute(3, 5) */\n      dup2\n      swap1\n      sstore\n      pop\n        /* \"Blockchain/Contracts.sol\":762:827  function getComputedResult() public {\r... */\n      jump\t// out\n        /* \"Blockchain/Contracts.sol\":829:897  function getResult() public view returns (uint) {\r... */\n    tag_22:\n        /* \"Blockchain/Contracts.sol\":871:875  uint */\n      0x0\n        /* \"Blockchain/Contracts.sol\":887:893  result */\n      sload(0x2)\n        /* \"Blockchain/Contracts.sol\":880:893  return result */\n      swap1\n      pop\n        /* \"Blockchain/Contracts.sol\":829:897  function getResult() public view returns (uint) {\r... */\n      swap1\n      jump\t// out\n        /* \"Blockchain/Contracts.sol\":421:502  function compute(uint a, uint b) internal pure returns (uint) {\r... */\n    tag_30:\n        /* \"Blockchain/Contracts.sol\":477:481  uint */\n      0x0\n        /* \"Blockchain/Contracts.sol\":497:498  b */\n      dup2\n        /* \"Blockchain/Contracts.sol\":493:494  a */\n      dup4\n        /* \"Blockchain/Contracts.sol\":493:498  a + b */\n      add\n        /* \"Blockchain/Contracts.sol\":486:498  return a + b */\n      swap1\n      pop\n        /* \"Blockchain/Contracts.sol\":421:502  function compute(uint a, uint b) internal pure returns (uint) {\r... */\n      swap3\n      swap2\n      pop\n      pop\n      jump\t// out\n\n    auxdata: 0xa165627a7a72305820826356d38d57c6dfcf6153aa3b36bbaf7c1c7bb7411b1b18d85ea805cc5ff23d0029\n}\n\nsub_1: assembly {\n        /* \"Blockchain/Contracts.sol\":25:505  contract C {\r... */\n      mstore(0x40, 0x80)\n        /* \"Blockchain/Contracts.sol\":147:184  constructor() public {\r... */\n      callvalue\n        /* \"--CODEGEN--\":8:17   */\n      dup1\n        /* \"--CODEGEN--\":5:7   */\n      iszero\n      tag_1\n      jumpi\n        /* \"--CODEGEN--\":30:31   */\n      0x0\n        /* \"--CODEGEN--\":27:28   */\n      dup1\n        /* \"--CODEGEN--\":20:32   */\n      revert\n        /* \"--CODEGEN--\":5:7   */\n    tag_1:\n        /* \"Blockchain/Contracts.sol\":147:184  constructor() public {\r... */\n      pop\n        /* \"Blockchain/Contracts.sol\":178:180  10 */\n      0xa\n        /* \"Blockchain/Contracts.sol\":171:175  info */\n      0x1\n        /* \"Blockchain/Contracts.sol\":171:180  info = 10 */\n      dup2\n      swap1\n      sstore\n      pop\n        /* \"Blockchain/Contracts.sol\":25:505  contract C {\r... */\n      dataSize(sub_0)\n      dup1\n      dataOffset(sub_0)\n      0x0\n      codecopy\n      0x0\n      return\n    stop\n\n    sub_0: assembly {\n            /* \"Blockchain/Contracts.sol\":25:505  contract C {\r... */\n          mstore(0x40, 0x80)\n          jumpi(tag_1, lt(calldatasize, 0x4))\n          calldataload(0x0)\n          0x100000000000000000000000000000000000000000000000000000000\n          swap1\n          div\n          0xffffffff\n          and\n          dup1\n          0x9e96008\n          eq\n          tag_2\n          jumpi\n          dup1\n          0x370158ea\n          eq\n          tag_3\n          jumpi\n          dup1\n          0x3bc5de30\n          eq\n          tag_4\n          jumpi\n        tag_1:\n          0x0\n          dup1\n          revert\n            /* \"Blockchain/Contracts.sol\":303:353  function updateData(uint a) public {\r... */\n        tag_2:\n          callvalue\n            /* \"--CODEGEN--\":8:17   */\n          dup1\n            /* \"--CODEGEN--\":5:7   */\n          iszero\n          tag_5\n          jumpi\n            /* \"--CODEGEN--\":30:31   */\n          0x0\n            /* \"--CODEGEN--\":27:28   */\n          dup1\n            /* \"--CODEGEN--\":20:32   */\n          revert\n            /* \"--CODEGEN--\":5:7   */\n        tag_5:\n            /* \"Blockchain/Contracts.sol\":303:353  function updateData(uint a) public {\r... */\n          pop\n          tag_6\n          0x4\n          dup1\n          calldatasize\n          sub\n            /* \"--CODEGEN--\":13:15   */\n          0x20\n            /* \"--CODEGEN--\":8:11   */\n          dup2\n            /* \"--CODEGEN--\":5:16   */\n          lt\n            /* \"--CODEGEN--\":2:4   */\n          iszero\n          tag_7\n          jumpi\n            /* \"--CODEGEN--\":29:30   */\n          0x0\n            /* \"--CODEGEN--\":26:27   */\n          dup1\n            /* \"--CODEGEN--\":19:31   */\n          revert\n            /* \"--CODEGEN--\":2:4   */\n        tag_7:\n            /* \"Blockchain/Contracts.sol\":303:353  function updateData(uint a) public {\r... */\n          dup2\n          add\n          swap1\n          dup1\n          dup1\n          calldataload\n          swap1\n          0x20\n          add\n          swap1\n          swap3\n          swap2\n          swap1\n          pop\n          pop\n          pop\n          jump(tag_8)\n        tag_6:\n          stop\n            /* \"Blockchain/Contracts.sol\":112:128  uint public info */\n        tag_3:\n          callvalue\n            /* \"--CODEGEN--\":8:17   */\n          dup1\n            /* \"--CODEGEN--\":5:7   */\n          iszero\n          tag_9\n          jumpi\n            /* \"--CODEGEN--\":30:31   */\n          0x0\n            /* \"--CODEGEN--\":27:28   */\n          dup1\n            /* \"--CODEGEN--\":20:32   */\n          revert\n            /* \"--CODEGEN--\":5:7   */\n        tag_9:\n            /* \"Blockchain/Contracts.sol\":112:128  uint public info */\n          pop\n          tag_10\n          jump(tag_11)\n        tag_10:\n          mload(0x40)\n          dup1\n          dup3\n          dup2\n          mstore\n          0x20\n          add\n          swap2\n          pop\n          pop\n          mload(0x40)\n          dup1\n          swap2\n          sub\n          swap1\n          return\n            /* \"Blockchain/Contracts.sol\":355:419  function getData() public view returns (uint) {\r... */\n        tag_4:\n          callvalue\n            /* \"--CODEGEN--\":8:17   */\n          dup1\n            /* \"--CODEGEN--\":5:7   */\n          iszero\n          tag_12\n          jumpi\n            /* \"--CODEGEN--\":30:31   */\n          0x0\n            /* \"--CODEGEN--\":27:28   */\n          dup1\n            /* \"--CODEGEN--\":20:32   */\n          revert\n            /* \"--CODEGEN--\":5:7   */\n        tag_12:\n            /* \"Blockchain/Contracts.sol\":355:419  function getData() public view returns (uint) {\r... */\n          pop\n          tag_13\n          jump(tag_14)\n        tag_13:\n          mload(0x40)\n          dup1\n          dup3\n          dup2\n          mstore\n          0x20\n          add\n          swap2\n          pop\n          pop\n          mload(0x40)\n          dup1\n          swap2\n          sub\n          swap1\n          return\n            /* \"Blockchain/Contracts.sol\":303:353  function updateData(uint a) public {\r... */\n        tag_8:\n            /* \"Blockchain/Contracts.sol\":348:349  a */\n          dup1\n            /* \"Blockchain/Contracts.sol\":341:345  data */\n          0x0\n            /* \"Blockchain/Contracts.sol\":341:349  data = a */\n          dup2\n          swap1\n          sstore\n          pop\n            /* \"Blockchain/Contracts.sol\":303:353  function updateData(uint a) public {\r... */\n          pop\n          jump\t// out\n            /* \"Blockchain/Contracts.sol\":112:128  uint public info */\n        tag_11:\n          sload(0x1)\n          dup2\n          jump\t// out\n            /* \"Blockchain/Contracts.sol\":355:419  function getData() public view returns (uint) {\r... */\n        tag_14:\n            /* \"Blockchain/Contracts.sol\":395:399  uint */\n          0x0\n            /* \"Blockchain/Contracts.sol\":411:415  data */\n          dup1\n          sload\n            /* \"Blockchain/Contracts.sol\":404:415  return data */\n          swap1\n          pop\n            /* \"Blockchain/Contracts.sol\":355:419  function getData() public view returns (uint) {\r... */\n          swap1\n          jump\t// out\n\n        auxdata: 0xa165627a7a7230582085e540b5b546fb26001f55ee31ebeea7cce54bac98f45b367a062ca316f466590029\n    }\n}\n",
				"bytecode": {
					"linkReferences": {},
					"object": "608060405234801561001057600080fd5b50600a600181905550610021610083565b604051809103906000f08015801561003d573d6000803e3d6000fd5b50600360006101000a81548173ffffffffffffffffffffffffffffffffffffffff021916908373ffffffffffffffffffffffffffffffffffffffff160217905550610093565b60405161014c8061031483390190565b610272806100a26000396000f3fe60806040526004361061006d576000357c0100000000000000000000000000000000000000000000000000000000900463ffffffff16806309e9600814610072578063370158ea146100ad5780633bc5de30146100d857806343eea6e914610103578063de2927891461011a575b600080fd5b34801561007e57600080fd5b506100ab6004803603602081101561009557600080fd5b8101908080359060200190929190505050610145565b005b3480156100b957600080fd5b506100c261014f565b6040518082815260200191505060405180910390f35b3480156100e457600080fd5b506100ed610155565b6040518082815260200191505060405180910390f35b34801561010f57600080fd5b5061011861021b565b005b34801561012657600080fd5b5061012f61022f565b6040518082815260200191505060405180910390f35b8060008190555050565b60015481565b6000600360009054906101000a900473ffffffffffffffffffffffffffffffffffffffff1673ffffffffffffffffffffffffffffffffffffffff1663370158ea6040518163ffffffff167c010000000000000000000000000000000000000000000000000000000002815260040160206040518083038186803b1580156101db57600080fd5b505afa1580156101ef573d6000803e3d6000fd5b505050506040513d602081101561020557600080fd5b8101908080519060200190929190505050905090565b61022760036005610239565b600281905550565b6000600254905090565b600081830190509291505056fea165627a7a72305820826356d38d57c6dfcf6153aa3b36bbaf7c1c7bb7411b1b18d85ea805cc5ff23d0029608060405234801561001057600080fd5b50600a600181905550610124806100286000396000f3fe6080604052600436106053576000357c0100000000000000000000000000000000000000000000000000000000900463ffffffff16806309e96008146058578063370158ea14608f5780633bc5de301460b7575b600080fd5b348015606357600080fd5b50608d60048036036020811015607857600080fd5b810190808035906020019092919050505060df565b005b348015609a57600080fd5b5060a160e9565b6040518082815260200191505060405180910390f35b34801560c257600080fd5b5060c960ef565b6040518082815260200191505060405180910390f35b8060008190555050565b60015481565b6000805490509056fea165627a7a7230582085e540b5b546fb26001f55ee31ebeea7cce54bac98f45b367a062ca316f466590029",
					"opcodes": "PUSH1 0x80 PUSH1 0x40 MSTORE CALLVALUE DUP1 ISZERO PUSH2 0x10 JUMPI PUSH1 0x0 DUP1 REVERT JUMPDEST POP PUSH1 0xA PUSH1 0x1 DUP2 SWAP1 SSTORE POP PUSH2 0x21 PUSH2 0x83 JUMP JUMPDEST PUSH1 0x40 MLOAD DUP1 SWAP2 SUB SWAP1 PUSH1 0x0 CREATE DUP1 ISZERO DUP1 ISZERO PUSH2 0x3D JUMPI RETURNDATASIZE PUSH1 0x0 DUP1 RETURNDATACOPY RETURNDATASIZE PUSH1 0x0 REVERT JUMPDEST POP PUSH1 0x3 PUSH1 0x0 PUSH2 0x100 EXP DUP2 SLOAD DUP2 PUSH20 0xFFFFFFFFFFFFFFFFFFFFFFFFFFFFFFFFFFFFFFFF MUL NOT AND SWAP1 DUP4 PUSH20 0xFFFFFFFFFFFFFFFFFFFFFFFFFFFFFFFFFFFFFFFF AND MUL OR SWAP1 SSTORE POP PUSH2 0x93 JUMP JUMPDEST PUSH1 0x40 MLOAD PUSH2 0x14C DUP1 PUSH2 0x314 DUP4 CODECOPY ADD SWAP1 JUMP JUMPDEST PUSH2 0x272 DUP1 PUSH2 0xA2 PUSH1 0x0 CODECOPY PUSH1 0x0 RETURN INVALID PUSH1 0x80 PUSH1 0x40 MSTORE PUSH1 0x4 CALLDATASIZE LT PUSH2 0x6D JUMPI PUSH1 0x0 CALLDATALOAD PUSH29 0x100000000000000000000000000000000000000000000000000000000 SWAP1 DIV PUSH4 0xFFFFFFFF AND DUP1 PUSH4 0x9E96008 EQ PUSH2 0x72 JUMPI DUP1 PUSH4 0x370158EA EQ PUSH2 0xAD JUMPI DUP1 PUSH4 0x3BC5DE30 EQ PUSH2 0xD8 JUMPI DUP1 PUSH4 0x43EEA6E9 EQ PUSH2 0x103 JUMPI DUP1 PUSH4 0xDE292789 EQ PUSH2 0x11A JUMPI JUMPDEST PUSH1 0x0 DUP1 REVERT JUMPDEST CALLVALUE DUP1 ISZERO PUSH2 0x7E JUMPI PUSH1 0x0 DUP1 REVERT JUMPDEST POP PUSH2 0xAB PUSH1 0x4 DUP1 CALLDATASIZE SUB PUSH1 0x20 DUP2 LT ISZERO PUSH2 0x95 JUMPI PUSH1 0x0 DUP1 REVERT JUMPDEST DUP2 ADD SWAP1 DUP1 DUP1 CALLDATALOAD SWAP1 PUSH1 0x20 ADD SWAP1 SWAP3 SWAP2 SWAP1 POP POP POP PUSH2 0x145 JUMP JUMPDEST STOP JUMPDEST CALLVALUE DUP1 ISZERO PUSH2 0xB9 JUMPI PUSH1 0x0 DUP1 REVERT JUMPDEST POP PUSH2 0xC2 PUSH2 0x14F JUMP JUMPDEST PUSH1 0x40 MLOAD DUP1 DUP3 DUP2 MSTORE PUSH1 0x20 ADD SWAP2 POP POP PUSH1 0x40 MLOAD DUP1 SWAP2 SUB SWAP1 RETURN JUMPDEST CALLVALUE DUP1 ISZERO PUSH2 0xE4 JUMPI PUSH1 0x0 DUP1 REVERT JUMPDEST POP PUSH2 0xED PUSH2 0x155 JUMP JUMPDEST PUSH1 0x40 MLOAD DUP1 DUP3 DUP2 MSTORE PUSH1 0x20 ADD SWAP2 POP POP PUSH1 0x40 MLOAD DUP1 SWAP2 SUB SWAP1 RETURN JUMPDEST CALLVALUE DUP1 ISZERO PUSH2 0x10F JUMPI PUSH1 0x0 DUP1 REVERT JUMPDEST POP PUSH2 0x118 PUSH2 0x21B JUMP JUMPDEST STOP JUMPDEST CALLVALUE DUP1 ISZERO PUSH2 0x126 JUMPI PUSH1 0x0 DUP1 REVERT JUMPDEST POP PUSH2 0x12F PUSH2 0x22F JUMP JUMPDEST PUSH1 0x40 MLOAD DUP1 DUP3 DUP2 MSTORE PUSH1 0x20 ADD SWAP2 POP POP PUSH1 0x40 MLOAD DUP1 SWAP2 SUB SWAP1 RETURN JUMPDEST DUP1 PUSH1 0x0 DUP2 SWAP1 SSTORE POP POP JUMP JUMPDEST PUSH1 0x1 SLOAD DUP2 JUMP JUMPDEST PUSH1 0x0 PUSH1 0x3 PUSH1 0x0 SWAP1 SLOAD SWAP1 PUSH2 0x100 EXP SWAP1 DIV PUSH20 0xFFFFFFFFFFFFFFFFFFFFFFFFFFFFFFFFFFFFFFFF AND PUSH20 0xFFFFFFFFFFFFFFFFFFFFFFFFFFFFFFFFFFFFFFFF AND PUSH4 0x370158EA PUSH1 0x40 MLOAD DUP2 PUSH4 0xFFFFFFFF AND PUSH29 0x100000000000000000000000000000000000000000000000000000000 MUL DUP2 MSTORE PUSH1 0x4 ADD PUSH1 0x20 PUSH1 0x40 MLOAD DUP1 DUP4 SUB DUP2 DUP7 DUP1 EXTCODESIZE ISZERO DUP1 ISZERO PUSH2 0x1DB JUMPI PUSH1 0x0 DUP1 REVERT JUMPDEST POP GAS STATICCALL ISZERO DUP1 ISZERO PUSH2 0x1EF JUMPI RETURNDATASIZE PUSH1 0x0 DUP1 RETURNDATACOPY RETURNDATASIZE PUSH1 0x0 REVERT JUMPDEST POP POP POP POP PUSH1 0x40 MLOAD RETURNDATASIZE PUSH1 0x20 DUP2 LT ISZERO PUSH2 0x205 JUMPI PUSH1 0x0 DUP1 REVERT JUMPDEST DUP2 ADD SWAP1 DUP1 DUP1 MLOAD SWAP1 PUSH1 0x20 ADD SWAP1 SWAP3 SWAP2 SWAP1 POP POP POP SWAP1 POP SWAP1 JUMP JUMPDEST PUSH2 0x227 PUSH1 0x3 PUSH1 0x5 PUSH2 0x239 JUMP JUMPDEST PUSH1 0x2 DUP2 SWAP1 SSTORE POP JUMP JUMPDEST PUSH1 0x0 PUSH1 0x2 SLOAD SWAP1 POP SWAP1 JUMP JUMPDEST PUSH1 0x0 DUP2 DUP4 ADD SWAP1 POP SWAP3 SWAP2 POP POP JUMP INVALID LOG1 PUSH6 0x627A7A723058 KECCAK256 DUP3 PUSH4 0x56D38D57 0xc6 0xdf 0xcf PUSH2 0x53AA EXTCODESIZE CALLDATASIZE 0xbb 0xaf PUSH29 0x1C7BB7411B1B18D85EA805CC5FF23D0029608060405234801561001057 PUSH1 0x0 DUP1 REVERT JUMPDEST POP PUSH1 0xA PUSH1 0x1 DUP2 SWAP1 SSTORE POP PUSH2 0x124 DUP1 PUSH2 0x28 PUSH1 0x0 CODECOPY PUSH1 0x0 RETURN INVALID PUSH1 0x80 PUSH1 0x40 MSTORE PUSH1 0x4 CALLDATASIZE LT PUSH1 0x53 JUMPI PUSH1 0x0 CALLDATALOAD PUSH29 0x100000000000000000000000000000000000000000000000000000000 SWAP1 DIV PUSH4 0xFFFFFFFF AND DUP1 PUSH4 0x9E96008 EQ PUSH1 0x58 JUMPI DUP1 PUSH4 0x370158EA EQ PUSH1 0x8F JUMPI DUP1 PUSH4 0x3BC5DE30 EQ PUSH1 0xB7 JUMPI JUMPDEST PUSH1 0x0 DUP1 REVERT JUMPDEST CALLVALUE DUP1 ISZERO PUSH1 0x63 JUMPI PUSH1 0x0 DUP1 REVERT JUMPDEST POP PUSH1 0x8D PUSH1 0x4 DUP1 CALLDATASIZE SUB PUSH1 0x20 DUP2 LT ISZERO PUSH1 0x78 JUMPI PUSH1 0x0 DUP1 REVERT JUMPDEST DUP2 ADD SWAP1 DUP1 DUP1 CALLDATALOAD SWAP1 PUSH1 0x20 ADD SWAP1 SWAP3 SWAP2 SWAP1 POP POP POP PUSH1 0xDF JUMP JUMPDEST STOP JUMPDEST CALLVALUE DUP1 ISZERO PUSH1 0x9A JUMPI PUSH1 0x0 DUP1 REVERT JUMPDEST POP PUSH1 0xA1 PUSH1 0xE9 JUMP JUMPDEST PUSH1 0x40 MLOAD DUP1 DUP3 DUP2 MSTORE PUSH1 0x20 ADD SWAP2 POP POP PUSH1 0x40 MLOAD DUP1 SWAP2 SUB SWAP1 RETURN JUMPDEST CALLVALUE DUP1 ISZERO PUSH1 0xC2 JUMPI PUSH1 0x0 DUP1 REVERT JUMPDEST POP PUSH1 0xC9 PUSH1 0xEF JUMP JUMPDEST PUSH1 0x40 MLOAD DUP1 DUP3 DUP2 MSTORE PUSH1 0x20 ADD SWAP2 POP POP PUSH1 0x40 MLOAD DUP1 SWAP2 SUB SWAP1 RETURN JUMPDEST DUP1 PUSH1 0x0 DUP2 SWAP1 SSTORE POP POP JUMP JUMPDEST PUSH1 0x1 SLOAD DUP2 JUMP JUMPDEST PUSH1 0x0 DUP1 SLOAD SWAP1 POP SWAP1 JUMP INVALID LOG1 PUSH6 0x627A7A723058 KECCAK256 DUP6 0xe5 BLOCKHASH 0xb5 0xb5 0x46 0xfb 0x26 STOP 0x1f SSTORE 0xee BALANCE 0xeb 0xee 0xa7 0xcc 0xe5 0x4b 0xac SWAP9 DELEGATECALL JUMPDEST CALLDATASIZE PUSH27 0x62CA316F466590029000000000000000000000000000000000000 "
				},
				"gasEstimates": {
					"creation": {
						"codeDepositCost": "125200",
						"executionCost": "infinite",
						"totalCost": "infinite"
					},
					"external": {
						"getComputedResult()": "20267",
						"getData()": "infinite",
						"getResult()": "490",
						"info()": "416",
						"updateData(uint256)": "20231"
					}
				},
				"methodIdentifiers": {
					"getComputedResult()": "43eea6e9",
					"getData()": "3bc5de30",
					"getResult()": "de292789",
					"info()": "370158ea",
					"updateData(uint256)": "09e96008"
				}
			},
			"userdoc": {
				"methods": {}
			}
		}
	}
}