{
	"Blockchain/Contracts.sol": {
		"C": {
			"abi": [
				{
					"constant": false,
					"inputs": [
						{
							"name": "a",
							"type": "uint256"
						}
					],
					"name": "updateData",
					"outputs": [],
					"payable": false,
					"stateMutability": "nonpayable",
					"type": "function"
				},
				{
					"constant": true,
					"inputs": [],
					"name": "info",
					"outputs": [
						{
							"name": "",
							"type": "uint256"
						}
					],
					"payable": false,
					"stateMutability": "view",
					"type": "function"
				},
				{
					"constant": true,
					"inputs": [],
					"name": "getData",
					"outputs": [
						{
							"name": "",
							"type": "uint256"
						}
					],
					"payable": false,
					"stateMutability": "view",
					"type": "function"
				},
				{
					"inputs": [],
					"payable": false,
					"stateMutability": "nonpayable",
					"type": "constructor"
				}
			],
			"devdoc": {
				"methods": {}
			},
			"evm": {
				"assembly": "    /* \"Blockchain/Contracts.sol\":25:505  contract C {\r... */\n  mstore(0x40, 0x80)\n    /* \"Blockchain/Contracts.sol\":147:184  constructor() public {\r... */\n  callvalue\n    /* \"--CODEGEN--\":8:17   */\n  dup1\n    /* \"--CODEGEN--\":5:7   */\n  iszero\n  tag_1\n  jumpi\n    /* \"--CODEGEN--\":30:31   */\n  0x0\n    /* \"--CODEGEN--\":27:28   */\n  dup1\n    /* \"--CODEGEN--\":20:32   */\n  revert\n    /* \"--CODEGEN--\":5:7   */\ntag_1:\n    /* \"Blockchain/Contracts.sol\":147:184  constructor() public {\r... */\n  pop\n    /* \"Blockchain/Contracts.sol\":178:180  10 */\n  0xa\n    /* \"Blockchain/Contracts.sol\":171:175  info */\n  0x1\n    /* \"Blockchain/Contracts.sol\":171:180  info = 10 */\n  dup2\n  swap1\n  sstore\n  pop\n    /* \"Blockchain/Contracts.sol\":25:505  contract C {\r... */\n  dataSize(sub_0)\n  dup1\n  dataOffset(sub_0)\n  0x0\n  codecopy\n  0x0\n  return\nstop\n\nsub_0: assembly {\n        /* \"Blockchain/Contracts.sol\":25:505  contract C {\r... */\n      mstore(0x40, 0x80)\n      jumpi(tag_1, lt(calldatasize, 0x4))\n      calldataload(0x0)\n      0x100000000000000000000000000000000000000000000000000000000\n      swap1\n      div\n      0xffffffff\n      and\n      dup1\n      0x9e96008\n      eq\n      tag_2\n      jumpi\n      dup1\n      0x370158ea\n      eq\n      tag_3\n      jumpi\n      dup1\n      0x3bc5de30\n      eq\n      tag_4\n      jumpi\n    tag_1:\n      0x0\n      dup1\n      revert\n        /* \"Blockchain/Contracts.sol\":303:353  function updateData(uint a) public {\r... */\n    tag_2:\n      callvalue\n        /* \"--CODEGEN--\":8:17   */\n      dup1\n        /* \"--CODEGEN--\":5:7   */\n      iszero\n      tag_5\n      jumpi\n        /* \"--CODEGEN--\":30:31   */\n      0x0\n        /* \"--CODEGEN--\":27:28   */\n      dup1\n        /* \"--CODEGEN--\":20:32   */\n      revert\n        /* \"--CODEGEN--\":5:7   */\n    tag_5:\n        /* \"Blockchain/Contracts.sol\":303:353  function updateData(uint a) public {\r... */\n      pop\n      tag_6\n      0x4\n      dup1\n      calldatasize\n      sub\n        /* \"--CODEGEN--\":13:15   */\n      0x20\n        /* \"--CODEGEN--\":8:11   */\n      dup2\n        /* \"--CODEGEN--\":5:16   */\n      lt\n        /* \"--CODEGEN--\":2:4   */\n      iszero\n      tag_7\n      jumpi\n        /* \"--CODEGEN--\":29:30   */\n      0x0\n        /* \"--CODEGEN--\":26:27   */\n      dup1\n        /* \"--CODEGEN--\":19:31   */\n      revert\n        /* \"--CODEGEN--\":2:4   */\n    tag_7:\n        /* \"Blockchain/Contracts.sol\":303:353  function updateData(uint a) public {\r... */\n      dup2\n      add\n      swap1\n      dup1\n      dup1\n      calldataload\n      swap1\n      0x20\n      add\n      swap1\n      swap3\n      swap2\n      swap1\n      pop\n      pop\n      pop\n      jump(tag_8)\n    tag_6:\n      stop\n        /* \"Blockchain/Contracts.sol\":112:128  uint public info */\n    tag_3:\n      callvalue\n        /* \"--CODEGEN--\":8:17   */\n      dup1\n        /* \"--CODEGEN--\":5:7   */\n      iszero\n      tag_9\n      jumpi\n        /* \"--CODEGEN--\":30:31   */\n      0x0\n        /* \"--CODEGEN--\":27:28   */\n      dup1\n        /* \"--CODEGEN--\":20:32   */\n      revert\n        /* \"--CODEGEN--\":5:7   */\n    tag_9:\n        /* \"Blockchain/Contracts.sol\":112:128  uint public info */\n      pop\n      tag_10\n      jump(tag_11)\n    tag_10:\n      mload(0x40)\n      dup1\n      dup3\n      dup2\n      mstore\n      0x20\n      add\n      swap2\n      pop\n      pop\n      mload(0x40)\n      dup1\n      swap2\n      sub\n      swap1\n      return\n        /* \"Blockchain/Contracts.sol\":355:419  function getData() public view returns (uint) {\r... */\n    tag_4:\n      callvalue\n        /* \"--CODEGEN--\":8:17   */\n      dup1\n        /* \"--CODEGEN--\":5:7   */\n      iszero\n      tag_12\n      jumpi\n        /* \"--CODEGEN--\":30:31   */\n      0x0\n        /* \"--CODEGEN--\":27:28   */\n      dup1\n        /* \"--CODEGEN--\":20:32   */\n      revert\n        /* \"--CODEGEN--\":5:7   */\n    tag_12:\n        /* \"Blockchain/Contracts.sol\":355:419  function getData() public view returns (uint) {\r... */\n      pop\n      tag_13\n      jump(tag_14)\n    tag_13:\n      mload(0x40)\n      dup1\n      dup3\n      dup2\n      mstore\n      0x20\n      add\n      swap2\n      pop\n      pop\n      mload(0x40)\n      dup1\n      swap2\n      sub\n      swap1\n      return\n        /* \"Blockchain/Contracts.sol\":303:353  function updateData(uint a) public {\r... */\n    tag_8:\n        /* \"Blockchain/Contracts.sol\":348:349  a */\n      dup1\n        /* \"Blockchain/Contracts.sol\":341:345  data */\n      0x0\n        /* \"Blockchain/Contracts.sol\":341:349  data = a */\n      dup2\n      swap1\n      sstore\n      pop\n        /* \"Blockchain/Contracts.sol\":303:353  function updateData(uint a) public {\r... */\n      pop\n      jump\t// out\n        /* \"Blockchain/Contracts.sol\":112:128  uint public info */\n    tag_11:\n      sload(0x1)\n      dup2\n      jump\t// out\n        /* \"Blockchain/Contracts.sol\":355:419  function getData() public view returns (uint) {\r... */\n    tag_14:\n        /* \"Blockchain/Contracts.sol\":395:399  uint */\n      0x0\n        /* \"Blockchain/Contracts.sol\":411:415  data */\n      dup1\n      sload\n        /* \"Blockchain/Contracts.sol\":404:415  return data */\n      swap1\n      pop\n        /* \"Blockchain/Contracts.sol\":355:419  function getData() public view returns (uint) {\r... */\n      swap1\n      jump\t// out\n\n    auxdata: 0xa165627a7a7230582085e540b5b546fb26001f55ee31ebeea7cce54bac98f45b367a062ca316f466590029\n}\n",
				"bytecode": {
					"linkReferences": {},
					"object": "608060405234801561001057600080fd5b50600a600181905550610124806100286000396000f3fe6080604052600436106053576000357c0100000000000000000000000000000000000000000000000000000000900463ffffffff16806309e96008146058578063370158ea14608f5780633bc5de301460b7575b600080fd5b348015606357600080fd5b50608d60048036036020811015607857600080fd5b810190808035906020019092919050505060df565b005b348015609a57600080fd5b5060a160e9565b6040518082815260200191505060405180910390f35b34801560c257600080fd5b5060c960ef565b6040518082815260200191505060405180910390f35b8060008190555050565b60015481565b6000805490509056fea165627a7a7230582085e540b5b546fb26001f55ee31ebeea7cce54bac98f45b367a062ca316f466590029",
					"opcodes": "PUSH1 0x80 PUSH1 0x40 MSTORE CALLVALUE DUP1 ISZERO PUSH2 0x10 JUMPI PUSH1 0x0 DUP1 REVERT JUMPDEST POP PUSH1 0xA PUSH1 0x1 DUP2 SWAP1 SSTORE POP PUSH2 0x124 DUP1 PUSH2 0x28 PUSH1 0x0 CODECOPY PUSH1 0x0 RETURN INVALID PUSH1 0x80 PUSH1 0x40 MSTORE PUSH1 0x4 CALLDATASIZE LT PUSH1 0x53 JUMPI PUSH1 0x0 CALLDATALOAD PUSH29 0x100000000000000000000000000000000000000000000000000000000 SWAP1 DIV PUSH4 0xFFFFFFFF AND DUP1 PUSH4 0x9E96008 EQ PUSH1 0x58 JUMPI DUP1 PUSH4 0x370158EA EQ PUSH1 0x8F JUMPI DUP1 PUSH4 0x3BC5DE30 EQ PUSH1 0xB7 JUMPI JUMPDEST PUSH1 0x0 DUP1 REVERT JUMPDEST CALLVALUE DUP1 ISZERO PUSH1 0x63 JUMPI PUSH1 0x0 DUP1 REVERT JUMPDEST POP PUSH1 0x8D PUSH1 0x4 DUP1 CALLDATASIZE SUB PUSH1 0x20 DUP2 LT ISZERO PUSH1 0x78 JUMPI PUSH1 0x0 DUP1 REVERT JUMPDEST DUP2 ADD SWAP1 DUP1 DUP1 CALLDATALOAD SWAP1 PUSH1 0x20 ADD SWAP1 SWAP3 SWAP2 SWAP1 POP POP POP PUSH1 0xDF JUMP JUMPDEST STOP JUMPDEST CALLVALUE DUP1 ISZERO PUSH1 0x9A JUMPI PUSH1 0x0 DUP1 REVERT JUMPDEST POP PUSH1 0xA1 PUSH1 0xE9 JUMP JUMPDEST PUSH1 0x40 MLOAD DUP1 DUP3 DUP2 MSTORE PUSH1 0x20 ADD SWAP2 POP POP PUSH1 0x40 MLOAD DUP1 SWAP2 SUB SWAP1 RETURN JUMPDEST CALLVALUE DUP1 ISZERO PUSH1 0xC2 JUMPI PUSH1 0x0 DUP1 REVERT JUMPDEST POP PUSH1 0xC9 PUSH1 0xEF JUMP JUMPDEST PUSH1 0x40 MLOAD DUP1 DUP3 DUP2 MSTORE PUSH1 0x20 ADD SWAP2 POP POP PUSH1 0x40 MLOAD DUP1 SWAP2 SUB SWAP1 RETURN JUMPDEST DUP1 PUSH1 0x0 DUP2 SWAP1 SSTORE POP POP JUMP JUMPDEST PUSH1 0x1 SLOAD DUP2 JUMP JUMPDEST PUSH1 0x0 DUP1 SLOAD SWAP1 POP SWAP1 JUMP INVALID LOG1 PUSH6 0x627A7A723058 KECCAK256 DUP6 0xe5 BLOCKHASH 0xb5 0xb5 0x46 0xfb 0x26 STOP 0x1f SSTORE 0xee BALANCE 0xeb 0xee 0xa7 0xcc 0xe5 0x4b 0xac SWAP9 DELEGATECALL JUMPDEST CALLDATASIZE PUSH27 0x62CA316F466590029000000000000000000000000000000000000 "
				},
				"gasEstimates": {
					"creation": {
						"codeDepositCost": "58400",
						"executionCost": "20125",
						"totalCost": "78525"
					},
					"external": {
						"getData()": "446",
						"info()": "416",
						"updateData(uint256)": "20231"
					},
					"internal": {
						"compute(uint256,uint256)": "infinite",
						"increment(uint256)": "infinite"
					}
				},
				"methodIdentifiers": {
					"getData()": "3bc5de30",
					"info()": "370158ea",
					"updateData(uint256)": "09e96008"
				}
			},
			"userdoc": {
				"methods": {}
			}
		}
	}
}