{
	"Blockchain/Bitwise operator.sol": {
		"SolidityTest": {
			"abi": [
				{
					"constant": true,
					"inputs": [],
					"name": "a",
					"outputs": [
						{
							"name": "",
							"type": "uint16"
						}
					],
					"payable": false,
					"stateMutability": "view",
					"type": "function"
				},
				{
					"constant": true,
					"inputs": [],
					"name": "leftshift",
					"outputs": [
						{
							"name": "",
							"type": "uint16"
						}
					],
					"payable": false,
					"stateMutability": "view",
					"type": "function"
				},
				{
					"constant": true,
					"inputs": [],
					"name": "rightshift",
					"outputs": [
						{
							"name": "",
							"type": "uint16"
						}
					],
					"payable": false,
					"stateMutability": "view",
					"type": "function"
				},
				{
					"constant": true,
					"inputs": [],
					"name": "or",
					"outputs": [
						{
							"name": "",
							"type": "uint16"
						}
					],
					"payable": false,
					"stateMutability": "view",
					"type": "function"
				},
				{
					"constant": true,
					"inputs": [],
					"name": "not",
					"outputs": [
						{
							"name": "",
							"type": "uint16"
						}
					],
					"payable": false,
					"stateMutability": "view",
					"type": "function"
				},
				{
					"constant": true,
					"inputs": [],
					"name": "b",
					"outputs": [
						{
							"name": "",
							"type": "uint16"
						}
					],
					"payable": false,
					"stateMutability": "view",
					"type": "function"
				},
				{
					"constant": true,
					"inputs": [],
					"name": "xor",
					"outputs": [
						{
							"name": "",
							"type": "uint16"
						}
					],
					"payable": false,
					"stateMutability": "view",
					"type": "function"
				},
				{
					"constant": true,
					"inputs": [],
					"name": "and",
					"outputs": [
						{
							"name": "",
							"type": "uint16"
						}
					],
					"payable": false,
					"stateMutability": "view",
					"type": "function"
				}
			],
			"devdoc": {
				"methods": {}
			},
			"evm": {
				"assembly": "    /* \"Blockchain/Bitwise operator.sol\":106:654  contract SolidityTest {\r... */\n  mstore(0x40, 0x80)\n    /* \"Blockchain/Bitwise operator.sol\":173:175  20 */\n  0x14\n    /* \"Blockchain/Bitwise operator.sol\":155:175  uint16 public a = 20 */\n  0x0\n  dup1\n  0x100\n  exp\n  dup2\n  sload\n  dup2\n  0xffff\n  mul\n  not\n  and\n  swap1\n  dup4\n  0xffff\n  and\n  mul\n  or\n  swap1\n  sstore\n  pop\n    /* \"Blockchain/Bitwise operator.sol\":196:198  10 */\n  0xa\n    /* \"Blockchain/Bitwise operator.sol\":178:198  uint16 public b = 10 */\n  0x0\n  exp(0x100, 0x2)\n  dup2\n  sload\n  dup2\n  0xffff\n  mul\n  not\n  and\n  swap1\n  dup4\n  0xffff\n  and\n  mul\n  or\n  swap1\n  sstore\n  pop\n    /* \"Blockchain/Bitwise operator.sol\":270:271  b */\n  0x0\n  0x2\n  swap1\n  sload\n  swap1\n  0x100\n  exp\n  swap1\n  div\n  0xffff\n  and\n    /* \"Blockchain/Bitwise operator.sol\":266:267  a */\n  0x0\n  dup1\n  swap1\n  sload\n  swap1\n  0x100\n  exp\n  swap1\n  div\n  0xffff\n  and\n    /* \"Blockchain/Bitwise operator.sol\":266:271  a & b */\n  and\n    /* \"Blockchain/Bitwise operator.sol\":246:271  uint16 public and = a & b */\n  0x0\n  exp(0x100, 0x4)\n  dup2\n  sload\n  dup2\n  0xffff\n  mul\n  not\n  and\n  swap1\n  dup4\n  0xffff\n  and\n  mul\n  or\n  swap1\n  sstore\n  pop\n    /* \"Blockchain/Bitwise operator.sol\":342:343  b */\n  0x0\n  0x2\n  swap1\n  sload\n  swap1\n  0x100\n  exp\n  swap1\n  div\n  0xffff\n  and\n    /* \"Blockchain/Bitwise operator.sol\":338:339  a */\n  0x0\n  dup1\n  swap1\n  sload\n  swap1\n  0x100\n  exp\n  swap1\n  div\n  0xffff\n  and\n    /* \"Blockchain/Bitwise operator.sol\":338:343  a | b */\n  or\n    /* \"Blockchain/Bitwise operator.sol\":319:343  uint16 public or = a | b */\n  0x0\n  exp(0x100, 0x6)\n  dup2\n  sload\n  dup2\n  0xffff\n  mul\n  not\n  and\n  swap1\n  dup4\n  0xffff\n  and\n  mul\n  or\n  swap1\n  sstore\n  pop\n    /* \"Blockchain/Bitwise operator.sol\":415:416  b */\n  0x0\n  0x2\n  swap1\n  sload\n  swap1\n  0x100\n  exp\n  swap1\n  div\n  0xffff\n  and\n    /* \"Blockchain/Bitwise operator.sol\":411:412  a */\n  0x0\n  dup1\n  swap1\n  sload\n  swap1\n  0x100\n  exp\n  swap1\n  div\n  0xffff\n  and\n    /* \"Blockchain/Bitwise operator.sol\":411:416  a ^ b */\n  xor\n    /* \"Blockchain/Bitwise operator.sol\":391:416  uint16 public xor = a ^ b */\n  0x0\n  exp(0x100, 0x8)\n  dup2\n  sload\n  dup2\n  0xffff\n  mul\n  not\n  and\n  swap1\n  dup4\n  0xffff\n  and\n  mul\n  or\n  swap1\n  sstore\n  pop\n    /* \"Blockchain/Bitwise operator.sol\":496:497  b */\n  0x0\n  0x2\n  swap1\n  sload\n  swap1\n  0x100\n  exp\n  swap1\n  div\n  0xffff\n  and\n    /* \"Blockchain/Bitwise operator.sol\":491:497  a << b */\n  0xffff\n  and\n    /* \"Blockchain/Bitwise operator.sol\":491:492  a */\n  0x0\n  dup1\n  swap1\n  sload\n  swap1\n  0x100\n  exp\n  swap1\n  div\n  0xffff\n  and\n    /* \"Blockchain/Bitwise operator.sol\":491:497  a << b */\n  0xffff\n  and\n  swap1\n  0x2\n  exp\n  mul\n    /* \"Blockchain/Bitwise operator.sol\":465:497  uint16 public leftshift = a << b */\n  0x0\n  exp(0x100, 0xa)\n  dup2\n  sload\n  dup2\n  0xffff\n  mul\n  not\n  and\n  swap1\n  dup4\n  0xffff\n  and\n  mul\n  or\n  swap1\n  sstore\n  pop\n    /* \"Blockchain/Bitwise operator.sol\":578:579  b */\n  0x0\n  0x2\n  swap1\n  sload\n  swap1\n  0x100\n  exp\n  swap1\n  div\n  0xffff\n  and\n    /* \"Blockchain/Bitwise operator.sol\":573:579  a >> b */\n  0xffff\n  and\n    /* \"Blockchain/Bitwise operator.sol\":573:574  a */\n  0x0\n  dup1\n  swap1\n  sload\n  swap1\n  0x100\n  exp\n  swap1\n  div\n  0xffff\n  and\n    /* \"Blockchain/Bitwise operator.sol\":573:579  a >> b */\n  0xffff\n  and\n  swap1\n    /* \"--CODEGEN--\":52:64   */\n  dup1\n    /* \"--CODEGEN--\":49:50   */\n  0x2\n    /* \"--CODEGEN--\":45:65   */\n  exp\n    /* \"--CODEGEN--\":29:43   */\n  dup3\n    /* \"--CODEGEN--\":25:66   */\n  div\n    /* \"--CODEGEN--\":7:66   */\n  swap2\n  pop\n    /* \"Blockchain/Bitwise operator.sol\":573:579  a >> b */\n  pop\n    /* \"Blockchain/Bitwise operator.sol\":546:579  uint16 public rightshift = a >> b */\n  0x0\n  exp(0x100, 0xc)\n  dup2\n  sload\n  dup2\n  0xffff\n  mul\n  not\n  and\n  swap1\n  dup4\n  0xffff\n  and\n  mul\n  or\n  swap1\n  sstore\n  pop\n    /* \"Blockchain/Bitwise operator.sol\":648:649  a */\n  0x0\n  dup1\n  swap1\n  sload\n  swap1\n  0x100\n  exp\n  swap1\n  div\n  0xffff\n  and\n    /* \"Blockchain/Bitwise operator.sol\":647:649  ~a */\n  not\n    /* \"Blockchain/Bitwise operator.sol\":627:649  uint16 public not = ~a */\n  0x0\n  exp(0x100, 0xe)\n  dup2\n  sload\n  dup2\n  0xffff\n  mul\n  not\n  and\n  swap1\n  dup4\n  0xffff\n  and\n  mul\n  or\n  swap1\n  sstore\n  pop\n    /* \"Blockchain/Bitwise operator.sol\":106:654  contract SolidityTest {\r... */\n  callvalue\n    /* \"--CODEGEN--\":8:17   */\n  dup1\n    /* \"--CODEGEN--\":5:7   */\n  iszero\n  tag_1\n  jumpi\n    /* \"--CODEGEN--\":30:31   */\n  0x0\n    /* \"--CODEGEN--\":27:28   */\n  dup1\n    /* \"--CODEGEN--\":20:32   */\n  revert\n    /* \"--CODEGEN--\":5:7   */\ntag_1:\n    /* \"Blockchain/Bitwise operator.sol\":106:654  contract SolidityTest {\r... */\n  pop\n  dataSize(sub_0)\n  dup1\n  dataOffset(sub_0)\n  0x0\n  codecopy\n  0x0\n  return\nstop\n\nsub_0: assembly {\n        /* \"Blockchain/Bitwise operator.sol\":106:654  contract SolidityTest {\r... */\n      mstore(0x40, 0x80)\n      jumpi(tag_1, lt(calldatasize, 0x4))\n      calldataload(0x0)\n      0x100000000000000000000000000000000000000000000000000000000\n      swap1\n      div\n      0xffffffff\n      and\n      dup1\n      0xdbe671f\n      eq\n      tag_2\n      jumpi\n      dup1\n      0x1eab7977\n      eq\n      tag_3\n      jumpi\n      dup1\n      0x26912c48\n      eq\n      tag_4\n      jumpi\n      dup1\n      0x2d5e74d8\n      eq\n      tag_5\n      jumpi\n      dup1\n      0x2e13bd10\n      eq\n      tag_6\n      jumpi\n      dup1\n      0x4df7e3d0\n      eq\n      tag_7\n      jumpi\n      dup1\n      0x5ada0c68\n      eq\n      tag_8\n      jumpi\n      dup1\n      0x9542f2e0\n      eq\n      tag_9\n      jumpi\n    tag_1:\n      0x0\n      dup1\n      revert\n        /* \"Blockchain/Bitwise operator.sol\":155:175  uint16 public a = 20 */\n    tag_2:\n      callvalue\n        /* \"--CODEGEN--\":8:17   */\n      dup1\n        /* \"--CODEGEN--\":5:7   */\n      iszero\n      tag_10\n      jumpi\n        /* \"--CODEGEN--\":30:31   */\n      0x0\n        /* \"--CODEGEN--\":27:28   */\n      dup1\n        /* \"--CODEGEN--\":20:32   */\n      revert\n        /* \"--CODEGEN--\":5:7   */\n    tag_10:\n        /* \"Blockchain/Bitwise operator.sol\":155:175  uint16 public a = 20 */\n      pop\n      tag_11\n      jump(tag_12)\n    tag_11:\n      mload(0x40)\n      dup1\n      dup3\n      0xffff\n      and\n      0xffff\n      and\n      dup2\n      mstore\n      0x20\n      add\n      swap2\n      pop\n      pop\n      mload(0x40)\n      dup1\n      swap2\n      sub\n      swap1\n      return\n        /* \"Blockchain/Bitwise operator.sol\":465:497  uint16 public leftshift = a << b */\n    tag_3:\n      callvalue\n        /* \"--CODEGEN--\":8:17   */\n      dup1\n        /* \"--CODEGEN--\":5:7   */\n      iszero\n      tag_13\n      jumpi\n        /* \"--CODEGEN--\":30:31   */\n      0x0\n        /* \"--CODEGEN--\":27:28   */\n      dup1\n        /* \"--CODEGEN--\":20:32   */\n      revert\n        /* \"--CODEGEN--\":5:7   */\n    tag_13:\n        /* \"Blockchain/Bitwise operator.sol\":465:497  uint16 public leftshift = a << b */\n      pop\n      tag_14\n      jump(tag_15)\n    tag_14:\n      mload(0x40)\n      dup1\n      dup3\n      0xffff\n      and\n      0xffff\n      and\n      dup2\n      mstore\n      0x20\n      add\n      swap2\n      pop\n      pop\n      mload(0x40)\n      dup1\n      swap2\n      sub\n      swap1\n      return\n        /* \"Blockchain/Bitwise operator.sol\":546:579  uint16 public rightshift = a >> b */\n    tag_4:\n      callvalue\n        /* \"--CODEGEN--\":8:17   */\n      dup1\n        /* \"--CODEGEN--\":5:7   */\n      iszero\n      tag_16\n      jumpi\n        /* \"--CODEGEN--\":30:31   */\n      0x0\n        /* \"--CODEGEN--\":27:28   */\n      dup1\n        /* \"--CODEGEN--\":20:32   */\n      revert\n        /* \"--CODEGEN--\":5:7   */\n    tag_16:\n        /* \"Blockchain/Bitwise operator.sol\":546:579  uint16 public rightshift = a >> b */\n      pop\n      tag_17\n      jump(tag_18)\n    tag_17:\n      mload(0x40)\n      dup1\n      dup3\n      0xffff\n      and\n      0xffff\n      and\n      dup2\n      mstore\n      0x20\n      add\n      swap2\n      pop\n      pop\n      mload(0x40)\n      dup1\n      swap2\n      sub\n      swap1\n      return\n        /* \"Blockchain/Bitwise operator.sol\":319:343  uint16 public or = a | b */\n    tag_5:\n      callvalue\n        /* \"--CODEGEN--\":8:17   */\n      dup1\n        /* \"--CODEGEN--\":5:7   */\n      iszero\n      tag_19\n      jumpi\n        /* \"--CODEGEN--\":30:31   */\n      0x0\n        /* \"--CODEGEN--\":27:28   */\n      dup1\n        /* \"--CODEGEN--\":20:32   */\n      revert\n        /* \"--CODEGEN--\":5:7   */\n    tag_19:\n        /* \"Blockchain/Bitwise operator.sol\":319:343  uint16 public or = a | b */\n      pop\n      tag_20\n      jump(tag_21)\n    tag_20:\n      mload(0x40)\n      dup1\n      dup3\n      0xffff\n      and\n      0xffff\n      and\n      dup2\n      mstore\n      0x20\n      add\n      swap2\n      pop\n      pop\n      mload(0x40)\n      dup1\n      swap2\n      sub\n      swap1\n      return\n        /* \"Blockchain/Bitwise operator.sol\":627:649  uint16 public not = ~a */\n    tag_6:\n      callvalue\n        /* \"--CODEGEN--\":8:17   */\n      dup1\n        /* \"--CODEGEN--\":5:7   */\n      iszero\n      tag_22\n      jumpi\n        /* \"--CODEGEN--\":30:31   */\n      0x0\n        /* \"--CODEGEN--\":27:28   */\n      dup1\n        /* \"--CODEGEN--\":20:32   */\n      revert\n        /* \"--CODEGEN--\":5:7   */\n    tag_22:\n        /* \"Blockchain/Bitwise operator.sol\":627:649  uint16 public not = ~a */\n      pop\n      tag_23\n      jump(tag_24)\n    tag_23:\n      mload(0x40)\n      dup1\n      dup3\n      0xffff\n      and\n      0xffff\n      and\n      dup2\n      mstore\n      0x20\n      add\n      swap2\n      pop\n      pop\n      mload(0x40)\n      dup1\n      swap2\n      sub\n      swap1\n      return\n        /* \"Blockchain/Bitwise operator.sol\":178:198  uint16 public b = 10 */\n    tag_7:\n      callvalue\n        /* \"--CODEGEN--\":8:17   */\n      dup1\n        /* \"--CODEGEN--\":5:7   */\n      iszero\n      tag_25\n      jumpi\n        /* \"--CODEGEN--\":30:31   */\n      0x0\n        /* \"--CODEGEN--\":27:28   */\n      dup1\n        /* \"--CODEGEN--\":20:32   */\n      revert\n        /* \"--CODEGEN--\":5:7   */\n    tag_25:\n        /* \"Blockchain/Bitwise operator.sol\":178:198  uint16 public b = 10 */\n      pop\n      tag_26\n      jump(tag_27)\n    tag_26:\n      mload(0x40)\n      dup1\n      dup3\n      0xffff\n      and\n      0xffff\n      and\n      dup2\n      mstore\n      0x20\n      add\n      swap2\n      pop\n      pop\n      mload(0x40)\n      dup1\n      swap2\n      sub\n      swap1\n      return\n        /* \"Blockchain/Bitwise operator.sol\":391:416  uint16 public xor = a ^ b */\n    tag_8:\n      callvalue\n        /* \"--CODEGEN--\":8:17   */\n      dup1\n        /* \"--CODEGEN--\":5:7   */\n      iszero\n      tag_28\n      jumpi\n        /* \"--CODEGEN--\":30:31   */\n      0x0\n        /* \"--CODEGEN--\":27:28   */\n      dup1\n        /* \"--CODEGEN--\":20:32   */\n      revert\n        /* \"--CODEGEN--\":5:7   */\n    tag_28:\n        /* \"Blockchain/Bitwise operator.sol\":391:416  uint16 public xor = a ^ b */\n      pop\n      tag_29\n      jump(tag_30)\n    tag_29:\n      mload(0x40)\n      dup1\n      dup3\n      0xffff\n      and\n      0xffff\n      and\n      dup2\n      mstore\n      0x20\n      add\n      swap2\n      pop\n      pop\n      mload(0x40)\n      dup1\n      swap2\n      sub\n      swap1\n      return\n        /* \"Blockchain/Bitwise operator.sol\":246:271  uint16 public and = a & b */\n    tag_9:\n      callvalue\n        /* \"--CODEGEN--\":8:17   */\n      dup1\n        /* \"--CODEGEN--\":5:7   */\n      iszero\n      tag_31\n      jumpi\n        /* \"--CODEGEN--\":30:31   */\n      0x0\n        /* \"--CODEGEN--\":27:28   */\n      dup1\n        /* \"--CODEGEN--\":20:32   */\n      revert\n        /* \"--CODEGEN--\":5:7   */\n    tag_31:\n        /* \"Blockchain/Bitwise operator.sol\":246:271  uint16 public and = a & b */\n      pop\n      tag_32\n      jump(tag_33)\n    tag_32:\n      mload(0x40)\n      dup1\n      dup3\n      0xffff\n      and\n      0xffff\n      and\n      dup2\n      mstore\n      0x20\n      add\n      swap2\n      pop\n      pop\n      mload(0x40)\n      dup1\n      swap2\n      sub\n      swap1\n      return\n        /* \"Blockchain/Bitwise operator.sol\":155:175  uint16 public a = 20 */\n    tag_12:\n      0x0\n      dup1\n      swap1\n      sload\n      swap1\n      0x100\n      exp\n      swap1\n      div\n      0xffff\n      and\n      dup2\n      jump\t// out\n        /* \"Blockchain/Bitwise operator.sol\":465:497  uint16 public leftshift = a << b */\n    tag_15:\n      0x0\n      0xa\n      swap1\n      sload\n      swap1\n      0x100\n      exp\n      swap1\n      div\n      0xffff\n      and\n      dup2\n      jump\t// out\n        /* \"Blockchain/Bitwise operator.sol\":546:579  uint16 public rightshift = a >> b */\n    tag_18:\n      0x0\n      0xc\n      swap1\n      sload\n      swap1\n      0x100\n      exp\n      swap1\n      div\n      0xffff\n      and\n      dup2\n      jump\t// out\n        /* \"Blockchain/Bitwise operator.sol\":319:343  uint16 public or = a | b */\n    tag_21:\n      0x0\n      0x6\n      swap1\n      sload\n      swap1\n      0x100\n      exp\n      swap1\n      div\n      0xffff\n      and\n      dup2\n      jump\t// out\n        /* \"Blockchain/Bitwise operator.sol\":627:649  uint16 public not = ~a */\n    tag_24:\n      0x0\n      0xe\n      swap1\n      sload\n      swap1\n      0x100\n      exp\n      swap1\n      div\n      0xffff\n      and\n      dup2\n      jump\t// out\n        /* \"Blockchain/Bitwise operator.sol\":178:198  uint16 public b = 10 */\n    tag_27:\n      0x0\n      0x2\n      swap1\n      sload\n      swap1\n      0x100\n      exp\n      swap1\n      div\n      0xffff\n      and\n      dup2\n      jump\t// out\n        /* \"Blockchain/Bitwise operator.sol\":391:416  uint16 public xor = a ^ b */\n    tag_30:\n      0x0\n      0x8\n      swap1\n      sload\n      swap1\n      0x100\n      exp\n      swap1\n      div\n      0xffff\n      and\n      dup2\n      jump\t// out\n        /* \"Blockchain/Bitwise operator.sol\":246:271  uint16 public and = a & b */\n    tag_33:\n      0x0\n      0x4\n      swap1\n      sload\n      swap1\n      0x100\n      exp\n      swap1\n      div\n      0xffff\n      and\n      dup2\n      jump\t// out\n\n    auxdata: 0xa165627a7a723058206698af8425cfb7f27ca0d40806b6d39fd003c1c7d4aad5fd2b03bdcae2bc31010029\n}\n",
				"bytecode": {
					"linkReferences": {},
					"object": "608060405260146000806101000a81548161ffff021916908361ffff160217905550600a600060026101000a81548161ffff021916908361ffff160217905550600060029054906101000a900461ffff166000809054906101000a900461ffff1616600060046101000a81548161ffff021916908361ffff160217905550600060029054906101000a900461ffff166000809054906101000a900461ffff1617600060066101000a81548161ffff021916908361ffff160217905550600060029054906101000a900461ffff166000809054906101000a900461ffff1618600060086101000a81548161ffff021916908361ffff160217905550600060029054906101000a900461ffff1661ffff166000809054906101000a900461ffff1661ffff169060020a026000600a6101000a81548161ffff021916908361ffff160217905550600060029054906101000a900461ffff1661ffff166000809054906101000a900461ffff1661ffff16908060020a82049150506000600c6101000a81548161ffff021916908361ffff1602179055506000809054906101000a900461ffff16196000600e6101000a81548161ffff021916908361ffff1602179055503480156101cb57600080fd5b506102f6806101db6000396000f3fe60806040526004361061008e576000357c0100000000000000000000000000000000000000000000000000000000900463ffffffff1680630dbe671f146100935780631eab7977146100c657806326912c48146100f95780632d5e74d81461012c5780632e13bd101461015f5780634df7e3d0146101925780635ada0c68146101c55780639542f2e0146101f8575b600080fd5b34801561009f57600080fd5b506100a861022b565b604051808261ffff1661ffff16815260200191505060405180910390f35b3480156100d257600080fd5b506100db61023e565b604051808261ffff1661ffff16815260200191505060405180910390f35b34801561010557600080fd5b5061010e610252565b604051808261ffff1661ffff16815260200191505060405180910390f35b34801561013857600080fd5b50610141610266565b604051808261ffff1661ffff16815260200191505060405180910390f35b34801561016b57600080fd5b5061017461027a565b604051808261ffff1661ffff16815260200191505060405180910390f35b34801561019e57600080fd5b506101a761028e565b604051808261ffff1661ffff16815260200191505060405180910390f35b3480156101d157600080fd5b506101da6102a2565b604051808261ffff1661ffff16815260200191505060405180910390f35b34801561020457600080fd5b5061020d6102b6565b604051808261ffff1661ffff16815260200191505060405180910390f35b6000809054906101000a900461ffff1681565b6000600a9054906101000a900461ffff1681565b6000600c9054906101000a900461ffff1681565b600060069054906101000a900461ffff1681565b6000600e9054906101000a900461ffff1681565b600060029054906101000a900461ffff1681565b600060089054906101000a900461ffff1681565b600060049054906101000a900461ffff168156fea165627a7a723058206698af8425cfb7f27ca0d40806b6d39fd003c1c7d4aad5fd2b03bdcae2bc31010029",
					"opcodes": "PUSH1 0x80 PUSH1 0x40 MSTORE PUSH1 0x14 PUSH1 0x0 DUP1 PUSH2 0x100 EXP DUP2 SLOAD DUP2 PUSH2 0xFFFF MUL NOT AND SWAP1 DUP4 PUSH2 0xFFFF AND MUL OR SWAP1 SSTORE POP PUSH1 0xA PUSH1 0x0 PUSH1 0x2 PUSH2 0x100 EXP DUP2 SLOAD DUP2 PUSH2 0xFFFF MUL NOT AND SWAP1 DUP4 PUSH2 0xFFFF AND MUL OR SWAP1 SSTORE POP PUSH1 0x0 PUSH1 0x2 SWAP1 SLOAD SWAP1 PUSH2 0x100 EXP SWAP1 DIV PUSH2 0xFFFF AND PUSH1 0x0 DUP1 SWAP1 SLOAD SWAP1 PUSH2 0x100 EXP SWAP1 DIV PUSH2 0xFFFF AND AND PUSH1 0x0 PUSH1 0x4 PUSH2 0x100 EXP DUP2 SLOAD DUP2 PUSH2 0xFFFF MUL NOT AND SWAP1 DUP4 PUSH2 0xFFFF AND MUL OR SWAP1 SSTORE POP PUSH1 0x0 PUSH1 0x2 SWAP1 SLOAD SWAP1 PUSH2 0x100 EXP SWAP1 DIV PUSH2 0xFFFF AND PUSH1 0x0 DUP1 SWAP1 SLOAD SWAP1 PUSH2 0x100 EXP SWAP1 DIV PUSH2 0xFFFF AND OR PUSH1 0x0 PUSH1 0x6 PUSH2 0x100 EXP DUP2 SLOAD DUP2 PUSH2 0xFFFF MUL NOT AND SWAP1 DUP4 PUSH2 0xFFFF AND MUL OR SWAP1 SSTORE POP PUSH1 0x0 PUSH1 0x2 SWAP1 SLOAD SWAP1 PUSH2 0x100 EXP SWAP1 DIV PUSH2 0xFFFF AND PUSH1 0x0 DUP1 SWAP1 SLOAD SWAP1 PUSH2 0x100 EXP SWAP1 DIV PUSH2 0xFFFF AND XOR PUSH1 0x0 PUSH1 0x8 PUSH2 0x100 EXP DUP2 SLOAD DUP2 PUSH2 0xFFFF MUL NOT AND SWAP1 DUP4 PUSH2 0xFFFF AND MUL OR SWAP1 SSTORE POP PUSH1 0x0 PUSH1 0x2 SWAP1 SLOAD SWAP1 PUSH2 0x100 EXP SWAP1 DIV PUSH2 0xFFFF AND PUSH2 0xFFFF AND PUSH1 0x0 DUP1 SWAP1 SLOAD SWAP1 PUSH2 0x100 EXP SWAP1 DIV PUSH2 0xFFFF AND PUSH2 0xFFFF AND SWAP1 PUSH1 0x2 EXP MUL PUSH1 0x0 PUSH1 0xA PUSH2 0x100 EXP DUP2 SLOAD DUP2 PUSH2 0xFFFF MUL NOT AND SWAP1 DUP4 PUSH2 0xFFFF AND MUL OR SWAP1 SSTORE POP PUSH1 0x0 PUSH1 0x2 SWAP1 SLOAD SWAP1 PUSH2 0x100 EXP SWAP1 DIV PUSH2 0xFFFF AND PUSH2 0xFFFF AND PUSH1 0x0 DUP1 SWAP1 SLOAD SWAP1 PUSH2 0x100 EXP SWAP1 DIV PUSH2 0xFFFF AND PUSH2 0xFFFF AND SWAP1 DUP1 PUSH1 0x2 EXP DUP3 DIV SWAP2 POP POP PUSH1 0x0 PUSH1 0xC PUSH2 0x100 EXP DUP2 SLOAD DUP2 PUSH2 0xFFFF MUL NOT AND SWAP1 DUP4 PUSH2 0xFFFF AND MUL OR SWAP1 SSTORE POP PUSH1 0x0 DUP1 SWAP1 SLOAD SWAP1 PUSH2 0x100 EXP SWAP1 DIV PUSH2 0xFFFF AND NOT PUSH1 0x0 PUSH1 0xE PUSH2 0x100 EXP DUP2 SLOAD DUP2 PUSH2 0xFFFF MUL NOT AND SWAP1 DUP4 PUSH2 0xFFFF AND MUL OR SWAP1 SSTORE POP CALLVALUE DUP1 ISZERO PUSH2 0x1CB JUMPI PUSH1 0x0 DUP1 REVERT JUMPDEST POP PUSH2 0x2F6 DUP1 PUSH2 0x1DB PUSH1 0x0 CODECOPY PUSH1 0x0 RETURN INVALID PUSH1 0x80 PUSH1 0x40 MSTORE PUSH1 0x4 CALLDATASIZE LT PUSH2 0x8E JUMPI PUSH1 0x0 CALLDATALOAD PUSH29 0x100000000000000000000000000000000000000000000000000000000 SWAP1 DIV PUSH4 0xFFFFFFFF AND DUP1 PUSH4 0xDBE671F EQ PUSH2 0x93 JUMPI DUP1 PUSH4 0x1EAB7977 EQ PUSH2 0xC6 JUMPI DUP1 PUSH4 0x26912C48 EQ PUSH2 0xF9 JUMPI DUP1 PUSH4 0x2D5E74D8 EQ PUSH2 0x12C JUMPI DUP1 PUSH4 0x2E13BD10 EQ PUSH2 0x15F JUMPI DUP1 PUSH4 0x4DF7E3D0 EQ PUSH2 0x192 JUMPI DUP1 PUSH4 0x5ADA0C68 EQ PUSH2 0x1C5 JUMPI DUP1 PUSH4 0x9542F2E0 EQ PUSH2 0x1F8 JUMPI JUMPDEST PUSH1 0x0 DUP1 REVERT JUMPDEST CALLVALUE DUP1 ISZERO PUSH2 0x9F JUMPI PUSH1 0x0 DUP1 REVERT JUMPDEST POP PUSH2 0xA8 PUSH2 0x22B JUMP JUMPDEST PUSH1 0x40 MLOAD DUP1 DUP3 PUSH2 0xFFFF AND PUSH2 0xFFFF AND DUP2 MSTORE PUSH1 0x20 ADD SWAP2 POP POP PUSH1 0x40 MLOAD DUP1 SWAP2 SUB SWAP1 RETURN JUMPDEST CALLVALUE DUP1 ISZERO PUSH2 0xD2 JUMPI PUSH1 0x0 DUP1 REVERT JUMPDEST POP PUSH2 0xDB PUSH2 0x23E JUMP JUMPDEST PUSH1 0x40 MLOAD DUP1 DUP3 PUSH2 0xFFFF AND PUSH2 0xFFFF AND DUP2 MSTORE PUSH1 0x20 ADD SWAP2 POP POP PUSH1 0x40 MLOAD DUP1 SWAP2 SUB SWAP1 RETURN JUMPDEST CALLVALUE DUP1 ISZERO PUSH2 0x105 JUMPI PUSH1 0x0 DUP1 REVERT JUMPDEST POP PUSH2 0x10E PUSH2 0x252 JUMP JUMPDEST PUSH1 0x40 MLOAD DUP1 DUP3 PUSH2 0xFFFF AND PUSH2 0xFFFF AND DUP2 MSTORE PUSH1 0x20 ADD SWAP2 POP POP PUSH1 0x40 MLOAD DUP1 SWAP2 SUB SWAP1 RETURN JUMPDEST CALLVALUE DUP1 ISZERO PUSH2 0x138 JUMPI PUSH1 0x0 DUP1 REVERT JUMPDEST POP PUSH2 0x141 PUSH2 0x266 JUMP JUMPDEST PUSH1 0x40 MLOAD DUP1 DUP3 PUSH2 0xFFFF AND PUSH2 0xFFFF AND DUP2 MSTORE PUSH1 0x20 ADD SWAP2 POP POP PUSH1 0x40 MLOAD DUP1 SWAP2 SUB SWAP1 RETURN JUMPDEST CALLVALUE DUP1 ISZERO PUSH2 0x16B JUMPI PUSH1 0x0 DUP1 REVERT JUMPDEST POP PUSH2 0x174 PUSH2 0x27A JUMP JUMPDEST PUSH1 0x40 MLOAD DUP1 DUP3 PUSH2 0xFFFF AND PUSH2 0xFFFF AND DUP2 MSTORE PUSH1 0x20 ADD SWAP2 POP POP PUSH1 0x40 MLOAD DUP1 SWAP2 SUB SWAP1 RETURN JUMPDEST CALLVALUE DUP1 ISZERO PUSH2 0x19E JUMPI PUSH1 0x0 DUP1 REVERT JUMPDEST POP PUSH2 0x1A7 PUSH2 0x28E JUMP JUMPDEST PUSH1 0x40 MLOAD DUP1 DUP3 PUSH2 0xFFFF AND PUSH2 0xFFFF AND DUP2 MSTORE PUSH1 0x20 ADD SWAP2 POP POP PUSH1 0x40 MLOAD DUP1 SWAP2 SUB SWAP1 RETURN JUMPDEST CALLVALUE DUP1 ISZERO PUSH2 0x1D1 JUMPI PUSH1 0x0 DUP1 REVERT JUMPDEST POP PUSH2 0x1DA PUSH2 0x2A2 JUMP JUMPDEST PUSH1 0x40 MLOAD DUP1 DUP3 PUSH2 0xFFFF AND PUSH2 0xFFFF AND DUP2 MSTORE PUSH1 0x20 ADD SWAP2 POP POP PUSH1 0x40 MLOAD DUP1 SWAP2 SUB SWAP1 RETURN JUMPDEST CALLVALUE DUP1 ISZERO PUSH2 0x204 JUMPI PUSH1 0x0 DUP1 REVERT JUMPDEST POP PUSH2 0x20D PUSH2 0x2B6 JUMP JUMPDEST PUSH1 0x40 MLOAD DUP1 DUP3 PUSH2 0xFFFF AND PUSH2 0xFFFF AND DUP2 MSTORE PUSH1 0x20 ADD SWAP2 POP POP PUSH1 0x40 MLOAD DUP1 SWAP2 SUB SWAP1 RETURN JUMPDEST PUSH1 0x0 DUP1 SWAP1 SLOAD SWAP1 PUSH2 0x100 EXP SWAP1 DIV PUSH2 0xFFFF AND DUP2 JUMP JUMPDEST PUSH1 0x0 PUSH1 0xA SWAP1 SLOAD SWAP1 PUSH2 0x100 EXP SWAP1 DIV PUSH2 0xFFFF AND DUP2 JUMP JUMPDEST PUSH1 0x0 PUSH1 0xC SWAP1 SLOAD SWAP1 PUSH2 0x100 EXP SWAP1 DIV PUSH2 0xFFFF AND DUP2 JUMP JUMPDEST PUSH1 0x0 PUSH1 0x6 SWAP1 SLOAD SWAP1 PUSH2 0x100 EXP SWAP1 DIV PUSH2 0xFFFF AND DUP2 JUMP JUMPDEST PUSH1 0x0 PUSH1 0xE SWAP1 SLOAD SWAP1 PUSH2 0x100 EXP SWAP1 DIV PUSH2 0xFFFF AND DUP2 JUMP JUMPDEST PUSH1 0x0 PUSH1 0x2 SWAP1 SLOAD SWAP1 PUSH2 0x100 EXP SWAP1 DIV PUSH2 0xFFFF AND DUP2 JUMP JUMPDEST PUSH1 0x0 PUSH1 0x8 SWAP1 SLOAD SWAP1 PUSH2 0x100 EXP SWAP1 DIV PUSH2 0xFFFF AND DUP2 JUMP JUMPDEST PUSH1 0x0 PUSH1 0x4 SWAP1 SLOAD SWAP1 PUSH2 0x100 EXP SWAP1 DIV PUSH2 0xFFFF AND DUP2 JUMP INVALID LOG1 PUSH6 0x627A7A723058 KECCAK256 PUSH7 0x98AF8425CFB7F2 PUSH29 0xA0D40806B6D39FD003C1C7D4AAD5FD2B03BDCAE2BC3101002900000000 "
				},
				"gasEstimates": {
					"creation": {
						"codeDepositCost": "151600",
						"executionCost": "168834",
						"totalCost": "320434"
					},
					"external": {
						"a()": "442",
						"and()": "646",
						"b()": "602",
						"leftshift()": "514",
						"not()": "580",
						"or()": "558",
						"rightshift()": "536",
						"xor()": "624"
					}
				},
				"methodIdentifiers": {
					"a()": "0dbe671f",
					"and()": "9542f2e0",
					"b()": "4df7e3d0",
					"leftshift()": "1eab7977",
					"not()": "2e13bd10",
					"or()": "2d5e74d8",
					"rightshift()": "26912c48",
					"xor()": "5ada0c68"
				}
			},
			"userdoc": {
				"methods": {}
			}
		}
	}
}