{
	"Blockchain/Libraries.sol": {
		"Sum": {
			"abi": [
				{
					"constant": true,
					"inputs": [
						{
							"name": "_data",
							"type": "uint256[]"
						}
					],
					"name": "sumUsingInlineAssembly",
					"outputs": [
						{
							"name": "o_sum",
							"type": "uint256"
						}
					],
					"payable": false,
					"stateMutability": "view",
					"type": "function"
				}
			],
			"devdoc": {
				"methods": {}
			},
			"evm": {
				"assembly": "    /* \"Blockchain/Libraries.sol\":25:259  library Sum {\r... */\n  dataSize(sub_0)\n  dataOffset(sub_0)\n    /* \"--CODEGEN--\":132:134   */\n  0xb\n    /* \"--CODEGEN--\":166:173   */\n  dup3\n    /* \"--CODEGEN--\":155:164   */\n  dup3\n    /* \"--CODEGEN--\":146:153   */\n  dup3\n    /* \"--CODEGEN--\":137:174   */\n  codecopy\n    /* \"--CODEGEN--\":252:259   */\n  dup1\n    /* \"--CODEGEN--\":246:260   */\n  mload\n    /* \"--CODEGEN--\":243:244   */\n  0x0\n    /* \"--CODEGEN--\":238:261   */\n  byte\n    /* \"--CODEGEN--\":232:236   */\n  0x73\n    /* \"--CODEGEN--\":229:262   */\n  eq\n    /* \"--CODEGEN--\":270:271   */\n  0x0\n    /* \"--CODEGEN--\":265:285   */\n  dup2\n  eq\n  tag_2\n  jumpi\n    /* \"--CODEGEN--\":222:285   */\n  jump(tag_1)\n    /* \"--CODEGEN--\":265:285   */\ntag_2:\n    /* \"--CODEGEN--\":274:283   */\n  invalid\n    /* \"--CODEGEN--\":222:285   */\ntag_1:\n  pop\n    /* \"--CODEGEN--\":298:307   */\n  address\n    /* \"--CODEGEN--\":295:296   */\n  0x0\n    /* \"--CODEGEN--\":288:308   */\n  mstore\n    /* \"--CODEGEN--\":328:332   */\n  0x73\n    /* \"--CODEGEN--\":319:326   */\n  dup2\n    /* \"--CODEGEN--\":311:333   */\n  mstore8\n    /* \"--CODEGEN--\":352:359   */\n  dup3\n    /* \"--CODEGEN--\":343:350   */\n  dup2\n    /* \"--CODEGEN--\":336:360   */\n  return\nstop\n\nsub_0: assembly {\n        /* \"Blockchain/Libraries.sol\":25:259  library Sum {\r... */\n      eq(address, deployTimeAddress())\n      mstore(0x40, 0x80)\n      jumpi(tag_1, lt(calldatasize, 0x4))\n      calldataload(0x0)\n      0x100000000000000000000000000000000000000000000000000000000\n      swap1\n      div\n      0xffffffff\n      and\n      dup1\n      0x87fbcc77\n      eq\n      tag_2\n      jumpi\n    tag_1:\n      0x0\n      dup1\n      revert\n        /* \"Blockchain/Libraries.sol\":40:256  function sumUsingInlineAssembly(uint[] memory _data) public pure returns (uint o_sum) {\r... */\n    tag_2:\n      tag_3\n      0x4\n      dup1\n      calldatasize\n      sub\n        /* \"--CODEGEN--\":13:15   */\n      0x20\n        /* \"--CODEGEN--\":8:11   */\n      dup2\n        /* \"--CODEGEN--\":5:16   */\n      lt\n        /* \"--CODEGEN--\":2:4   */\n      iszero\n      tag_4\n      jumpi\n        /* \"--CODEGEN--\":29:30   */\n      0x0\n        /* \"--CODEGEN--\":26:27   */\n      dup1\n        /* \"--CODEGEN--\":19:31   */\n      revert\n        /* \"--CODEGEN--\":2:4   */\n    tag_4:\n        /* \"Blockchain/Libraries.sol\":40:256  function sumUsingInlineAssembly(uint[] memory _data) public pure returns (uint o_sum) {\r... */\n      dup2\n      add\n      swap1\n      dup1\n      dup1\n      calldataload\n      swap1\n      0x20\n      add\n      swap1\n        /* \"--CODEGEN--\":21:32   */\n      0x100000000\n        /* \"--CODEGEN--\":8:19   */\n      dup2\n        /* \"--CODEGEN--\":5:33   */\n      gt\n        /* \"--CODEGEN--\":2:4   */\n      iszero\n      tag_5\n      jumpi\n        /* \"--CODEGEN--\":46:47   */\n      0x0\n        /* \"--CODEGEN--\":43:44   */\n      dup1\n        /* \"--CODEGEN--\":36:48   */\n      revert\n        /* \"--CODEGEN--\":2:4   */\n    tag_5:\n        /* \"Blockchain/Libraries.sol\":40:256  function sumUsingInlineAssembly(uint[] memory _data) public pure returns (uint o_sum) {\r... */\n      dup3\n      add\n        /* \"--CODEGEN--\":35:44   */\n      dup4\n        /* \"--CODEGEN--\":28:32   */\n      0x20\n        /* \"--CODEGEN--\":12:26   */\n      dup3\n        /* \"--CODEGEN--\":8:33   */\n      add\n        /* \"--CODEGEN--\":5:45   */\n      gt\n        /* \"--CODEGEN--\":2:4   */\n      iszero\n      tag_6\n      jumpi\n        /* \"--CODEGEN--\":58:59   */\n      0x0\n        /* \"--CODEGEN--\":55:56   */\n      dup1\n        /* \"--CODEGEN--\":48:60   */\n      revert\n        /* \"--CODEGEN--\":2:4   */\n    tag_6:\n        /* \"Blockchain/Libraries.sol\":40:256  function sumUsingInlineAssembly(uint[] memory _data) public pure returns (uint o_sum) {\r... */\n      dup1\n      calldataload\n      swap1\n      0x20\n      add\n      swap2\n        /* \"--CODEGEN--\":101:110   */\n      dup5\n        /* \"--CODEGEN--\":95:97   */\n      0x20\n        /* \"--CODEGEN--\":81:93   */\n      dup4\n        /* \"--CODEGEN--\":77:98   */\n      mul\n        /* \"--CODEGEN--\":67:75   */\n      dup5\n        /* \"--CODEGEN--\":63:99   */\n      add\n        /* \"--CODEGEN--\":60:111   */\n      gt\n        /* \"--CODEGEN--\":39:50   */\n      0x100000000\n        /* \"--CODEGEN--\":25:37   */\n      dup4\n        /* \"--CODEGEN--\":22:51   */\n      gt\n        /* \"--CODEGEN--\":11:119   */\n      or\n        /* \"--CODEGEN--\":8:10   */\n      iszero\n      tag_7\n      jumpi\n        /* \"--CODEGEN--\":132:133   */\n      0x0\n        /* \"--CODEGEN--\":129:130   */\n      dup1\n        /* \"--CODEGEN--\":122:134   */\n      revert\n        /* \"--CODEGEN--\":8:10   */\n    tag_7:\n        /* \"Blockchain/Libraries.sol\":40:256  function sumUsingInlineAssembly(uint[] memory _data) public pure returns (uint o_sum) {\r... */\n      swap2\n      swap1\n      dup1\n      dup1\n      0x20\n      mul\n      0x20\n      add\n      mload(0x40)\n      swap1\n      dup2\n      add\n      0x40\n      mstore\n      dup1\n      swap4\n      swap3\n      swap2\n      swap1\n      dup2\n      dup2\n      mstore\n      0x20\n      add\n      dup4\n      dup4\n      0x20\n      mul\n        /* \"--CODEGEN--\":30:33   */\n      dup1\n        /* \"--CODEGEN--\":22:28   */\n      dup3\n        /* \"--CODEGEN--\":14:20   */\n      dup5\n        /* \"--CODEGEN--\":1:34   */\n      calldatacopy\n        /* \"--CODEGEN--\":99:100   */\n      0x0\n        /* \"--CODEGEN--\":93:96   */\n      dup2\n        /* \"--CODEGEN--\":85:91   */\n      dup5\n        /* \"--CODEGEN--\":81:97   */\n      add\n        /* \"--CODEGEN--\":74:101   */\n      mstore\n        /* \"--CODEGEN--\":137:141   */\n      0x1f\n        /* \"--CODEGEN--\":133:142   */\n      not\n        /* \"--CODEGEN--\":126:130   */\n      0x1f\n        /* \"--CODEGEN--\":121:124   */\n      dup3\n        /* \"--CODEGEN--\":117:131   */\n      add\n        /* \"--CODEGEN--\":113:143   */\n      and\n        /* \"--CODEGEN--\":106:143   */\n      swap1\n      pop\n        /* \"--CODEGEN--\":169:172   */\n      dup1\n        /* \"--CODEGEN--\":161:167   */\n      dup4\n        /* \"--CODEGEN--\":157:173   */\n      add\n        /* \"--CODEGEN--\":147:173   */\n      swap3\n      pop\n        /* \"Blockchain/Libraries.sol\":40:256  function sumUsingInlineAssembly(uint[] memory _data) public pure returns (uint o_sum) {\r... */\n      pop\n      pop\n      pop\n      pop\n      pop\n      pop\n      swap2\n      swap3\n      swap2\n      swap3\n      swap1\n      pop\n      pop\n      pop\n      jump(tag_8)\n    tag_3:\n      mload(0x40)\n      dup1\n      dup3\n      dup2\n      mstore\n      0x20\n      add\n      swap2\n      pop\n      pop\n      mload(0x40)\n      dup1\n      swap2\n      sub\n      swap1\n      return\n    tag_8:\n        /* \"Blockchain/Libraries.sol\":114:124  uint o_sum */\n      0x0\n        /* \"Blockchain/Libraries.sol\":134:140  uint i */\n      dup1\n        /* \"Blockchain/Libraries.sol\":143:144  0 */\n      0x0\n        /* \"Blockchain/Libraries.sol\":134:144  uint i = 0 */\n      swap1\n      pop\n        /* \"Blockchain/Libraries.sol\":129:253  for (uint i = 0; i < _data.length; ++i) {\r... */\n    tag_10:\n        /* \"Blockchain/Libraries.sol\":150:155  _data */\n      dup3\n        /* \"Blockchain/Libraries.sol\":150:162  _data.length */\n      mload\n        /* \"Blockchain/Libraries.sol\":146:147  i */\n      dup2\n        /* \"Blockchain/Libraries.sol\":146:162  i < _data.length */\n      lt\n        /* \"Blockchain/Libraries.sol\":129:253  for (uint i = 0; i < _data.length; ++i) {\r... */\n      iszero\n      tag_11\n      jumpi\n        /* \"Blockchain/Libraries.sol\":239:243  0x20 */\n      0x20\n        /* \"Blockchain/Libraries.sol\":236:237  i */\n      dup2\n        /* \"Blockchain/Libraries.sol\":232:244  mul(i, 0x20) */\n      mul\n        /* \"Blockchain/Libraries.sol\":225:229  0x20 */\n      0x20\n        /* \"Blockchain/Libraries.sol\":218:223  _data */\n      dup5\n        /* \"Blockchain/Libraries.sol\":214:230  add(_data, 0x20) */\n      add\n        /* \"Blockchain/Libraries.sol\":210:245  add(add(_data, 0x20), mul(i, 0x20)) */\n      add\n        /* \"Blockchain/Libraries.sol\":204:246  mload(add(add(_data, 0x20), mul(i, 0x20))) */\n      mload\n        /* \"Blockchain/Libraries.sol\":197:202  o_sum */\n      dup3\n        /* \"Blockchain/Libraries.sol\":193:247  add(o_sum, mload(add(add(_data, 0x20), mul(i, 0x20)))) */\n      add\n        /* \"Blockchain/Libraries.sol\":184:247  o_sum := add(o_sum, mload(add(add(_data, 0x20), mul(i, 0x20)))) */\n      swap2\n      pop\n        /* \"Blockchain/Libraries.sol\":164:167  ++i */\n      dup1\n      0x1\n      add\n      swap1\n      pop\n        /* \"Blockchain/Libraries.sol\":129:253  for (uint i = 0; i < _data.length; ++i) {\r... */\n      jump(tag_10)\n    tag_11:\n      pop\n        /* \"Blockchain/Libraries.sol\":40:256  function sumUsingInlineAssembly(uint[] memory _data) public pure returns (uint o_sum) {\r... */\n      swap2\n      swap1\n      pop\n      jump\t// out\n\n    auxdata: 0xa165627a7a723058207edb61b70d76afc86e0d38ff80f68d1fb676cc1a57a3464e49adb553fc7232a10029\n}\n",
				"bytecode": {
					"linkReferences": {},
					"object": "610185610030600b82828239805160001a6073146000811461002057610022565bfe5b5030600052607381538281f3fe7300000000000000000000000000000000000000003014608060405260043610610058576000357c0100000000000000000000000000000000000000000000000000000000900463ffffffff16806387fbcc771461005d575b600080fd5b6101136004803603602081101561007357600080fd5b810190808035906020019064010000000081111561009057600080fd5b8201836020820111156100a257600080fd5b803590602001918460208302840111640100000000831117156100c457600080fd5b919080806020026020016040519081016040528093929190818152602001838360200280828437600081840152601f19601f820116905080830192505050505050509192919290505050610129565b6040518082815260200191505060405180910390f35b600080600090505b8251811015610153576020810260208401015182019150806001019050610131565b5091905056fea165627a7a723058207edb61b70d76afc86e0d38ff80f68d1fb676cc1a57a3464e49adb553fc7232a10029",
					"opcodes": "PUSH2 0x185 PUSH2 0x30 PUSH1 0xB DUP3 DUP3 DUP3 CODECOPY DUP1 MLOAD PUSH1 0x0 BYTE PUSH1 0x73 EQ PUSH1 0x0 DUP2 EQ PUSH2 0x20 JUMPI PUSH2 0x22 JUMP JUMPDEST INVALID JUMPDEST POP ADDRESS PUSH1 0x0 MSTORE PUSH1 0x73 DUP2 MSTORE8 DUP3 DUP2 RETURN INVALID PUSH20 0x0 ADDRESS EQ PUSH1 0x80 PUSH1 0x40 MSTORE PUSH1 0x4 CALLDATASIZE LT PUSH2 0x58 JUMPI PUSH1 0x0 CALLDATALOAD PUSH29 0x100000000000000000000000000000000000000000000000000000000 SWAP1 DIV PUSH4 0xFFFFFFFF AND DUP1 PUSH4 0x87FBCC77 EQ PUSH2 0x5D JUMPI JUMPDEST PUSH1 0x0 DUP1 REVERT JUMPDEST PUSH2 0x113 PUSH1 0x4 DUP1 CALLDATASIZE SUB PUSH1 0x20 DUP2 LT ISZERO PUSH2 0x73 JUMPI PUSH1 0x0 DUP1 REVERT JUMPDEST DUP2 ADD SWAP1 DUP1 DUP1 CALLDATALOAD SWAP1 PUSH1 0x20 ADD SWAP1 PUSH5 0x100000000 DUP2 GT ISZERO PUSH2 0x90 JUMPI PUSH1 0x0 DUP1 REVERT JUMPDEST DUP3 ADD DUP4 PUSH1 0x20 DUP3 ADD GT ISZERO PUSH2 0xA2 JUMPI PUSH1 0x0 DUP1 REVERT JUMPDEST DUP1 CALLDATALOAD SWAP1 PUSH1 0x20 ADD SWAP2 DUP5 PUSH1 0x20 DUP4 MUL DUP5 ADD GT PUSH5 0x100000000 DUP4 GT OR ISZERO PUSH2 0xC4 JUMPI PUSH1 0x0 DUP1 REVERT JUMPDEST SWAP2 SWAP1 DUP1 DUP1 PUSH1 0x20 MUL PUSH1 0x20 ADD PUSH1 0x40 MLOAD SWAP1 DUP2 ADD PUSH1 0x40 MSTORE DUP1 SWAP4 SWAP3 SWAP2 SWAP1 DUP2 DUP2 MSTORE PUSH1 0x20 ADD DUP4 DUP4 PUSH1 0x20 MUL DUP1 DUP3 DUP5 CALLDATACOPY PUSH1 0x0 DUP2 DUP5 ADD MSTORE PUSH1 0x1F NOT PUSH1 0x1F DUP3 ADD AND SWAP1 POP DUP1 DUP4 ADD SWAP3 POP POP POP POP POP POP POP SWAP2 SWAP3 SWAP2 SWAP3 SWAP1 POP POP POP PUSH2 0x129 JUMP JUMPDEST PUSH1 0x40 MLOAD DUP1 DUP3 DUP2 MSTORE PUSH1 0x20 ADD SWAP2 POP POP PUSH1 0x40 MLOAD DUP1 SWAP2 SUB SWAP1 RETURN JUMPDEST PUSH1 0x0 DUP1 PUSH1 0x0 SWAP1 POP JUMPDEST DUP3 MLOAD DUP2 LT ISZERO PUSH2 0x153 JUMPI PUSH1 0x20 DUP2 MUL PUSH1 0x20 DUP5 ADD ADD MLOAD DUP3 ADD SWAP2 POP DUP1 PUSH1 0x1 ADD SWAP1 POP PUSH2 0x131 JUMP JUMPDEST POP SWAP2 SWAP1 POP JUMP INVALID LOG1 PUSH6 0x627A7A723058 KECCAK256 PUSH31 0xDB61B70D76AFC86E0D38FF80F68D1FB676CC1A57A3464E49ADB553FC7232A1 STOP 0x29 "
				},
				"gasEstimates": {
					"creation": {
						"codeDepositCost": "77800",
						"executionCost": "176",
						"totalCost": "77976"
					},
					"external": {
						"sumUsingInlineAssembly(uint256[])": "infinite"
					}
				},
				"methodIdentifiers": {
					"sumUsingInlineAssembly(uint256[])": "87fbcc77"
				}
			},
			"userdoc": {
				"methods": {}
			}
		}
	}
}