{
	"Blockchain/arithmetic operator.sol": {
		"SolidityTest": {
			"abi": [
				{
					"constant": true,
					"inputs": [],
					"name": "a",
					"outputs": [
						{
							"name": "",
							"type": "uint16"
						}
					],
					"payable": false,
					"stateMutability": "view",
					"type": "function"
				},
				{
					"constant": true,
					"inputs": [],
					"name": "mod",
					"outputs": [
						{
							"name": "",
							"type": "uint256"
						}
					],
					"payable": false,
					"stateMutability": "view",
					"type": "function"
				},
				{
					"constant": true,
					"inputs": [],
					"name": "inc",
					"outputs": [
						{
							"name": "",
							"type": "uint256"
						}
					],
					"payable": false,
					"stateMutability": "view",
					"type": "function"
				},
				{
					"constant": true,
					"inputs": [],
					"name": "b",
					"outputs": [
						{
							"name": "",
							"type": "uint16"
						}
					],
					"payable": false,
					"stateMutability": "view",
					"type": "function"
				},
				{
					"constant": true,
					"inputs": [],
					"name": "mul",
					"outputs": [
						{
							"name": "",
							"type": "uint256"
						}
					],
					"payable": false,
					"stateMutability": "view",
					"type": "function"
				},
				{
					"constant": true,
					"inputs": [],
					"name": "sum",
					"outputs": [
						{
							"name": "",
							"type": "uint256"
						}
					],
					"payable": false,
					"stateMutability": "view",
					"type": "function"
				},
				{
					"constant": true,
					"inputs": [],
					"name": "diff",
					"outputs": [
						{
							"name": "",
							"type": "uint256"
						}
					],
					"payable": false,
					"stateMutability": "view",
					"type": "function"
				},
				{
					"constant": true,
					"inputs": [],
					"name": "dec",
					"outputs": [
						{
							"name": "",
							"type": "uint256"
						}
					],
					"payable": false,
					"stateMutability": "view",
					"type": "function"
				},
				{
					"constant": true,
					"inputs": [],
					"name": "div",
					"outputs": [
						{
							"name": "",
							"type": "uint256"
						}
					],
					"payable": false,
					"stateMutability": "view",
					"type": "function"
				}
			],
			"devdoc": {
				"methods": {}
			},
			"evm": {
				"assembly": "    /* \"Blockchain/arithmetic operator.sol\":110:718  contract SolidityTest {\r... */\n  mstore(0x40, 0x80)\n    /* \"Blockchain/arithmetic operator.sol\":180:182  20 */\n  0x14\n    /* \"Blockchain/arithmetic operator.sol\":162:182  uint16 public a = 20 */\n  0x0\n  dup1\n  0x100\n  exp\n  dup2\n  sload\n  dup2\n  0xffff\n  mul\n  not\n  and\n  swap1\n  dup4\n  0xffff\n  and\n  mul\n  or\n  swap1\n  sstore\n  pop\n    /* \"Blockchain/arithmetic operator.sol\":203:205  10 */\n  0xa\n    /* \"Blockchain/arithmetic operator.sol\":185:205  uint16 public b = 10 */\n  0x0\n  exp(0x100, 0x2)\n  dup2\n  sload\n  dup2\n  0xffff\n  mul\n  not\n  and\n  swap1\n  dup4\n  0xffff\n  and\n  mul\n  or\n  swap1\n  sstore\n  pop\n    /* \"Blockchain/arithmetic operator.sol\":271:272  b */\n  0x0\n  0x2\n  swap1\n  sload\n  swap1\n  0x100\n  exp\n  swap1\n  div\n  0xffff\n  and\n    /* \"Blockchain/arithmetic operator.sol\":267:268  a */\n  0x0\n  dup1\n  swap1\n  sload\n  swap1\n  0x100\n  exp\n  swap1\n  div\n  0xffff\n  and\n    /* \"Blockchain/arithmetic operator.sol\":267:272  a + b */\n  add\n    /* \"Blockchain/arithmetic operator.sol\":249:272  uint public sum = a + b */\n  0xffff\n  and\n  0x1\n  sstore\n    /* \"Blockchain/arithmetic operator.sol\":350:351  b */\n  0x0\n  0x2\n  swap1\n  sload\n  swap1\n  0x100\n  exp\n  swap1\n  div\n  0xffff\n  and\n    /* \"Blockchain/arithmetic operator.sol\":346:347  a */\n  0x0\n  dup1\n  swap1\n  sload\n  swap1\n  0x100\n  exp\n  swap1\n  div\n  0xffff\n  and\n    /* \"Blockchain/arithmetic operator.sol\":346:351  a - b */\n  sub\n    /* \"Blockchain/arithmetic operator.sol\":327:351  uint public diff = a - b */\n  0xffff\n  and\n  0x2\n  sstore\n    /* \"Blockchain/arithmetic operator.sol\":421:422  b */\n  0x0\n  0x2\n  swap1\n  sload\n  swap1\n  0x100\n  exp\n  swap1\n  div\n  0xffff\n  and\n    /* \"Blockchain/arithmetic operator.sol\":417:418  a */\n  0x0\n  dup1\n  swap1\n  sload\n  swap1\n  0x100\n  exp\n  swap1\n  div\n  0xffff\n  and\n    /* \"Blockchain/arithmetic operator.sol\":417:422  a * b */\n  mul\n    /* \"Blockchain/arithmetic operator.sol\":399:422  uint public mul = a * b */\n  0xffff\n  and\n  0x3\n  sstore\n    /* \"Blockchain/arithmetic operator.sol\":493:494  b */\n  0x0\n  0x2\n  swap1\n  sload\n  swap1\n  0x100\n  exp\n  swap1\n  div\n  0xffff\n  and\n    /* \"Blockchain/arithmetic operator.sol\":489:494  a / b */\n  0xffff\n  and\n    /* \"Blockchain/arithmetic operator.sol\":489:490  a */\n  0x0\n  dup1\n  swap1\n  sload\n  swap1\n  0x100\n  exp\n  swap1\n  div\n  0xffff\n  and\n    /* \"Blockchain/arithmetic operator.sol\":489:494  a / b */\n  0xffff\n  and\n  dup2\n  iszero\n  iszero\n  tag_1\n  jumpi\n  invalid\ntag_1:\n  div\n    /* \"Blockchain/arithmetic operator.sol\":471:494  uint public div = a / b */\n  0xffff\n  and\n  0x4\n  sstore\n    /* \"Blockchain/arithmetic operator.sol\":564:565  b */\n  0x0\n  0x2\n  swap1\n  sload\n  swap1\n  0x100\n  exp\n  swap1\n  div\n  0xffff\n  and\n    /* \"Blockchain/arithmetic operator.sol\":560:565  a % b */\n  0xffff\n  and\n    /* \"Blockchain/arithmetic operator.sol\":560:561  a */\n  0x0\n  dup1\n  swap1\n  sload\n  swap1\n  0x100\n  exp\n  swap1\n  div\n  0xffff\n  and\n    /* \"Blockchain/arithmetic operator.sol\":560:565  a % b */\n  0xffff\n  and\n  dup2\n  iszero\n  iszero\n  tag_2\n  jumpi\n  invalid\ntag_2:\n  mod\n    /* \"Blockchain/arithmetic operator.sol\":542:565  uint public mod = a % b */\n  0xffff\n  and\n  0x5\n  sstore\n    /* \"Blockchain/arithmetic operator.sol\":636:637  b */\n  0x0\n  0x2\n    /* \"Blockchain/arithmetic operator.sol\":634:637  --b */\n  dup2\n  dup2\n  swap1\n  sload\n  swap1\n  0x100\n  exp\n  swap1\n  div\n  0xffff\n  and\n  0x1\n  swap1\n  sub\n  swap2\n  swap1\n  0x100\n  exp\n  dup2\n  sload\n  dup2\n  0xffff\n  mul\n  not\n  and\n  swap1\n  dup4\n  0xffff\n  and\n  mul\n  or\n  swap1\n  sstore\n    /* \"Blockchain/arithmetic operator.sol\":616:637  uint public dec = --b */\n  0xffff\n  and\n  0x6\n  sstore\n    /* \"Blockchain/arithmetic operator.sol\":713:714  a */\n  0x0\n  dup1\n    /* \"Blockchain/arithmetic operator.sol\":711:714  ++a */\n  dup2\n  dup2\n  swap1\n  sload\n  swap1\n  0x100\n  exp\n  swap1\n  div\n  0xffff\n  and\n  0x1\n  add\n  swap2\n  swap1\n  0x100\n  exp\n  dup2\n  sload\n  dup2\n  0xffff\n  mul\n  not\n  and\n  swap1\n  dup4\n  0xffff\n  and\n  mul\n  or\n  swap1\n  sstore\n    /* \"Blockchain/arithmetic operator.sol\":693:714  uint public inc = ++a */\n  0xffff\n  and\n  0x7\n  sstore\n    /* \"Blockchain/arithmetic operator.sol\":110:718  contract SolidityTest {\r... */\n  callvalue\n    /* \"--CODEGEN--\":8:17   */\n  dup1\n    /* \"--CODEGEN--\":5:7   */\n  iszero\n  tag_3\n  jumpi\n    /* \"--CODEGEN--\":30:31   */\n  0x0\n    /* \"--CODEGEN--\":27:28   */\n  dup1\n    /* \"--CODEGEN--\":20:32   */\n  revert\n    /* \"--CODEGEN--\":5:7   */\ntag_3:\n    /* \"Blockchain/arithmetic operator.sol\":110:718  contract SolidityTest {\r... */\n  pop\n  dataSize(sub_0)\n  dup1\n  dataOffset(sub_0)\n  0x0\n  codecopy\n  0x0\n  return\nstop\n\nsub_0: assembly {\n        /* \"Blockchain/arithmetic operator.sol\":110:718  contract SolidityTest {\r... */\n      mstore(0x40, 0x80)\n      jumpi(tag_1, lt(calldatasize, 0x4))\n      calldataload(0x0)\n      0x100000000000000000000000000000000000000000000000000000000\n      swap1\n      div\n      0xffffffff\n      and\n      dup1\n      0xdbe671f\n      eq\n      tag_2\n      jumpi\n      dup1\n      0x2986e054\n      eq\n      tag_3\n      jumpi\n      dup1\n      0x371303c0\n      eq\n      tag_4\n      jumpi\n      dup1\n      0x4df7e3d0\n      eq\n      tag_5\n      jumpi\n      dup1\n      0x58931c46\n      eq\n      tag_6\n      jumpi\n      dup1\n      0x853255cc\n      eq\n      tag_7\n      jumpi\n      dup1\n      0xa0d7afb7\n      eq\n      tag_8\n      jumpi\n      dup1\n      0xb3bcfa82\n      eq\n      tag_9\n      jumpi\n      dup1\n      0xf9fa48c3\n      eq\n      tag_10\n      jumpi\n    tag_1:\n      0x0\n      dup1\n      revert\n        /* \"Blockchain/arithmetic operator.sol\":162:182  uint16 public a = 20 */\n    tag_2:\n      callvalue\n        /* \"--CODEGEN--\":8:17   */\n      dup1\n        /* \"--CODEGEN--\":5:7   */\n      iszero\n      tag_11\n      jumpi\n        /* \"--CODEGEN--\":30:31   */\n      0x0\n        /* \"--CODEGEN--\":27:28   */\n      dup1\n        /* \"--CODEGEN--\":20:32   */\n      revert\n        /* \"--CODEGEN--\":5:7   */\n    tag_11:\n        /* \"Blockchain/arithmetic operator.sol\":162:182  uint16 public a = 20 */\n      pop\n      tag_12\n      jump(tag_13)\n    tag_12:\n      mload(0x40)\n      dup1\n      dup3\n      0xffff\n      and\n      0xffff\n      and\n      dup2\n      mstore\n      0x20\n      add\n      swap2\n      pop\n      pop\n      mload(0x40)\n      dup1\n      swap2\n      sub\n      swap1\n      return\n        /* \"Blockchain/arithmetic operator.sol\":542:565  uint public mod = a % b */\n    tag_3:\n      callvalue\n        /* \"--CODEGEN--\":8:17   */\n      dup1\n        /* \"--CODEGEN--\":5:7   */\n      iszero\n      tag_14\n      jumpi\n        /* \"--CODEGEN--\":30:31   */\n      0x0\n        /* \"--CODEGEN--\":27:28   */\n      dup1\n        /* \"--CODEGEN--\":20:32   */\n      revert\n        /* \"--CODEGEN--\":5:7   */\n    tag_14:\n        /* \"Blockchain/arithmetic operator.sol\":542:565  uint public mod = a % b */\n      pop\n      tag_15\n      jump(tag_16)\n    tag_15:\n      mload(0x40)\n      dup1\n      dup3\n      dup2\n      mstore\n      0x20\n      add\n      swap2\n      pop\n      pop\n      mload(0x40)\n      dup1\n      swap2\n      sub\n      swap1\n      return\n        /* \"Blockchain/arithmetic operator.sol\":693:714  uint public inc = ++a */\n    tag_4:\n      callvalue\n        /* \"--CODEGEN--\":8:17   */\n      dup1\n        /* \"--CODEGEN--\":5:7   */\n      iszero\n      tag_17\n      jumpi\n        /* \"--CODEGEN--\":30:31   */\n      0x0\n        /* \"--CODEGEN--\":27:28   */\n      dup1\n        /* \"--CODEGEN--\":20:32   */\n      revert\n        /* \"--CODEGEN--\":5:7   */\n    tag_17:\n        /* \"Blockchain/arithmetic operator.sol\":693:714  uint public inc = ++a */\n      pop\n      tag_18\n      jump(tag_19)\n    tag_18:\n      mload(0x40)\n      dup1\n      dup3\n      dup2\n      mstore\n      0x20\n      add\n      swap2\n      pop\n      pop\n      mload(0x40)\n      dup1\n      swap2\n      sub\n      swap1\n      return\n        /* \"Blockchain/arithmetic operator.sol\":185:205  uint16 public b = 10 */\n    tag_5:\n      callvalue\n        /* \"--CODEGEN--\":8:17   */\n      dup1\n        /* \"--CODEGEN--\":5:7   */\n      iszero\n      tag_20\n      jumpi\n        /* \"--CODEGEN--\":30:31   */\n      0x0\n        /* \"--CODEGEN--\":27:28   */\n      dup1\n        /* \"--CODEGEN--\":20:32   */\n      revert\n        /* \"--CODEGEN--\":5:7   */\n    tag_20:\n        /* \"Blockchain/arithmetic operator.sol\":185:205  uint16 public b = 10 */\n      pop\n      tag_21\n      jump(tag_22)\n    tag_21:\n      mload(0x40)\n      dup1\n      dup3\n      0xffff\n      and\n      0xffff\n      and\n      dup2\n      mstore\n      0x20\n      add\n      swap2\n      pop\n      pop\n      mload(0x40)\n      dup1\n      swap2\n      sub\n      swap1\n      return\n        /* \"Blockchain/arithmetic operator.sol\":399:422  uint public mul = a * b */\n    tag_6:\n      callvalue\n        /* \"--CODEGEN--\":8:17   */\n      dup1\n        /* \"--CODEGEN--\":5:7   */\n      iszero\n      tag_23\n      jumpi\n        /* \"--CODEGEN--\":30:31   */\n      0x0\n        /* \"--CODEGEN--\":27:28   */\n      dup1\n        /* \"--CODEGEN--\":20:32   */\n      revert\n        /* \"--CODEGEN--\":5:7   */\n    tag_23:\n        /* \"Blockchain/arithmetic operator.sol\":399:422  uint public mul = a * b */\n      pop\n      tag_24\n      jump(tag_25)\n    tag_24:\n      mload(0x40)\n      dup1\n      dup3\n      dup2\n      mstore\n      0x20\n      add\n      swap2\n      pop\n      pop\n      mload(0x40)\n      dup1\n      swap2\n      sub\n      swap1\n      return\n        /* \"Blockchain/arithmetic operator.sol\":249:272  uint public sum = a + b */\n    tag_7:\n      callvalue\n        /* \"--CODEGEN--\":8:17   */\n      dup1\n        /* \"--CODEGEN--\":5:7   */\n      iszero\n      tag_26\n      jumpi\n        /* \"--CODEGEN--\":30:31   */\n      0x0\n        /* \"--CODEGEN--\":27:28   */\n      dup1\n        /* \"--CODEGEN--\":20:32   */\n      revert\n        /* \"--CODEGEN--\":5:7   */\n    tag_26:\n        /* \"Blockchain/arithmetic operator.sol\":249:272  uint public sum = a + b */\n      pop\n      tag_27\n      jump(tag_28)\n    tag_27:\n      mload(0x40)\n      dup1\n      dup3\n      dup2\n      mstore\n      0x20\n      add\n      swap2\n      pop\n      pop\n      mload(0x40)\n      dup1\n      swap2\n      sub\n      swap1\n      return\n        /* \"Blockchain/arithmetic operator.sol\":327:351  uint public diff = a - b */\n    tag_8:\n      callvalue\n        /* \"--CODEGEN--\":8:17   */\n      dup1\n        /* \"--CODEGEN--\":5:7   */\n      iszero\n      tag_29\n      jumpi\n        /* \"--CODEGEN--\":30:31   */\n      0x0\n        /* \"--CODEGEN--\":27:28   */\n      dup1\n        /* \"--CODEGEN--\":20:32   */\n      revert\n        /* \"--CODEGEN--\":5:7   */\n    tag_29:\n        /* \"Blockchain/arithmetic operator.sol\":327:351  uint public diff = a - b */\n      pop\n      tag_30\n      jump(tag_31)\n    tag_30:\n      mload(0x40)\n      dup1\n      dup3\n      dup2\n      mstore\n      0x20\n      add\n      swap2\n      pop\n      pop\n      mload(0x40)\n      dup1\n      swap2\n      sub\n      swap1\n      return\n        /* \"Blockchain/arithmetic operator.sol\":616:637  uint public dec = --b */\n    tag_9:\n      callvalue\n        /* \"--CODEGEN--\":8:17   */\n      dup1\n        /* \"--CODEGEN--\":5:7   */\n      iszero\n      tag_32\n      jumpi\n        /* \"--CODEGEN--\":30:31   */\n      0x0\n        /* \"--CODEGEN--\":27:28   */\n      dup1\n        /* \"--CODEGEN--\":20:32   */\n      revert\n        /* \"--CODEGEN--\":5:7   */\n    tag_32:\n        /* \"Blockchain/arithmetic operator.sol\":616:637  uint public dec = --b */\n      pop\n      tag_33\n      jump(tag_34)\n    tag_33:\n      mload(0x40)\n      dup1\n      dup3\n      dup2\n      mstore\n      0x20\n      add\n      swap2\n      pop\n      pop\n      mload(0x40)\n      dup1\n      swap2\n      sub\n      swap1\n      return\n        /* \"Blockchain/arithmetic operator.sol\":471:494  uint public div = a / b */\n    tag_10:\n      callvalue\n        /* \"--CODEGEN--\":8:17   */\n      dup1\n        /* \"--CODEGEN--\":5:7   */\n      iszero\n      tag_35\n      jumpi\n        /* \"--CODEGEN--\":30:31   */\n      0x0\n        /* \"--CODEGEN--\":27:28   */\n      dup1\n        /* \"--CODEGEN--\":20:32   */\n      revert\n        /* \"--CODEGEN--\":5:7   */\n    tag_35:\n        /* \"Blockchain/arithmetic operator.sol\":471:494  uint public div = a / b */\n      pop\n      tag_36\n      jump(tag_37)\n    tag_36:\n      mload(0x40)\n      dup1\n      dup3\n      dup2\n      mstore\n      0x20\n      add\n      swap2\n      pop\n      pop\n      mload(0x40)\n      dup1\n      swap2\n      sub\n      swap1\n      return\n        /* \"Blockchain/arithmetic operator.sol\":162:182  uint16 public a = 20 */\n    tag_13:\n      0x0\n      dup1\n      swap1\n      sload\n      swap1\n      0x100\n      exp\n      swap1\n      div\n      0xffff\n      and\n      dup2\n      jump\t// out\n        /* \"Blockchain/arithmetic operator.sol\":542:565  uint public mod = a % b */\n    tag_16:\n      sload(0x5)\n      dup2\n      jump\t// out\n        /* \"Blockchain/arithmetic operator.sol\":693:714  uint public inc = ++a */\n    tag_19:\n      sload(0x7)\n      dup2\n      jump\t// out\n        /* \"Blockchain/arithmetic operator.sol\":185:205  uint16 public b = 10 */\n    tag_22:\n      0x0\n      0x2\n      swap1\n      sload\n      swap1\n      0x100\n      exp\n      swap1\n      div\n      0xffff\n      and\n      dup2\n      jump\t// out\n        /* \"Blockchain/arithmetic operator.sol\":399:422  uint public mul = a * b */\n    tag_25:\n      sload(0x3)\n      dup2\n      jump\t// out\n        /* \"Blockchain/arithmetic operator.sol\":249:272  uint public sum = a + b */\n    tag_28:\n      sload(0x1)\n      dup2\n      jump\t// out\n        /* \"Blockchain/arithmetic operator.sol\":327:351  uint public diff = a - b */\n    tag_31:\n      sload(0x2)\n      dup2\n      jump\t// out\n        /* \"Blockchain/arithmetic operator.sol\":616:637  uint public dec = --b */\n    tag_34:\n      sload(0x6)\n      dup2\n      jump\t// out\n        /* \"Blockchain/arithmetic operator.sol\":471:494  uint public div = a / b */\n    tag_37:\n      sload(0x4)\n      dup2\n      jump\t// out\n\n    auxdata: 0xa165627a7a7230582022b7aa5032381d8f1a7ff4627bfa0b712cba18f3e4b16585d21ccddc97fcf4f50029\n}\n",
				"bytecode": {
					"linkReferences": {},
					"object": "608060405260146000806101000a81548161ffff021916908361ffff160217905550600a600060026101000a81548161ffff021916908361ffff160217905550600060029054906101000a900461ffff166000809054906101000a900461ffff160161ffff16600155600060029054906101000a900461ffff166000809054906101000a900461ffff160361ffff16600255600060029054906101000a900461ffff166000809054906101000a900461ffff160261ffff16600355600060029054906101000a900461ffff1661ffff166000809054906101000a900461ffff1661ffff168115156100ec57fe5b0461ffff16600455600060029054906101000a900461ffff1661ffff166000809054906101000a900461ffff1661ffff1681151561012657fe5b0661ffff166005556000600281819054906101000a900461ffff166001900391906101000a81548161ffff021916908361ffff160217905561ffff1660065560008081819054906101000a900461ffff1660010191906101000a81548161ffff021916908361ffff160217905561ffff166007553480156101a657600080fd5b506102ae806101b66000396000f3fe608060405260043610610099576000357c0100000000000000000000000000000000000000000000000000000000900463ffffffff1680630dbe671f1461009e5780632986e054146100d1578063371303c0146100fc5780634df7e3d01461012757806358931c461461015a578063853255cc14610185578063a0d7afb7146101b0578063b3bcfa82146101db578063f9fa48c314610206575b600080fd5b3480156100aa57600080fd5b506100b3610231565b604051808261ffff1661ffff16815260200191505060405180910390f35b3480156100dd57600080fd5b506100e6610244565b6040518082815260200191505060405180910390f35b34801561010857600080fd5b5061011161024a565b6040518082815260200191505060405180910390f35b34801561013357600080fd5b5061013c610250565b604051808261ffff1661ffff16815260200191505060405180910390f35b34801561016657600080fd5b5061016f610264565b6040518082815260200191505060405180910390f35b34801561019157600080fd5b5061019a61026a565b6040518082815260200191505060405180910390f35b3480156101bc57600080fd5b506101c5610270565b6040518082815260200191505060405180910390f35b3480156101e757600080fd5b506101f0610276565b6040518082815260200191505060405180910390f35b34801561021257600080fd5b5061021b61027c565b6040518082815260200191505060405180910390f35b6000809054906101000a900461ffff1681565b60055481565b60075481565b600060029054906101000a900461ffff1681565b60035481565b60015481565b60025481565b60065481565b6004548156fea165627a7a7230582022b7aa5032381d8f1a7ff4627bfa0b712cba18f3e4b16585d21ccddc97fcf4f50029",
					"opcodes": "PUSH1 0x80 PUSH1 0x40 MSTORE PUSH1 0x14 PUSH1 0x0 DUP1 PUSH2 0x100 EXP DUP2 SLOAD DUP2 PUSH2 0xFFFF MUL NOT AND SWAP1 DUP4 PUSH2 0xFFFF AND MUL OR SWAP1 SSTORE POP PUSH1 0xA PUSH1 0x0 PUSH1 0x2 PUSH2 0x100 EXP DUP2 SLOAD DUP2 PUSH2 0xFFFF MUL NOT AND SWAP1 DUP4 PUSH2 0xFFFF AND MUL OR SWAP1 SSTORE POP PUSH1 0x0 PUSH1 0x2 SWAP1 SLOAD SWAP1 PUSH2 0x100 EXP SWAP1 DIV PUSH2 0xFFFF AND PUSH1 0x0 DUP1 SWAP1 SLOAD SWAP1 PUSH2 0x100 EXP SWAP1 DIV PUSH2 0xFFFF AND ADD PUSH2 0xFFFF AND PUSH1 0x1 SSTORE PUSH1 0x0 PUSH1 0x2 SWAP1 SLOAD SWAP1 PUSH2 0x100 EXP SWAP1 DIV PUSH2 0xFFFF AND PUSH1 0x0 DUP1 SWAP1 SLOAD SWAP1 PUSH2 0x100 EXP SWAP1 DIV PUSH2 0xFFFF AND SUB PUSH2 0xFFFF AND PUSH1 0x2 SSTORE PUSH1 0x0 PUSH1 0x2 SWAP1 SLOAD SWAP1 PUSH2 0x100 EXP SWAP1 DIV PUSH2 0xFFFF AND PUSH1 0x0 DUP1 SWAP1 SLOAD SWAP1 PUSH2 0x100 EXP SWAP1 DIV PUSH2 0xFFFF AND MUL PUSH2 0xFFFF AND PUSH1 0x3 SSTORE PUSH1 0x0 PUSH1 0x2 SWAP1 SLOAD SWAP1 PUSH2 0x100 EXP SWAP1 DIV PUSH2 0xFFFF AND PUSH2 0xFFFF AND PUSH1 0x0 DUP1 SWAP1 SLOAD SWAP1 PUSH2 0x100 EXP SWAP1 DIV PUSH2 0xFFFF AND PUSH2 0xFFFF AND DUP2 ISZERO ISZERO PUSH2 0xEC JUMPI INVALID JUMPDEST DIV PUSH2 0xFFFF AND PUSH1 0x4 SSTORE PUSH1 0x0 PUSH1 0x2 SWAP1 SLOAD SWAP1 PUSH2 0x100 EXP SWAP1 DIV PUSH2 0xFFFF AND PUSH2 0xFFFF AND PUSH1 0x0 DUP1 SWAP1 SLOAD SWAP1 PUSH2 0x100 EXP SWAP1 DIV PUSH2 0xFFFF AND PUSH2 0xFFFF AND DUP2 ISZERO ISZERO PUSH2 0x126 JUMPI INVALID JUMPDEST MOD PUSH2 0xFFFF AND PUSH1 0x5 SSTORE PUSH1 0x0 PUSH1 0x2 DUP2 DUP2 SWAP1 SLOAD SWAP1 PUSH2 0x100 EXP SWAP1 DIV PUSH2 0xFFFF AND PUSH1 0x1 SWAP1 SUB SWAP2 SWAP1 PUSH2 0x100 EXP DUP2 SLOAD DUP2 PUSH2 0xFFFF MUL NOT AND SWAP1 DUP4 PUSH2 0xFFFF AND MUL OR SWAP1 SSTORE PUSH2 0xFFFF AND PUSH1 0x6 SSTORE PUSH1 0x0 DUP1 DUP2 DUP2 SWAP1 SLOAD SWAP1 PUSH2 0x100 EXP SWAP1 DIV PUSH2 0xFFFF AND PUSH1 0x1 ADD SWAP2 SWAP1 PUSH2 0x100 EXP DUP2 SLOAD DUP2 PUSH2 0xFFFF MUL NOT AND SWAP1 DUP4 PUSH2 0xFFFF AND MUL OR SWAP1 SSTORE PUSH2 0xFFFF AND PUSH1 0x7 SSTORE CALLVALUE DUP1 ISZERO PUSH2 0x1A6 JUMPI PUSH1 0x0 DUP1 REVERT JUMPDEST POP PUSH2 0x2AE DUP1 PUSH2 0x1B6 PUSH1 0x0 CODECOPY PUSH1 0x0 RETURN INVALID PUSH1 0x80 PUSH1 0x40 MSTORE PUSH1 0x4 CALLDATASIZE LT PUSH2 0x99 JUMPI PUSH1 0x0 CALLDATALOAD PUSH29 0x100000000000000000000000000000000000000000000000000000000 SWAP1 DIV PUSH4 0xFFFFFFFF AND DUP1 PUSH4 0xDBE671F EQ PUSH2 0x9E JUMPI DUP1 PUSH4 0x2986E054 EQ PUSH2 0xD1 JUMPI DUP1 PUSH4 0x371303C0 EQ PUSH2 0xFC JUMPI DUP1 PUSH4 0x4DF7E3D0 EQ PUSH2 0x127 JUMPI DUP1 PUSH4 0x58931C46 EQ PUSH2 0x15A JUMPI DUP1 PUSH4 0x853255CC EQ PUSH2 0x185 JUMPI DUP1 PUSH4 0xA0D7AFB7 EQ PUSH2 0x1B0 JUMPI DUP1 PUSH4 0xB3BCFA82 EQ PUSH2 0x1DB JUMPI DUP1 PUSH4 0xF9FA48C3 EQ PUSH2 0x206 JUMPI JUMPDEST PUSH1 0x0 DUP1 REVERT JUMPDEST CALLVALUE DUP1 ISZERO PUSH2 0xAA JUMPI PUSH1 0x0 DUP1 REVERT JUMPDEST POP PUSH2 0xB3 PUSH2 0x231 JUMP JUMPDEST PUSH1 0x40 MLOAD DUP1 DUP3 PUSH2 0xFFFF AND PUSH2 0xFFFF AND DUP2 MSTORE PUSH1 0x20 ADD SWAP2 POP POP PUSH1 0x40 MLOAD DUP1 SWAP2 SUB SWAP1 RETURN JUMPDEST CALLVALUE DUP1 ISZERO PUSH2 0xDD JUMPI PUSH1 0x0 DUP1 REVERT JUMPDEST POP PUSH2 0xE6 PUSH2 0x244 JUMP JUMPDEST PUSH1 0x40 MLOAD DUP1 DUP3 DUP2 MSTORE PUSH1 0x20 ADD SWAP2 POP POP PUSH1 0x40 MLOAD DUP1 SWAP2 SUB SWAP1 RETURN JUMPDEST CALLVALUE DUP1 ISZERO PUSH2 0x108 JUMPI PUSH1 0x0 DUP1 REVERT JUMPDEST POP PUSH2 0x111 PUSH2 0x24A JUMP JUMPDEST PUSH1 0x40 MLOAD DUP1 DUP3 DUP2 MSTORE PUSH1 0x20 ADD SWAP2 POP POP PUSH1 0x40 MLOAD DUP1 SWAP2 SUB SWAP1 RETURN JUMPDEST CALLVALUE DUP1 ISZERO PUSH2 0x133 JUMPI PUSH1 0x0 DUP1 REVERT JUMPDEST POP PUSH2 0x13C PUSH2 0x250 JUMP JUMPDEST PUSH1 0x40 MLOAD DUP1 DUP3 PUSH2 0xFFFF AND PUSH2 0xFFFF AND DUP2 MSTORE PUSH1 0x20 ADD SWAP2 POP POP PUSH1 0x40 MLOAD DUP1 SWAP2 SUB SWAP1 RETURN JUMPDEST CALLVALUE DUP1 ISZERO PUSH2 0x166 JUMPI PUSH1 0x0 DUP1 REVERT JUMPDEST POP PUSH2 0x16F PUSH2 0x264 JUMP JUMPDEST PUSH1 0x40 MLOAD DUP1 DUP3 DUP2 MSTORE PUSH1 0x20 ADD SWAP2 POP POP PUSH1 0x40 MLOAD DUP1 SWAP2 SUB SWAP1 RETURN JUMPDEST CALLVALUE DUP1 ISZERO PUSH2 0x191 JUMPI PUSH1 0x0 DUP1 REVERT JUMPDEST POP PUSH2 0x19A PUSH2 0x26A JUMP JUMPDEST PUSH1 0x40 MLOAD DUP1 DUP3 DUP2 MSTORE PUSH1 0x20 ADD SWAP2 POP POP PUSH1 0x40 MLOAD DUP1 SWAP2 SUB SWAP1 RETURN JUMPDEST CALLVALUE DUP1 ISZERO PUSH2 0x1BC JUMPI PUSH1 0x0 DUP1 REVERT JUMPDEST POP PUSH2 0x1C5 PUSH2 0x270 JUMP JUMPDEST PUSH1 0x40 MLOAD DUP1 DUP3 DUP2 MSTORE PUSH1 0x20 ADD SWAP2 POP POP PUSH1 0x40 MLOAD DUP1 SWAP2 SUB SWAP1 RETURN JUMPDEST CALLVALUE DUP1 ISZERO PUSH2 0x1E7 JUMPI PUSH1 0x0 DUP1 REVERT JUMPDEST POP PUSH2 0x1F0 PUSH2 0x276 JUMP JUMPDEST PUSH1 0x40 MLOAD DUP1 DUP3 DUP2 MSTORE PUSH1 0x20 ADD SWAP2 POP POP PUSH1 0x40 MLOAD DUP1 SWAP2 SUB SWAP1 RETURN JUMPDEST CALLVALUE DUP1 ISZERO PUSH2 0x212 JUMPI PUSH1 0x0 DUP1 REVERT JUMPDEST POP PUSH2 0x21B PUSH2 0x27C JUMP JUMPDEST PUSH1 0x40 MLOAD DUP1 DUP3 DUP2 MSTORE PUSH1 0x20 ADD SWAP2 POP POP PUSH1 0x40 MLOAD DUP1 SWAP2 SUB SWAP1 RETURN JUMPDEST PUSH1 0x0 DUP1 SWAP1 SLOAD SWAP1 PUSH2 0x100 EXP SWAP1 DIV PUSH2 0xFFFF AND DUP2 JUMP JUMPDEST PUSH1 0x5 SLOAD DUP2 JUMP JUMPDEST PUSH1 0x7 SLOAD DUP2 JUMP JUMPDEST PUSH1 0x0 PUSH1 0x2 SWAP1 SLOAD SWAP1 PUSH2 0x100 EXP SWAP1 DIV PUSH2 0xFFFF AND DUP2 JUMP JUMPDEST PUSH1 0x3 SLOAD DUP2 JUMP JUMPDEST PUSH1 0x1 SLOAD DUP2 JUMP JUMPDEST PUSH1 0x2 SLOAD DUP2 JUMP JUMPDEST PUSH1 0x6 SLOAD DUP2 JUMP JUMPDEST PUSH1 0x4 SLOAD DUP2 JUMP INVALID LOG1 PUSH6 0x627A7A723058 KECCAK256 0x22 0xb7 0xaa POP ORIGIN CODESIZE SAR DUP16 BYTE PUSH32 0xF4627BFA0B712CBA18F3E4B16585D21CCDDC97FCF4F500290000000000000000 "
				},
				"gasEstimates": {
					"creation": {
						"codeDepositCost": "137200",
						"executionCost": "224690",
						"totalCost": "361890"
					},
					"external": {
						"a()": "442",
						"b()": "558",
						"dec()": "548",
						"diff()": "526",
						"div()": "570",
						"inc()": "438",
						"mod()": "416",
						"mul()": "482",
						"sum()": "504"
					}
				},
				"methodIdentifiers": {
					"a()": "0dbe671f",
					"b()": "4df7e3d0",
					"dec()": "b3bcfa82",
					"diff()": "a0d7afb7",
					"div()": "f9fa48c3",
					"inc()": "371303c0",
					"mod()": "2986e054",
					"mul()": "58931c46",
					"sum()": "853255cc"
				}
			},
			"userdoc": {
				"methods": {}
			}
		}
	}
}