{
	"Blockchain/Conditional operator.sol": {
		"SolidityTest": {
			"abi": [
				{
					"constant": true,
					"inputs": [
						{
							"name": "a",
							"type": "uint256"
						},
						{
							"name": "b",
							"type": "uint256"
						}
					],
					"name": "sub",
					"outputs": [
						{
							"name": "",
							"type": "uint256"
						}
					],
					"payable": false,
					"stateMutability": "view",
					"type": "function"
				}
			],
			"devdoc": {
				"methods": {}
			},
			"evm": {
				"assembly": "    /* \"Blockchain/Conditional operator.sol\":25:169  contract SolidityTest {\r... */\n  mstore(0x40, 0x80)\n  callvalue\n    /* \"--CODEGEN--\":8:17   */\n  dup1\n    /* \"--CODEGEN--\":5:7   */\n  iszero\n  tag_1\n  jumpi\n    /* \"--CODEGEN--\":30:31   */\n  0x0\n    /* \"--CODEGEN--\":27:28   */\n  dup1\n    /* \"--CODEGEN--\":20:32   */\n  revert\n    /* \"--CODEGEN--\":5:7   */\ntag_1:\n    /* \"Blockchain/Conditional operator.sol\":25:169  contract SolidityTest {\r... */\n  pop\n  dataSize(sub_0)\n  dup1\n  dataOffset(sub_0)\n  0x0\n  codecopy\n  0x0\n  return\nstop\n\nsub_0: assembly {\n        /* \"Blockchain/Conditional operator.sol\":25:169  contract SolidityTest {\r... */\n      mstore(0x40, 0x80)\n      jumpi(tag_1, lt(calldatasize, 0x4))\n      calldataload(0x0)\n      0x100000000000000000000000000000000000000000000000000000000\n      swap1\n      div\n      0xffffffff\n      and\n      dup1\n      0xb67d77c5\n      eq\n      tag_2\n      jumpi\n    tag_1:\n      0x0\n      dup1\n      revert\n        /* \"Blockchain/Conditional operator.sol\":50:166  function sub(uint a, uint b) public pure returns (uint) {\r... */\n    tag_2:\n      callvalue\n        /* \"--CODEGEN--\":8:17   */\n      dup1\n        /* \"--CODEGEN--\":5:7   */\n      iszero\n      tag_3\n      jumpi\n        /* \"--CODEGEN--\":30:31   */\n      0x0\n        /* \"--CODEGEN--\":27:28   */\n      dup1\n        /* \"--CODEGEN--\":20:32   */\n      revert\n        /* \"--CODEGEN--\":5:7   */\n    tag_3:\n        /* \"Blockchain/Conditional operator.sol\":50:166  function sub(uint a, uint b) public pure returns (uint) {\r... */\n      pop\n      tag_4\n      0x4\n      dup1\n      calldatasize\n      sub\n        /* \"--CODEGEN--\":13:15   */\n      0x40\n        /* \"--CODEGEN--\":8:11   */\n      dup2\n        /* \"--CODEGEN--\":5:16   */\n      lt\n        /* \"--CODEGEN--\":2:4   */\n      iszero\n      tag_5\n      jumpi\n        /* \"--CODEGEN--\":29:30   */\n      0x0\n        /* \"--CODEGEN--\":26:27   */\n      dup1\n        /* \"--CODEGEN--\":19:31   */\n      revert\n        /* \"--CODEGEN--\":2:4   */\n    tag_5:\n        /* \"Blockchain/Conditional operator.sol\":50:166  function sub(uint a, uint b) public pure returns (uint) {\r... */\n      dup2\n      add\n      swap1\n      dup1\n      dup1\n      calldataload\n      swap1\n      0x20\n      add\n      swap1\n      swap3\n      swap2\n      swap1\n      dup1\n      calldataload\n      swap1\n      0x20\n      add\n      swap1\n      swap3\n      swap2\n      swap1\n      pop\n      pop\n      pop\n      jump(tag_6)\n    tag_4:\n      mload(0x40)\n      dup1\n      dup3\n      dup2\n      mstore\n      0x20\n      add\n      swap2\n      pop\n      pop\n      mload(0x40)\n      dup1\n      swap2\n      sub\n      swap1\n      return\n    tag_6:\n        /* \"Blockchain/Conditional operator.sol\":100:104  uint */\n      0x0\n        /* \"Blockchain/Conditional operator.sol\":109:120  uint result */\n      dup1\n        /* \"Blockchain/Conditional operator.sol\":128:129  b */\n      dup3\n        /* \"Blockchain/Conditional operator.sol\":124:125  a */\n      dup5\n        /* \"Blockchain/Conditional operator.sol\":124:129  a > b */\n      gt\n        /* \"Blockchain/Conditional operator.sol\":123:146  (a > b) ? a - b : b - a */\n      tag_8\n      jumpi\n        /* \"Blockchain/Conditional operator.sol\":145:146  a */\n      dup4\n        /* \"Blockchain/Conditional operator.sol\":141:142  b */\n      dup4\n        /* \"Blockchain/Conditional operator.sol\":141:146  b - a */\n      sub\n        /* \"Blockchain/Conditional operator.sol\":123:146  (a > b) ? a - b : b - a */\n      jump(tag_9)\n    tag_8:\n        /* \"Blockchain/Conditional operator.sol\":137:138  b */\n      dup3\n        /* \"Blockchain/Conditional operator.sol\":133:134  a */\n      dup5\n        /* \"Blockchain/Conditional operator.sol\":133:138  a - b */\n      sub\n        /* \"Blockchain/Conditional operator.sol\":123:146  (a > b) ? a - b : b - a */\n    tag_9:\n        /* \"Blockchain/Conditional operator.sol\":109:146  uint result = (a > b) ? a - b : b - a */\n      swap1\n      pop\n        /* \"Blockchain/Conditional operator.sol\":156:162  result */\n      dup1\n        /* \"Blockchain/Conditional operator.sol\":149:162  return result */\n      swap2\n      pop\n      pop\n        /* \"Blockchain/Conditional operator.sol\":50:166  function sub(uint a, uint b) public pure returns (uint) {\r... */\n      swap3\n      swap2\n      pop\n      pop\n      jump\t// out\n\n    auxdata: 0xa165627a7a723058206185af15eadb4e4b8556ed406bee2420a940bcdbc4fcae9e17a5875b0ad4d3ce0029\n}\n",
				"bytecode": {
					"linkReferences": {},
					"object": "608060405234801561001057600080fd5b5060e58061001f6000396000f3fe608060405260043610603f576000357c0100000000000000000000000000000000000000000000000000000000900463ffffffff168063b67d77c5146044575b600080fd5b348015604f57600080fd5b50608360048036036040811015606457600080fd5b8101908080359060200190929190803590602001909291905050506099565b6040518082815260200191505060405180910390f35b60008082841160a95783830360ad565b8284035b9050809150509291505056fea165627a7a723058206185af15eadb4e4b8556ed406bee2420a940bcdbc4fcae9e17a5875b0ad4d3ce0029",
					"opcodes": "PUSH1 0x80 PUSH1 0x40 MSTORE CALLVALUE DUP1 ISZERO PUSH2 0x10 JUMPI PUSH1 0x0 DUP1 REVERT JUMPDEST POP PUSH1 0xE5 DUP1 PUSH2 0x1F PUSH1 0x0 CODECOPY PUSH1 0x0 RETURN INVALID PUSH1 0x80 PUSH1 0x40 MSTORE PUSH1 0x4 CALLDATASIZE LT PUSH1 0x3F JUMPI PUSH1 0x0 CALLDATALOAD PUSH29 0x100000000000000000000000000000000000000000000000000000000 SWAP1 DIV PUSH4 0xFFFFFFFF AND DUP1 PUSH4 0xB67D77C5 EQ PUSH1 0x44 JUMPI JUMPDEST PUSH1 0x0 DUP1 REVERT JUMPDEST CALLVALUE DUP1 ISZERO PUSH1 0x4F JUMPI PUSH1 0x0 DUP1 REVERT JUMPDEST POP PUSH1 0x83 PUSH1 0x4 DUP1 CALLDATASIZE SUB PUSH1 0x40 DUP2 LT ISZERO PUSH1 0x64 JUMPI PUSH1 0x0 DUP1 REVERT JUMPDEST DUP2 ADD SWAP1 DUP1 DUP1 CALLDATALOAD SWAP1 PUSH1 0x20 ADD SWAP1 SWAP3 SWAP2 SWAP1 DUP1 CALLDATALOAD SWAP1 PUSH1 0x20 ADD SWAP1 SWAP3 SWAP2 SWAP1 POP POP POP PUSH1 0x99 JUMP JUMPDEST PUSH1 0x40 MLOAD DUP1 DUP3 DUP2 MSTORE PUSH1 0x20 ADD SWAP2 POP POP PUSH1 0x40 MLOAD DUP1 SWAP2 SUB SWAP1 RETURN JUMPDEST PUSH1 0x0 DUP1 DUP3 DUP5 GT PUSH1 0xA9 JUMPI DUP4 DUP4 SUB PUSH1 0xAD JUMP JUMPDEST DUP3 DUP5 SUB JUMPDEST SWAP1 POP DUP1 SWAP2 POP POP SWAP3 SWAP2 POP POP JUMP INVALID LOG1 PUSH6 0x627A7A723058 KECCAK256 PUSH2 0x85AF ISZERO 0xea 0xdb 0x4e 0x4b DUP6 JUMP 0xed BLOCKHASH PUSH12 0xEE2420A940BCDBC4FCAE9E17 0xa5 DUP8 JUMPDEST EXP 0xd4 0xd3 0xce STOP 0x29 "
				},
				"gasEstimates": {
					"creation": {
						"codeDepositCost": "45800",
						"executionCost": "99",
						"totalCost": "45899"
					},
					"external": {
						"sub(uint256,uint256)": "371"
					}
				},
				"methodIdentifiers": {
					"sub(uint256,uint256)": "b67d77c5"
				}
			},
			"userdoc": {
				"methods": {}
			}
		}
	}
}