{
	"Blockchain/Relational operator.sol": {
		"SolidityTest": {
			"abi": [
				{
					"constant": true,
					"inputs": [],
					"name": "a",
					"outputs": [
						{
							"name": "",
							"type": "uint16"
						}
					],
					"payable": false,
					"stateMutability": "view",
					"type": "function"
				},
				{
					"constant": true,
					"inputs": [],
					"name": "b",
					"outputs": [
						{
							"name": "",
							"type": "uint16"
						}
					],
					"payable": false,
					"stateMutability": "view",
					"type": "function"
				},
				{
					"constant": true,
					"inputs": [],
					"name": "noteq",
					"outputs": [
						{
							"name": "",
							"type": "bool"
						}
					],
					"payable": false,
					"stateMutability": "view",
					"type": "function"
				},
				{
					"constant": true,
					"inputs": [],
					"name": "eq",
					"outputs": [
						{
							"name": "",
							"type": "bool"
						}
					],
					"payable": false,
					"stateMutability": "view",
					"type": "function"
				},
				{
					"constant": true,
					"inputs": [],
					"name": "les",
					"outputs": [
						{
							"name": "",
							"type": "bool"
						}
					],
					"payable": false,
					"stateMutability": "view",
					"type": "function"
				},
				{
					"constant": true,
					"inputs": [],
					"name": "leseq",
					"outputs": [
						{
							"name": "",
							"type": "bool"
						}
					],
					"payable": false,
					"stateMutability": "view",
					"type": "function"
				},
				{
					"constant": true,
					"inputs": [],
					"name": "gtreq",
					"outputs": [
						{
							"name": "",
							"type": "bool"
						}
					],
					"payable": false,
					"stateMutability": "view",
					"type": "function"
				},
				{
					"constant": true,
					"inputs": [],
					"name": "gtr",
					"outputs": [
						{
							"name": "",
							"type": "bool"
						}
					],
					"payable": false,
					"stateMutability": "view",
					"type": "function"
				}
			],
			"devdoc": {
				"methods": {}
			},
			"evm": {
				"assembly": "    /* \"Blockchain/Relational operator.sol\":109:739  contract SolidityTest {\r... */\n  mstore(0x40, 0x80)\n    /* \"Blockchain/Relational operator.sol\":176:178  20 */\n  0x14\n    /* \"Blockchain/Relational operator.sol\":158:178  uint16 public a = 20 */\n  0x0\n  dup1\n  0x100\n  exp\n  dup2\n  sload\n  dup2\n  0xffff\n  mul\n  not\n  and\n  swap1\n  dup4\n  0xffff\n  and\n  mul\n  or\n  swap1\n  sstore\n  pop\n    /* \"Blockchain/Relational operator.sol\":199:201  10 */\n  0xa\n    /* \"Blockchain/Relational operator.sol\":181:201  uint16 public b = 10 */\n  0x0\n  exp(0x100, 0x2)\n  dup2\n  sload\n  dup2\n  0xffff\n  mul\n  not\n  and\n  swap1\n  dup4\n  0xffff\n  and\n  mul\n  or\n  swap1\n  sstore\n  pop\n    /* \"Blockchain/Relational operator.sol\":281:282  b */\n  0x0\n  0x2\n  swap1\n  sload\n  swap1\n  0x100\n  exp\n  swap1\n  div\n  0xffff\n  and\n    /* \"Blockchain/Relational operator.sol\":276:282  a == b */\n  0xffff\n  and\n    /* \"Blockchain/Relational operator.sol\":276:277  a */\n  0x0\n  dup1\n  swap1\n  sload\n  swap1\n  0x100\n  exp\n  swap1\n  div\n  0xffff\n  and\n    /* \"Blockchain/Relational operator.sol\":276:282  a == b */\n  0xffff\n  and\n  eq\n    /* \"Blockchain/Relational operator.sol\":259:282  bool public eq = a == b */\n  0x0\n  exp(0x100, 0x4)\n  dup2\n  sload\n  dup2\n  0xff\n  mul\n  not\n  and\n  swap1\n  dup4\n  iszero\n  iszero\n  mul\n  or\n  swap1\n  sstore\n  pop\n    /* \"Blockchain/Relational operator.sol\":369:370  b */\n  0x0\n  0x2\n  swap1\n  sload\n  swap1\n  0x100\n  exp\n  swap1\n  div\n  0xffff\n  and\n    /* \"Blockchain/Relational operator.sol\":364:370  a != b */\n  0xffff\n  and\n    /* \"Blockchain/Relational operator.sol\":364:365  a */\n  0x0\n  dup1\n  swap1\n  sload\n  swap1\n  0x100\n  exp\n  swap1\n  div\n  0xffff\n  and\n    /* \"Blockchain/Relational operator.sol\":364:370  a != b */\n  0xffff\n  and\n  eq\n  iszero\n    /* \"Blockchain/Relational operator.sol\":344:370  bool public noteq = a != b */\n  0x0\n  exp(0x100, 0x5)\n  dup2\n  sload\n  dup2\n  0xff\n  mul\n  not\n  and\n  swap1\n  dup4\n  iszero\n  iszero\n  mul\n  or\n  swap1\n  sstore\n  pop\n    /* \"Blockchain/Relational operator.sol\":457:458  b */\n  0x0\n  0x2\n  swap1\n  sload\n  swap1\n  0x100\n  exp\n  swap1\n  div\n  0xffff\n  and\n    /* \"Blockchain/Relational operator.sol\":453:458  a > b */\n  0xffff\n  and\n    /* \"Blockchain/Relational operator.sol\":453:454  a */\n  0x0\n  dup1\n  swap1\n  sload\n  swap1\n  0x100\n  exp\n  swap1\n  div\n  0xffff\n  and\n    /* \"Blockchain/Relational operator.sol\":453:458  a > b */\n  0xffff\n  and\n  gt\n    /* \"Blockchain/Relational operator.sol\":435:458  bool public gtr = a > b */\n  0x0\n  exp(0x100, 0x6)\n  dup2\n  sload\n  dup2\n  0xff\n  mul\n  not\n  and\n  swap1\n  dup4\n  iszero\n  iszero\n  mul\n  or\n  swap1\n  sstore\n  pop\n    /* \"Blockchain/Relational operator.sol\":542:543  b */\n  0x0\n  0x2\n  swap1\n  sload\n  swap1\n  0x100\n  exp\n  swap1\n  div\n  0xffff\n  and\n    /* \"Blockchain/Relational operator.sol\":538:543  a < b */\n  0xffff\n  and\n    /* \"Blockchain/Relational operator.sol\":538:539  a */\n  0x0\n  dup1\n  swap1\n  sload\n  swap1\n  0x100\n  exp\n  swap1\n  div\n  0xffff\n  and\n    /* \"Blockchain/Relational operator.sol\":538:543  a < b */\n  0xffff\n  and\n  lt\n    /* \"Blockchain/Relational operator.sol\":520:543  bool public les = a < b */\n  0x0\n  exp(0x100, 0x7)\n  dup2\n  sload\n  dup2\n  0xff\n  mul\n  not\n  and\n  swap1\n  dup4\n  iszero\n  iszero\n  mul\n  or\n  swap1\n  sstore\n  pop\n    /* \"Blockchain/Relational operator.sol\":642:643  b */\n  0x0\n  0x2\n  swap1\n  sload\n  swap1\n  0x100\n  exp\n  swap1\n  div\n  0xffff\n  and\n    /* \"Blockchain/Relational operator.sol\":637:643  a >= b */\n  0xffff\n  and\n    /* \"Blockchain/Relational operator.sol\":637:638  a */\n  0x0\n  dup1\n  swap1\n  sload\n  swap1\n  0x100\n  exp\n  swap1\n  div\n  0xffff\n  and\n    /* \"Blockchain/Relational operator.sol\":637:643  a >= b */\n  0xffff\n  and\n  lt\n  iszero\n    /* \"Blockchain/Relational operator.sol\":617:643  bool public gtreq = a >= b */\n  0x0\n  exp(0x100, 0x8)\n  dup2\n  sload\n  dup2\n  0xff\n  mul\n  not\n  and\n  swap1\n  dup4\n  iszero\n  iszero\n  mul\n  or\n  swap1\n  sstore\n  pop\n    /* \"Blockchain/Relational operator.sol\":734:735  b */\n  0x0\n  0x2\n  swap1\n  sload\n  swap1\n  0x100\n  exp\n  swap1\n  div\n  0xffff\n  and\n    /* \"Blockchain/Relational operator.sol\":729:735  a <= b */\n  0xffff\n  and\n    /* \"Blockchain/Relational operator.sol\":729:730  a */\n  0x0\n  dup1\n  swap1\n  sload\n  swap1\n  0x100\n  exp\n  swap1\n  div\n  0xffff\n  and\n    /* \"Blockchain/Relational operator.sol\":729:735  a <= b */\n  0xffff\n  and\n  gt\n  iszero\n    /* \"Blockchain/Relational operator.sol\":709:735  bool public leseq = a <= b */\n  0x0\n  exp(0x100, 0x9)\n  dup2\n  sload\n  dup2\n  0xff\n  mul\n  not\n  and\n  swap1\n  dup4\n  iszero\n  iszero\n  mul\n  or\n  swap1\n  sstore\n  pop\n    /* \"Blockchain/Relational operator.sol\":109:739  contract SolidityTest {\r... */\n  callvalue\n    /* \"--CODEGEN--\":8:17   */\n  dup1\n    /* \"--CODEGEN--\":5:7   */\n  iszero\n  tag_1\n  jumpi\n    /* \"--CODEGEN--\":30:31   */\n  0x0\n    /* \"--CODEGEN--\":27:28   */\n  dup1\n    /* \"--CODEGEN--\":20:32   */\n  revert\n    /* \"--CODEGEN--\":5:7   */\ntag_1:\n    /* \"Blockchain/Relational operator.sol\":109:739  contract SolidityTest {\r... */\n  pop\n  dataSize(sub_0)\n  dup1\n  dataOffset(sub_0)\n  0x0\n  codecopy\n  0x0\n  return\nstop\n\nsub_0: assembly {\n        /* \"Blockchain/Relational operator.sol\":109:739  contract SolidityTest {\r... */\n      mstore(0x40, 0x80)\n      jumpi(tag_1, lt(calldatasize, 0x4))\n      calldataload(0x0)\n      0x100000000000000000000000000000000000000000000000000000000\n      swap1\n      div\n      0xffffffff\n      and\n      dup1\n      0xdbe671f\n      eq\n      tag_2\n      jumpi\n      dup1\n      0x4df7e3d0\n      eq\n      tag_3\n      jumpi\n      dup1\n      0x6a8a6ab5\n      eq\n      tag_4\n      jumpi\n      dup1\n      0xb5165b60\n      eq\n      tag_5\n      jumpi\n      dup1\n      0xb612aa97\n      eq\n      tag_6\n      jumpi\n      dup1\n      0xbc2958e7\n      eq\n      tag_7\n      jumpi\n      dup1\n      0xbd0a4113\n      eq\n      tag_8\n      jumpi\n      dup1\n      0xd10fc104\n      eq\n      tag_9\n      jumpi\n    tag_1:\n      0x0\n      dup1\n      revert\n        /* \"Blockchain/Relational operator.sol\":158:178  uint16 public a = 20 */\n    tag_2:\n      callvalue\n        /* \"--CODEGEN--\":8:17   */\n      dup1\n        /* \"--CODEGEN--\":5:7   */\n      iszero\n      tag_10\n      jumpi\n        /* \"--CODEGEN--\":30:31   */\n      0x0\n        /* \"--CODEGEN--\":27:28   */\n      dup1\n        /* \"--CODEGEN--\":20:32   */\n      revert\n        /* \"--CODEGEN--\":5:7   */\n    tag_10:\n        /* \"Blockchain/Relational operator.sol\":158:178  uint16 public a = 20 */\n      pop\n      tag_11\n      jump(tag_12)\n    tag_11:\n      mload(0x40)\n      dup1\n      dup3\n      0xffff\n      and\n      0xffff\n      and\n      dup2\n      mstore\n      0x20\n      add\n      swap2\n      pop\n      pop\n      mload(0x40)\n      dup1\n      swap2\n      sub\n      swap1\n      return\n        /* \"Blockchain/Relational operator.sol\":181:201  uint16 public b = 10 */\n    tag_3:\n      callvalue\n        /* \"--CODEGEN--\":8:17   */\n      dup1\n        /* \"--CODEGEN--\":5:7   */\n      iszero\n      tag_13\n      jumpi\n        /* \"--CODEGEN--\":30:31   */\n      0x0\n        /* \"--CODEGEN--\":27:28   */\n      dup1\n        /* \"--CODEGEN--\":20:32   */\n      revert\n        /* \"--CODEGEN--\":5:7   */\n    tag_13:\n        /* \"Blockchain/Relational operator.sol\":181:201  uint16 public b = 10 */\n      pop\n      tag_14\n      jump(tag_15)\n    tag_14:\n      mload(0x40)\n      dup1\n      dup3\n      0xffff\n      and\n      0xffff\n      and\n      dup2\n      mstore\n      0x20\n      add\n      swap2\n      pop\n      pop\n      mload(0x40)\n      dup1\n      swap2\n      sub\n      swap1\n      return\n        /* \"Blockchain/Relational operator.sol\":344:370  bool public noteq = a != b */\n    tag_4:\n      callvalue\n        /* \"--CODEGEN--\":8:17   */\n      dup1\n        /* \"--CODEGEN--\":5:7   */\n      iszero\n      tag_16\n      jumpi\n        /* \"--CODEGEN--\":30:31   */\n      0x0\n        /* \"--CODEGEN--\":27:28   */\n      dup1\n        /* \"--CODEGEN--\":20:32   */\n      revert\n        /* \"--CODEGEN--\":5:7   */\n    tag_16:\n        /* \"Blockchain/Relational operator.sol\":344:370  bool public noteq = a != b */\n      pop\n      tag_17\n      jump(tag_18)\n    tag_17:\n      mload(0x40)\n      dup1\n      dup3\n      iszero\n      iszero\n      iszero\n      iszero\n      dup2\n      mstore\n      0x20\n      add\n      swap2\n      pop\n      pop\n      mload(0x40)\n      dup1\n      swap2\n      sub\n      swap1\n      return\n        /* \"Blockchain/Relational operator.sol\":259:282  bool public eq = a == b */\n    tag_5:\n      callvalue\n        /* \"--CODEGEN--\":8:17   */\n      dup1\n        /* \"--CODEGEN--\":5:7   */\n      iszero\n      tag_19\n      jumpi\n        /* \"--CODEGEN--\":30:31   */\n      0x0\n        /* \"--CODEGEN--\":27:28   */\n      dup1\n        /* \"--CODEGEN--\":20:32   */\n      revert\n        /* \"--CODEGEN--\":5:7   */\n    tag_19:\n        /* \"Blockchain/Relational operator.sol\":259:282  bool public eq = a == b */\n      pop\n      tag_20\n      jump(tag_21)\n    tag_20:\n      mload(0x40)\n      dup1\n      dup3\n      iszero\n      iszero\n      iszero\n      iszero\n      dup2\n      mstore\n      0x20\n      add\n      swap2\n      pop\n      pop\n      mload(0x40)\n      dup1\n      swap2\n      sub\n      swap1\n      return\n        /* \"Blockchain/Relational operator.sol\":520:543  bool public les = a < b */\n    tag_6:\n      callvalue\n        /* \"--CODEGEN--\":8:17   */\n      dup1\n        /* \"--CODEGEN--\":5:7   */\n      iszero\n      tag_22\n      jumpi\n        /* \"--CODEGEN--\":30:31   */\n      0x0\n        /* \"--CODEGEN--\":27:28   */\n      dup1\n        /* \"--CODEGEN--\":20:32   */\n      revert\n        /* \"--CODEGEN--\":5:7   */\n    tag_22:\n        /* \"Blockchain/Relational operator.sol\":520:543  bool public les = a < b */\n      pop\n      tag_23\n      jump(tag_24)\n    tag_23:\n      mload(0x40)\n      dup1\n      dup3\n      iszero\n      iszero\n      iszero\n      iszero\n      dup2\n      mstore\n      0x20\n      add\n      swap2\n      pop\n      pop\n      mload(0x40)\n      dup1\n      swap2\n      sub\n      swap1\n      return\n        /* \"Blockchain/Relational operator.sol\":709:735  bool public leseq = a <= b */\n    tag_7:\n      callvalue\n        /* \"--CODEGEN--\":8:17   */\n      dup1\n        /* \"--CODEGEN--\":5:7   */\n      iszero\n      tag_25\n      jumpi\n        /* \"--CODEGEN--\":30:31   */\n      0x0\n        /* \"--CODEGEN--\":27:28   */\n      dup1\n        /* \"--CODEGEN--\":20:32   */\n      revert\n        /* \"--CODEGEN--\":5:7   */\n    tag_25:\n        /* \"Blockchain/Relational operator.sol\":709:735  bool public leseq = a <= b */\n      pop\n      tag_26\n      jump(tag_27)\n    tag_26:\n      mload(0x40)\n      dup1\n      dup3\n      iszero\n      iszero\n      iszero\n      iszero\n      dup2\n      mstore\n      0x20\n      add\n      swap2\n      pop\n      pop\n      mload(0x40)\n      dup1\n      swap2\n      sub\n      swap1\n      return\n        /* \"Blockchain/Relational operator.sol\":617:643  bool public gtreq = a >= b */\n    tag_8:\n      callvalue\n        /* \"--CODEGEN--\":8:17   */\n      dup1\n        /* \"--CODEGEN--\":5:7   */\n      iszero\n      tag_28\n      jumpi\n        /* \"--CODEGEN--\":30:31   */\n      0x0\n        /* \"--CODEGEN--\":27:28   */\n      dup1\n        /* \"--CODEGEN--\":20:32   */\n      revert\n        /* \"--CODEGEN--\":5:7   */\n    tag_28:\n        /* \"Blockchain/Relational operator.sol\":617:643  bool public gtreq = a >= b */\n      pop\n      tag_29\n      jump(tag_30)\n    tag_29:\n      mload(0x40)\n      dup1\n      dup3\n      iszero\n      iszero\n      iszero\n      iszero\n      dup2\n      mstore\n      0x20\n      add\n      swap2\n      pop\n      pop\n      mload(0x40)\n      dup1\n      swap2\n      sub\n      swap1\n      return\n        /* \"Blockchain/Relational operator.sol\":435:458  bool public gtr = a > b */\n    tag_9:\n      callvalue\n        /* \"--CODEGEN--\":8:17   */\n      dup1\n        /* \"--CODEGEN--\":5:7   */\n      iszero\n      tag_31\n      jumpi\n        /* \"--CODEGEN--\":30:31   */\n      0x0\n        /* \"--CODEGEN--\":27:28   */\n      dup1\n        /* \"--CODEGEN--\":20:32   */\n      revert\n        /* \"--CODEGEN--\":5:7   */\n    tag_31:\n        /* \"Blockchain/Relational operator.sol\":435:458  bool public gtr = a > b */\n      pop\n      tag_32\n      jump(tag_33)\n    tag_32:\n      mload(0x40)\n      dup1\n      dup3\n      iszero\n      iszero\n      iszero\n      iszero\n      dup2\n      mstore\n      0x20\n      add\n      swap2\n      pop\n      pop\n      mload(0x40)\n      dup1\n      swap2\n      sub\n      swap1\n      return\n        /* \"Blockchain/Relational operator.sol\":158:178  uint16 public a = 20 */\n    tag_12:\n      0x0\n      dup1\n      swap1\n      sload\n      swap1\n      0x100\n      exp\n      swap1\n      div\n      0xffff\n      and\n      dup2\n      jump\t// out\n        /* \"Blockchain/Relational operator.sol\":181:201  uint16 public b = 10 */\n    tag_15:\n      0x0\n      0x2\n      swap1\n      sload\n      swap1\n      0x100\n      exp\n      swap1\n      div\n      0xffff\n      and\n      dup2\n      jump\t// out\n        /* \"Blockchain/Relational operator.sol\":344:370  bool public noteq = a != b */\n    tag_18:\n      0x0\n      0x5\n      swap1\n      sload\n      swap1\n      0x100\n      exp\n      swap1\n      div\n      0xff\n      and\n      dup2\n      jump\t// out\n        /* \"Blockchain/Relational operator.sol\":259:282  bool public eq = a == b */\n    tag_21:\n      0x0\n      0x4\n      swap1\n      sload\n      swap1\n      0x100\n      exp\n      swap1\n      div\n      0xff\n      and\n      dup2\n      jump\t// out\n        /* \"Blockchain/Relational operator.sol\":520:543  bool public les = a < b */\n    tag_24:\n      0x0\n      0x7\n      swap1\n      sload\n      swap1\n      0x100\n      exp\n      swap1\n      div\n      0xff\n      and\n      dup2\n      jump\t// out\n        /* \"Blockchain/Relational operator.sol\":709:735  bool public leseq = a <= b */\n    tag_27:\n      0x0\n      0x9\n      swap1\n      sload\n      swap1\n      0x100\n      exp\n      swap1\n      div\n      0xff\n      and\n      dup2\n      jump\t// out\n        /* \"Blockchain/Relational operator.sol\":617:643  bool public gtreq = a >= b */\n    tag_30:\n      0x0\n      0x8\n      swap1\n      sload\n      swap1\n      0x100\n      exp\n      swap1\n      div\n      0xff\n      and\n      dup2\n      jump\t// out\n        /* \"Blockchain/Relational operator.sol\":435:458  bool public gtr = a > b */\n    tag_33:\n      0x0\n      0x6\n      swap1\n      sload\n      swap1\n      0x100\n      exp\n      swap1\n      div\n      0xff\n      and\n      dup2\n      jump\t// out\n\n    auxdata: 0xa165627a7a723058206230a1f1a9b21a1b224252968a5908c2554e9696f94dc6f3703238279b30d02d0029\n}\n",
				"bytecode": {
					"linkReferences": {},
					"object": "608060405260146000806101000a81548161ffff021916908361ffff160217905550600a600060026101000a81548161ffff021916908361ffff160217905550600060029054906101000a900461ffff1661ffff166000809054906101000a900461ffff1661ffff1614600060046101000a81548160ff021916908315150217905550600060029054906101000a900461ffff1661ffff166000809054906101000a900461ffff1661ffff161415600060056101000a81548160ff021916908315150217905550600060029054906101000a900461ffff1661ffff166000809054906101000a900461ffff1661ffff1611600060066101000a81548160ff021916908315150217905550600060029054906101000a900461ffff1661ffff166000809054906101000a900461ffff1661ffff1610600060076101000a81548160ff021916908315150217905550600060029054906101000a900461ffff1661ffff166000809054906101000a900461ffff1661ffff161015600060086101000a81548160ff021916908315150217905550600060029054906101000a900461ffff1661ffff166000809054906101000a900461ffff1661ffff161115600060096101000a81548160ff0219169083151502179055503480156101e057600080fd5b506102d8806101f06000396000f3fe60806040526004361061008e576000357c0100000000000000000000000000000000000000000000000000000000900463ffffffff1680630dbe671f146100935780634df7e3d0146100c65780636a8a6ab5146100f9578063b5165b6014610128578063b612aa9714610157578063bc2958e714610186578063bd0a4113146101b5578063d10fc104146101e4575b600080fd5b34801561009f57600080fd5b506100a8610213565b604051808261ffff1661ffff16815260200191505060405180910390f35b3480156100d257600080fd5b506100db610226565b604051808261ffff1661ffff16815260200191505060405180910390f35b34801561010557600080fd5b5061010e61023a565b604051808215151515815260200191505060405180910390f35b34801561013457600080fd5b5061013d61024d565b604051808215151515815260200191505060405180910390f35b34801561016357600080fd5b5061016c610260565b604051808215151515815260200191505060405180910390f35b34801561019257600080fd5b5061019b610273565b604051808215151515815260200191505060405180910390f35b3480156101c157600080fd5b506101ca610286565b604051808215151515815260200191505060405180910390f35b3480156101f057600080fd5b506101f9610299565b604051808215151515815260200191505060405180910390f35b6000809054906101000a900461ffff1681565b600060029054906101000a900461ffff1681565b600060059054906101000a900460ff1681565b600060049054906101000a900460ff1681565b600060079054906101000a900460ff1681565b600060099054906101000a900460ff1681565b600060089054906101000a900460ff1681565b600060069054906101000a900460ff168156fea165627a7a723058206230a1f1a9b21a1b224252968a5908c2554e9696f94dc6f3703238279b30d02d0029",
					"opcodes": "PUSH1 0x80 PUSH1 0x40 MSTORE PUSH1 0x14 PUSH1 0x0 DUP1 PUSH2 0x100 EXP DUP2 SLOAD DUP2 PUSH2 0xFFFF MUL NOT AND SWAP1 DUP4 PUSH2 0xFFFF AND MUL OR SWAP1 SSTORE POP PUSH1 0xA PUSH1 0x0 PUSH1 0x2 PUSH2 0x100 EXP DUP2 SLOAD DUP2 PUSH2 0xFFFF MUL NOT AND SWAP1 DUP4 PUSH2 0xFFFF AND MUL OR SWAP1 SSTORE POP PUSH1 0x0 PUSH1 0x2 SWAP1 SLOAD SWAP1 PUSH2 0x100 EXP SWAP1 DIV PUSH2 0xFFFF AND PUSH2 0xFFFF AND PUSH1 0x0 DUP1 SWAP1 SLOAD SWAP1 PUSH2 0x100 EXP SWAP1 DIV PUSH2 0xFFFF AND PUSH2 0xFFFF AND EQ PUSH1 0x0 PUSH1 0x4 PUSH2 0x100 EXP DUP2 SLOAD DUP2 PUSH1 0xFF MUL NOT AND SWAP1 DUP4 ISZERO ISZERO MUL OR SWAP1 SSTORE POP PUSH1 0x0 PUSH1 0x2 SWAP1 SLOAD SWAP1 PUSH2 0x100 EXP SWAP1 DIV PUSH2 0xFFFF AND PUSH2 0xFFFF AND PUSH1 0x0 DUP1 SWAP1 SLOAD SWAP1 PUSH2 0x100 EXP SWAP1 DIV PUSH2 0xFFFF AND PUSH2 0xFFFF AND EQ ISZERO PUSH1 0x0 PUSH1 0x5 PUSH2 0x100 EXP DUP2 SLOAD DUP2 PUSH1 0xFF MUL NOT AND SWAP1 DUP4 ISZERO ISZERO MUL OR SWAP1 SSTORE POP PUSH1 0x0 PUSH1 0x2 SWAP1 SLOAD SWAP1 PUSH2 0x100 EXP SWAP1 DIV PUSH2 0xFFFF AND PUSH2 0xFFFF AND PUSH1 0x0 DUP1 SWAP1 SLOAD SWAP1 PUSH2 0x100 EXP SWAP1 DIV PUSH2 0xFFFF AND PUSH2 0xFFFF AND GT PUSH1 0x0 PUSH1 0x6 PUSH2 0x100 EXP DUP2 SLOAD DUP2 PUSH1 0xFF MUL NOT AND SWAP1 DUP4 ISZERO ISZERO MUL OR SWAP1 SSTORE POP PUSH1 0x0 PUSH1 0x2 SWAP1 SLOAD SWAP1 PUSH2 0x100 EXP SWAP1 DIV PUSH2 0xFFFF AND PUSH2 0xFFFF AND PUSH1 0x0 DUP1 SWAP1 SLOAD SWAP1 PUSH2 0x100 EXP SWAP1 DIV PUSH2 0xFFFF AND PUSH2 0xFFFF AND LT PUSH1 0x0 PUSH1 0x7 PUSH2 0x100 EXP DUP2 SLOAD DUP2 PUSH1 0xFF MUL NOT AND SWAP1 DUP4 ISZERO ISZERO MUL OR SWAP1 SSTORE POP PUSH1 0x0 PUSH1 0x2 SWAP1 SLOAD SWAP1 PUSH2 0x100 EXP SWAP1 DIV PUSH2 0xFFFF AND PUSH2 0xFFFF AND PUSH1 0x0 DUP1 SWAP1 SLOAD SWAP1 PUSH2 0x100 EXP SWAP1 DIV PUSH2 0xFFFF AND PUSH2 0xFFFF AND LT ISZERO PUSH1 0x0 PUSH1 0x8 PUSH2 0x100 EXP DUP2 SLOAD DUP2 PUSH1 0xFF MUL NOT AND SWAP1 DUP4 ISZERO ISZERO MUL OR SWAP1 SSTORE POP PUSH1 0x0 PUSH1 0x2 SWAP1 SLOAD SWAP1 PUSH2 0x100 EXP SWAP1 DIV PUSH2 0xFFFF AND PUSH2 0xFFFF AND PUSH1 0x0 DUP1 SWAP1 SLOAD SWAP1 PUSH2 0x100 EXP SWAP1 DIV PUSH2 0xFFFF AND PUSH2 0xFFFF AND GT ISZERO PUSH1 0x0 PUSH1 0x9 PUSH2 0x100 EXP DUP2 SLOAD DUP2 PUSH1 0xFF MUL NOT AND SWAP1 DUP4 ISZERO ISZERO MUL OR SWAP1 SSTORE POP CALLVALUE DUP1 ISZERO PUSH2 0x1E0 JUMPI PUSH1 0x0 DUP1 REVERT JUMPDEST POP PUSH2 0x2D8 DUP1 PUSH2 0x1F0 PUSH1 0x0 CODECOPY PUSH1 0x0 RETURN INVALID PUSH1 0x80 PUSH1 0x40 MSTORE PUSH1 0x4 CALLDATASIZE LT PUSH2 0x8E JUMPI PUSH1 0x0 CALLDATALOAD PUSH29 0x100000000000000000000000000000000000000000000000000000000 SWAP1 DIV PUSH4 0xFFFFFFFF AND DUP1 PUSH4 0xDBE671F EQ PUSH2 0x93 JUMPI DUP1 PUSH4 0x4DF7E3D0 EQ PUSH2 0xC6 JUMPI DUP1 PUSH4 0x6A8A6AB5 EQ PUSH2 0xF9 JUMPI DUP1 PUSH4 0xB5165B60 EQ PUSH2 0x128 JUMPI DUP1 PUSH4 0xB612AA97 EQ PUSH2 0x157 JUMPI DUP1 PUSH4 0xBC2958E7 EQ PUSH2 0x186 JUMPI DUP1 PUSH4 0xBD0A4113 EQ PUSH2 0x1B5 JUMPI DUP1 PUSH4 0xD10FC104 EQ PUSH2 0x1E4 JUMPI JUMPDEST PUSH1 0x0 DUP1 REVERT JUMPDEST CALLVALUE DUP1 ISZERO PUSH2 0x9F JUMPI PUSH1 0x0 DUP1 REVERT JUMPDEST POP PUSH2 0xA8 PUSH2 0x213 JUMP JUMPDEST PUSH1 0x40 MLOAD DUP1 DUP3 PUSH2 0xFFFF AND PUSH2 0xFFFF AND DUP2 MSTORE PUSH1 0x20 ADD SWAP2 POP POP PUSH1 0x40 MLOAD DUP1 SWAP2 SUB SWAP1 RETURN JUMPDEST CALLVALUE DUP1 ISZERO PUSH2 0xD2 JUMPI PUSH1 0x0 DUP1 REVERT JUMPDEST POP PUSH2 0xDB PUSH2 0x226 JUMP JUMPDEST PUSH1 0x40 MLOAD DUP1 DUP3 PUSH2 0xFFFF AND PUSH2 0xFFFF AND DUP2 MSTORE PUSH1 0x20 ADD SWAP2 POP POP PUSH1 0x40 MLOAD DUP1 SWAP2 SUB SWAP1 RETURN JUMPDEST CALLVALUE DUP1 ISZERO PUSH2 0x105 JUMPI PUSH1 0x0 DUP1 REVERT JUMPDEST POP PUSH2 0x10E PUSH2 0x23A JUMP JUMPDEST PUSH1 0x40 MLOAD DUP1 DUP3 ISZERO ISZERO ISZERO ISZERO DUP2 MSTORE PUSH1 0x20 ADD SWAP2 POP POP PUSH1 0x40 MLOAD DUP1 SWAP2 SUB SWAP1 RETURN JUMPDEST CALLVALUE DUP1 ISZERO PUSH2 0x134 JUMPI PUSH1 0x0 DUP1 REVERT JUMPDEST POP PUSH2 0x13D PUSH2 0x24D JUMP JUMPDEST PUSH1 0x40 MLOAD DUP1 DUP3 ISZERO ISZERO ISZERO ISZERO DUP2 MSTORE PUSH1 0x20 ADD SWAP2 POP POP PUSH1 0x40 MLOAD DUP1 SWAP2 SUB SWAP1 RETURN JUMPDEST CALLVALUE DUP1 ISZERO PUSH2 0x163 JUMPI PUSH1 0x0 DUP1 REVERT JUMPDEST POP PUSH2 0x16C PUSH2 0x260 JUMP JUMPDEST PUSH1 0x40 MLOAD DUP1 DUP3 ISZERO ISZERO ISZERO ISZERO DUP2 MSTORE PUSH1 0x20 ADD SWAP2 POP POP PUSH1 0x40 MLOAD DUP1 SWAP2 SUB SWAP1 RETURN JUMPDEST CALLVALUE DUP1 ISZERO PUSH2 0x192 JUMPI PUSH1 0x0 DUP1 REVERT JUMPDEST POP PUSH2 0x19B PUSH2 0x273 JUMP JUMPDEST PUSH1 0x40 MLOAD DUP1 DUP3 ISZERO ISZERO ISZERO ISZERO DUP2 MSTORE PUSH1 0x20 ADD SWAP2 POP POP PUSH1 0x40 MLOAD DUP1 SWAP2 SUB SWAP1 RETURN JUMPDEST CALLVALUE DUP1 ISZERO PUSH2 0x1C1 JUMPI PUSH1 0x0 DUP1 REVERT JUMPDEST POP PUSH2 0x1CA PUSH2 0x286 JUMP JUMPDEST PUSH1 0x40 MLOAD DUP1 DUP3 ISZERO ISZERO ISZERO ISZERO DUP2 MSTORE PUSH1 0x20 ADD SWAP2 POP POP PUSH1 0x40 MLOAD DUP1 SWAP2 SUB SWAP1 RETURN JUMPDEST CALLVALUE DUP1 ISZERO PUSH2 0x1F0 JUMPI PUSH1 0x0 DUP1 REVERT JUMPDEST POP PUSH2 0x1F9 PUSH2 0x299 JUMP JUMPDEST PUSH1 0x40 MLOAD DUP1 DUP3 ISZERO ISZERO ISZERO ISZERO DUP2 MSTORE PUSH1 0x20 ADD SWAP2 POP POP PUSH1 0x40 MLOAD DUP1 SWAP2 SUB SWAP1 RETURN JUMPDEST PUSH1 0x0 DUP1 SWAP1 SLOAD SWAP1 PUSH2 0x100 EXP SWAP1 DIV PUSH2 0xFFFF AND DUP2 JUMP JUMPDEST PUSH1 0x0 PUSH1 0x2 SWAP1 SLOAD SWAP1 PUSH2 0x100 EXP SWAP1 DIV PUSH2 0xFFFF AND DUP2 JUMP JUMPDEST PUSH1 0x0 PUSH1 0x5 SWAP1 SLOAD SWAP1 PUSH2 0x100 EXP SWAP1 DIV PUSH1 0xFF AND DUP2 JUMP JUMPDEST PUSH1 0x0 PUSH1 0x4 SWAP1 SLOAD SWAP1 PUSH2 0x100 EXP SWAP1 DIV PUSH1 0xFF AND DUP2 JUMP JUMPDEST PUSH1 0x0 PUSH1 0x7 SWAP1 SLOAD SWAP1 PUSH2 0x100 EXP SWAP1 DIV PUSH1 0xFF AND DUP2 JUMP JUMPDEST PUSH1 0x0 PUSH1 0x9 SWAP1 SLOAD SWAP1 PUSH2 0x100 EXP SWAP1 DIV PUSH1 0xFF AND DUP2 JUMP JUMPDEST PUSH1 0x0 PUSH1 0x8 SWAP1 SLOAD SWAP1 PUSH2 0x100 EXP SWAP1 DIV PUSH1 0xFF AND DUP2 JUMP JUMPDEST PUSH1 0x0 PUSH1 0x6 SWAP1 SLOAD SWAP1 PUSH2 0x100 EXP SWAP1 DIV PUSH1 0xFF AND DUP2 JUMP INVALID LOG1 PUSH6 0x627A7A723058 KECCAK256 PUSH3 0x30A1F1 0xa9 0xb2 BYTE SHL 0x22 TIMESTAMP MSTORE SWAP7 DUP11 MSIZE ADDMOD 0xc2 SSTORE 0x4e SWAP7 SWAP7 0xf9 0x4d 0xc6 RETURN PUSH17 0x3238279B30D02D00290000000000000000 "
				},
				"gasEstimates": {
					"creation": {
						"codeDepositCost": "145600",
						"executionCost": "165925",
						"totalCost": "311525"
					},
					"external": {
						"a()": "442",
						"b()": "514",
						"eq()": "558",
						"gtr()": "646",
						"gtreq()": "624",
						"les()": "580",
						"leseq()": "602",
						"noteq()": "536"
					}
				},
				"methodIdentifiers": {
					"a()": "0dbe671f",
					"b()": "4df7e3d0",
					"eq()": "b5165b60",
					"gtr()": "d10fc104",
					"gtreq()": "bd0a4113",
					"les()": "b612aa97",
					"leseq()": "bc2958e7",
					"noteq()": "6a8a6ab5"
				}
			},
			"userdoc": {
				"methods": {}
			}
		}
	}
}