{
	"Blockchain/Special variables.sol": {
		"SpecialVariablesExample": {
			"abi": [
				{
					"constant": true,
					"inputs": [
						{
							"name": "",
							"type": "address"
						}
					],
					"name": "balances",
					"outputs": [
						{
							"name": "",
							"type": "uint256"
						}
					],
					"payable": false,
					"stateMutability": "view",
					"type": "function"
				},
				{
					"constant": true,
					"inputs": [],
					"name": "getBlockNumber",
					"outputs": [
						{
							"name": "",
							"type": "uint256"
						}
					],
					"payable": false,
					"stateMutability": "view",
					"type": "function"
				},
				{
					"constant": true,
					"inputs": [],
					"name": "getContractBalance",
					"outputs": [
						{
							"name": "",
							"type": "uint256"
						}
					],
					"payable": false,
					"stateMutability": "view",
					"type": "function"
				},
				{
					"constant": true,
					"inputs": [],
					"name": "owner",
					"outputs": [
						{
							"name": "",
							"type": "address"
						}
					],
					"payable": false,
					"stateMutability": "view",
					"type": "function"
				},
				{
					"constant": true,
					"inputs": [],
					"name": "contractCreationTime",
					"outputs": [
						{
							"name": "",
							"type": "uint256"
						}
					],
					"payable": false,
					"stateMutability": "view",
					"type": "function"
				},
				{
					"constant": false,
					"inputs": [],
					"name": "deposit",
					"outputs": [],
					"payable": true,
					"stateMutability": "payable",
					"type": "function"
				},
				{
					"constant": true,
					"inputs": [
						{
							"name": "_seconds",
							"type": "uint256"
						}
					],
					"name": "hasContractBeenActiveFor",
					"outputs": [
						{
							"name": "",
							"type": "bool"
						}
					],
					"payable": false,
					"stateMutability": "view",
					"type": "function"
				},
				{
					"constant": true,
					"inputs": [
						{
							"name": "_user",
							"type": "address"
						}
					],
					"name": "getUserBalanceInEther",
					"outputs": [
						{
							"name": "",
							"type": "uint256"
						}
					],
					"payable": false,
					"stateMutability": "view",
					"type": "function"
				},
				{
					"inputs": [],
					"payable": false,
					"stateMutability": "nonpayable",
					"type": "constructor"
				},
				{
					"anonymous": false,
					"inputs": [
						{
							"indexed": true,
							"name": "user",
							"type": "address"
						},
						{
							"indexed": false,
							"name": "amount",
							"type": "uint256"
						}
					],
					"name": "Deposited",
					"type": "event"
				}
			],
			"devdoc": {
				"methods": {}
			},
			"evm": {
				"assembly": "    /* \"Blockchain/Special variables.sol\":27:1587  contract SpecialVariablesExample {\r... */\n  mstore(0x40, 0x80)\n    /* \"Blockchain/Special variables.sol\":353:542  constructor() public {\r... */\n  callvalue\n    /* \"--CODEGEN--\":8:17   */\n  dup1\n    /* \"--CODEGEN--\":5:7   */\n  iszero\n  tag_1\n  jumpi\n    /* \"--CODEGEN--\":30:31   */\n  0x0\n    /* \"--CODEGEN--\":27:28   */\n  dup1\n    /* \"--CODEGEN--\":20:32   */\n  revert\n    /* \"--CODEGEN--\":5:7   */\ntag_1:\n    /* \"Blockchain/Special variables.sol\":353:542  constructor() public {\r... */\n  pop\n    /* \"Blockchain/Special variables.sol\":393:403  msg.sender */\n  caller\n    /* \"Blockchain/Special variables.sol\":385:390  owner */\n  0x0\n  dup1\n    /* \"Blockchain/Special variables.sol\":385:403  owner = msg.sender */\n  0x100\n  exp\n  dup2\n  sload\n  dup2\n  0xffffffffffffffffffffffffffffffffffffffff\n  mul\n  not\n  and\n  swap1\n  dup4\n  0xffffffffffffffffffffffffffffffffffffffff\n  and\n  mul\n  or\n  swap1\n  sstore\n  pop\n    /* \"Blockchain/Special variables.sol\":478:493  block.timestamp */\n  timestamp\n    /* \"Blockchain/Special variables.sol\":455:475  contractCreationTime */\n  0x1\n    /* \"Blockchain/Special variables.sol\":455:493  contractCreationTime = block.timestamp */\n  dup2\n  swap1\n  sstore\n  pop\n    /* \"Blockchain/Special variables.sol\":27:1587  contract SpecialVariablesExample {\r... */\n  dataSize(sub_0)\n  dup1\n  dataOffset(sub_0)\n  0x0\n  codecopy\n  0x0\n  return\nstop\n\nsub_0: assembly {\n        /* \"Blockchain/Special variables.sol\":27:1587  contract SpecialVariablesExample {\r... */\n      mstore(0x40, 0x80)\n      jumpi(tag_1, lt(calldatasize, 0x4))\n      calldataload(0x0)\n      0x100000000000000000000000000000000000000000000000000000000\n      swap1\n      div\n      0xffffffff\n      and\n      dup1\n      0x27e235e3\n      eq\n      tag_2\n      jumpi\n      dup1\n      0x42cbb15c\n      eq\n      tag_3\n      jumpi\n      dup1\n      0x6f9fb98a\n      eq\n      tag_4\n      jumpi\n      dup1\n      0x8da5cb5b\n      eq\n      tag_5\n      jumpi\n      dup1\n      0xcea3e530\n      eq\n      tag_6\n      jumpi\n      dup1\n      0xd0e30db0\n      eq\n      tag_7\n      jumpi\n      dup1\n      0xd32ccab1\n      eq\n      tag_8\n      jumpi\n      dup1\n      0xdf76c065\n      eq\n      tag_9\n      jumpi\n    tag_1:\n      0x0\n      dup1\n      revert\n        /* \"Blockchain/Special variables.sol\":198:241  mapping(address => uint256) public balances */\n    tag_2:\n      callvalue\n        /* \"--CODEGEN--\":8:17   */\n      dup1\n        /* \"--CODEGEN--\":5:7   */\n      iszero\n      tag_10\n      jumpi\n        /* \"--CODEGEN--\":30:31   */\n      0x0\n        /* \"--CODEGEN--\":27:28   */\n      dup1\n        /* \"--CODEGEN--\":20:32   */\n      revert\n        /* \"--CODEGEN--\":5:7   */\n    tag_10:\n        /* \"Blockchain/Special variables.sol\":198:241  mapping(address => uint256) public balances */\n      pop\n      tag_11\n      0x4\n      dup1\n      calldatasize\n      sub\n        /* \"--CODEGEN--\":13:15   */\n      0x20\n        /* \"--CODEGEN--\":8:11   */\n      dup2\n        /* \"--CODEGEN--\":5:16   */\n      lt\n        /* \"--CODEGEN--\":2:4   */\n      iszero\n      tag_12\n      jumpi\n        /* \"--CODEGEN--\":29:30   */\n      0x0\n        /* \"--CODEGEN--\":26:27   */\n      dup1\n        /* \"--CODEGEN--\":19:31   */\n      revert\n        /* \"--CODEGEN--\":2:4   */\n    tag_12:\n        /* \"Blockchain/Special variables.sol\":198:241  mapping(address => uint256) public balances */\n      dup2\n      add\n      swap1\n      dup1\n      dup1\n      calldataload\n      0xffffffffffffffffffffffffffffffffffffffff\n      and\n      swap1\n      0x20\n      add\n      swap1\n      swap3\n      swap2\n      swap1\n      pop\n      pop\n      pop\n      jump(tag_13)\n    tag_11:\n      mload(0x40)\n      dup1\n      dup3\n      dup2\n      mstore\n      0x20\n      add\n      swap2\n      pop\n      pop\n      mload(0x40)\n      dup1\n      swap2\n      sub\n      swap1\n      return\n        /* \"Blockchain/Special variables.sol\":1490:1584  function getBlockNumber() public view returns (uint256) {\r... */\n    tag_3:\n      callvalue\n        /* \"--CODEGEN--\":8:17   */\n      dup1\n        /* \"--CODEGEN--\":5:7   */\n      iszero\n      tag_14\n      jumpi\n        /* \"--CODEGEN--\":30:31   */\n      0x0\n        /* \"--CODEGEN--\":27:28   */\n      dup1\n        /* \"--CODEGEN--\":20:32   */\n      revert\n        /* \"--CODEGEN--\":5:7   */\n    tag_14:\n        /* \"Blockchain/Special variables.sol\":1490:1584  function getBlockNumber() public view returns (uint256) {\r... */\n      pop\n      tag_15\n      jump(tag_16)\n    tag_15:\n      mload(0x40)\n      dup1\n      dup3\n      dup2\n      mstore\n      0x20\n      add\n      swap2\n      pop\n      pop\n      mload(0x40)\n      dup1\n      swap2\n      sub\n      swap1\n      return\n        /* \"Blockchain/Special variables.sol\":883:990  function getContractBalance() public view returns (uint256) {\r... */\n    tag_4:\n      callvalue\n        /* \"--CODEGEN--\":8:17   */\n      dup1\n        /* \"--CODEGEN--\":5:7   */\n      iszero\n      tag_17\n      jumpi\n        /* \"--CODEGEN--\":30:31   */\n      0x0\n        /* \"--CODEGEN--\":27:28   */\n      dup1\n        /* \"--CODEGEN--\":20:32   */\n      revert\n        /* \"--CODEGEN--\":5:7   */\n    tag_17:\n        /* \"Blockchain/Special variables.sol\":883:990  function getContractBalance() public view returns (uint256) {\r... */\n      pop\n      tag_18\n      jump(tag_19)\n    tag_18:\n      mload(0x40)\n      dup1\n      dup3\n      dup2\n      mstore\n      0x20\n      add\n      swap2\n      pop\n      pop\n      mload(0x40)\n      dup1\n      swap2\n      sub\n      swap1\n      return\n        /* \"Blockchain/Special variables.sol\":67:87  address public owner */\n    tag_5:\n      callvalue\n        /* \"--CODEGEN--\":8:17   */\n      dup1\n        /* \"--CODEGEN--\":5:7   */\n      iszero\n      tag_20\n      jumpi\n        /* \"--CODEGEN--\":30:31   */\n      0x0\n        /* \"--CODEGEN--\":27:28   */\n      dup1\n        /* \"--CODEGEN--\":20:32   */\n      revert\n        /* \"--CODEGEN--\":5:7   */\n    tag_20:\n        /* \"Blockchain/Special variables.sol\":67:87  address public owner */\n      pop\n      tag_21\n      jump(tag_22)\n    tag_21:\n      mload(0x40)\n      dup1\n      dup3\n      0xffffffffffffffffffffffffffffffffffffffff\n      and\n      0xffffffffffffffffffffffffffffffffffffffff\n      and\n      dup2\n      mstore\n      0x20\n      add\n      swap2\n      pop\n      pop\n      mload(0x40)\n      dup1\n      swap2\n      sub\n      swap1\n      return\n        /* \"Blockchain/Special variables.sol\":94:129  uint256 public contractCreationTime */\n    tag_6:\n      callvalue\n        /* \"--CODEGEN--\":8:17   */\n      dup1\n        /* \"--CODEGEN--\":5:7   */\n      iszero\n      tag_23\n      jumpi\n        /* \"--CODEGEN--\":30:31   */\n      0x0\n        /* \"--CODEGEN--\":27:28   */\n      dup1\n        /* \"--CODEGEN--\":20:32   */\n      revert\n        /* \"--CODEGEN--\":5:7   */\n    tag_23:\n        /* \"Blockchain/Special variables.sol\":94:129  uint256 public contractCreationTime */\n      pop\n      tag_24\n      jump(tag_25)\n    tag_24:\n      mload(0x40)\n      dup1\n      dup3\n      dup2\n      mstore\n      0x20\n      add\n      swap2\n      pop\n      pop\n      mload(0x40)\n      dup1\n      swap2\n      sub\n      swap1\n      return\n        /* \"Blockchain/Special variables.sol\":602:819  function deposit() public payable {\r... */\n    tag_7:\n      tag_26\n      jump(tag_27)\n    tag_26:\n      stop\n        /* \"Blockchain/Special variables.sol\":1096:1252  function hasContractBeenActiveFor(uint256 _seconds) public view returns (bool) {\r... */\n    tag_8:\n      callvalue\n        /* \"--CODEGEN--\":8:17   */\n      dup1\n        /* \"--CODEGEN--\":5:7   */\n      iszero\n      tag_28\n      jumpi\n        /* \"--CODEGEN--\":30:31   */\n      0x0\n        /* \"--CODEGEN--\":27:28   */\n      dup1\n        /* \"--CODEGEN--\":20:32   */\n      revert\n        /* \"--CODEGEN--\":5:7   */\n    tag_28:\n        /* \"Blockchain/Special variables.sol\":1096:1252  function hasContractBeenActiveFor(uint256 _seconds) public view returns (bool) {\r... */\n      pop\n      tag_29\n      0x4\n      dup1\n      calldatasize\n      sub\n        /* \"--CODEGEN--\":13:15   */\n      0x20\n        /* \"--CODEGEN--\":8:11   */\n      dup2\n        /* \"--CODEGEN--\":5:16   */\n      lt\n        /* \"--CODEGEN--\":2:4   */\n      iszero\n      tag_30\n      jumpi\n        /* \"--CODEGEN--\":29:30   */\n      0x0\n        /* \"--CODEGEN--\":26:27   */\n      dup1\n        /* \"--CODEGEN--\":19:31   */\n      revert\n        /* \"--CODEGEN--\":2:4   */\n    tag_30:\n        /* \"Blockchain/Special variables.sol\":1096:1252  function hasContractBeenActiveFor(uint256 _seconds) public view returns (bool) {\r... */\n      dup2\n      add\n      swap1\n      dup1\n      dup1\n      calldataload\n      swap1\n      0x20\n      add\n      swap1\n      swap3\n      swap2\n      swap1\n      pop\n      pop\n      pop\n      jump(tag_31)\n    tag_29:\n      mload(0x40)\n      dup1\n      dup3\n      iszero\n      iszero\n      iszero\n      iszero\n      dup2\n      mstore\n      0x20\n      add\n      swap2\n      pop\n      pop\n      mload(0x40)\n      dup1\n      swap2\n      sub\n      swap1\n      return\n        /* \"Blockchain/Special variables.sol\":1314:1441  function getUserBalanceInEther(address _user) public view returns (uint256) {\r... */\n    tag_9:\n      callvalue\n        /* \"--CODEGEN--\":8:17   */\n      dup1\n        /* \"--CODEGEN--\":5:7   */\n      iszero\n      tag_32\n      jumpi\n        /* \"--CODEGEN--\":30:31   */\n      0x0\n        /* \"--CODEGEN--\":27:28   */\n      dup1\n        /* \"--CODEGEN--\":20:32   */\n      revert\n        /* \"--CODEGEN--\":5:7   */\n    tag_32:\n        /* \"Blockchain/Special variables.sol\":1314:1441  function getUserBalanceInEther(address _user) public view returns (uint256) {\r... */\n      pop\n      tag_33\n      0x4\n      dup1\n      calldatasize\n      sub\n        /* \"--CODEGEN--\":13:15   */\n      0x20\n        /* \"--CODEGEN--\":8:11   */\n      dup2\n        /* \"--CODEGEN--\":5:16   */\n      lt\n        /* \"--CODEGEN--\":2:4   */\n      iszero\n      tag_34\n      jumpi\n        /* \"--CODEGEN--\":29:30   */\n      0x0\n        /* \"--CODEGEN--\":26:27   */\n      dup1\n        /* \"--CODEGEN--\":19:31   */\n      revert\n        /* \"--CODEGEN--\":2:4   */\n    tag_34:\n        /* \"Blockchain/Special variables.sol\":1314:1441  function getUserBalanceInEther(address _user) public view returns (uint256) {\r... */\n      dup2\n      add\n      swap1\n      dup1\n      dup1\n      calldataload\n      0xffffffffffffffffffffffffffffffffffffffff\n      and\n      swap1\n      0x20\n      add\n      swap1\n      swap3\n      swap2\n      swap1\n      pop\n      pop\n      pop\n      jump(tag_35)\n    tag_33:\n      mload(0x40)\n      dup1\n      dup3\n      dup2\n      mstore\n      0x20\n      add\n      swap2\n      pop\n      pop\n      mload(0x40)\n      dup1\n      swap2\n      sub\n      swap1\n      return\n        /* \"Blockchain/Special variables.sol\":198:241  mapping(address => uint256) public balances */\n    tag_13:\n      mstore(0x20, 0x2)\n      dup1\n      0x0\n      mstore\n      keccak256(0x0, 0x40)\n      0x0\n      swap2\n      pop\n      swap1\n      pop\n      sload\n      dup2\n      jump\t// out\n        /* \"Blockchain/Special variables.sol\":1490:1584  function getBlockNumber() public view returns (uint256) {\r... */\n    tag_16:\n        /* \"Blockchain/Special variables.sol\":1537:1544  uint256 */\n      0x0\n        /* \"Blockchain/Special variables.sol\":1564:1576  block.number */\n      number\n        /* \"Blockchain/Special variables.sol\":1557:1576  return block.number */\n      swap1\n      pop\n        /* \"Blockchain/Special variables.sol\":1490:1584  function getBlockNumber() public view returns (uint256) {\r... */\n      swap1\n      jump\t// out\n        /* \"Blockchain/Special variables.sol\":883:990  function getContractBalance() public view returns (uint256) {\r... */\n    tag_19:\n        /* \"Blockchain/Special variables.sol\":934:941  uint256 */\n      0x0\n        /* \"Blockchain/Special variables.sol\":969:973  this */\n      address\n        /* \"Blockchain/Special variables.sol\":961:982  address(this).balance */\n      0xffffffffffffffffffffffffffffffffffffffff\n      and\n      balance\n        /* \"Blockchain/Special variables.sol\":954:982  return address(this).balance */\n      swap1\n      pop\n        /* \"Blockchain/Special variables.sol\":883:990  function getContractBalance() public view returns (uint256) {\r... */\n      swap1\n      jump\t// out\n        /* \"Blockchain/Special variables.sol\":67:87  address public owner */\n    tag_22:\n      0x0\n      dup1\n      swap1\n      sload\n      swap1\n      0x100\n      exp\n      swap1\n      div\n      0xffffffffffffffffffffffffffffffffffffffff\n      and\n      dup2\n      jump\t// out\n        /* \"Blockchain/Special variables.sol\":94:129  uint256 public contractCreationTime */\n    tag_25:\n      sload(0x1)\n      dup2\n      jump\t// out\n        /* \"Blockchain/Special variables.sol\":602:819  function deposit() public payable {\r... */\n    tag_27:\n        /* \"Blockchain/Special variables.sol\":667:668  0 */\n      0x0\n        /* \"Blockchain/Special variables.sol\":655:664  msg.value */\n      callvalue\n        /* \"Blockchain/Special variables.sol\":655:668  msg.value > 0 */\n      gt\n        /* \"Blockchain/Special variables.sol\":647:688  require(msg.value > 0, \"Must send ether\") */\n      iszero\n      iszero\n      tag_39\n      jumpi\n      mload(0x40)\n      0x8c379a000000000000000000000000000000000000000000000000000000000\n      dup2\n      mstore\n      0x4\n      add\n      dup1\n      dup1\n      0x20\n      add\n      dup3\n      dup2\n      sub\n      dup3\n      mstore\n      0xf\n      dup2\n      mstore\n      0x20\n      add\n      dup1\n      0x4d7573742073656e642065746865720000000000000000000000000000000000\n      dup2\n      mstore\n      pop\n      0x20\n      add\n      swap2\n      pop\n      pop\n      mload(0x40)\n      dup1\n      swap2\n      sub\n      swap1\n      revert\n    tag_39:\n        /* \"Blockchain/Special variables.sol\":723:732  msg.value */\n      callvalue\n        /* \"Blockchain/Special variables.sol\":699:707  balances */\n      0x2\n        /* \"Blockchain/Special variables.sol\":699:719  balances[msg.sender] */\n      0x0\n        /* \"Blockchain/Special variables.sol\":708:718  msg.sender */\n      caller\n        /* \"Blockchain/Special variables.sol\":699:719  balances[msg.sender] */\n      0xffffffffffffffffffffffffffffffffffffffff\n      and\n      0xffffffffffffffffffffffffffffffffffffffff\n      and\n      dup2\n      mstore\n      0x20\n      add\n      swap1\n      dup2\n      mstore\n      0x20\n      add\n      0x0\n      keccak256\n      0x0\n        /* \"Blockchain/Special variables.sol\":699:732  balances[msg.sender] += msg.value */\n      dup3\n      dup3\n      sload\n      add\n      swap3\n      pop\n      pop\n      dup2\n      swap1\n      sstore\n      pop\n        /* \"Blockchain/Special variables.sol\":789:799  msg.sender */\n      caller\n        /* \"Blockchain/Special variables.sol\":779:811  Deposited(msg.sender, msg.value) */\n      0xffffffffffffffffffffffffffffffffffffffff\n      and\n      0x2da466a7b24304f47e87fa2e1e5a81b9831ce54fec19055ce277ca2f39ba42c4\n        /* \"Blockchain/Special variables.sol\":801:810  msg.value */\n      callvalue\n        /* \"Blockchain/Special variables.sol\":779:811  Deposited(msg.sender, msg.value) */\n      mload(0x40)\n      dup1\n      dup3\n      dup2\n      mstore\n      0x20\n      add\n      swap2\n      pop\n      pop\n      mload(0x40)\n      dup1\n      swap2\n      sub\n      swap1\n      log2\n        /* \"Blockchain/Special variables.sol\":602:819  function deposit() public payable {\r... */\n      jump\t// out\n        /* \"Blockchain/Special variables.sol\":1096:1252  function hasContractBeenActiveFor(uint256 _seconds) public view returns (bool) {\r... */\n    tag_31:\n        /* \"Blockchain/Special variables.sol\":1169:1173  bool */\n      0x0\n        /* \"Blockchain/Special variables.sol\":1236:1244  _seconds */\n      dup2\n        /* \"Blockchain/Special variables.sol\":1212:1232  contractCreationTime */\n      sload(0x1)\n        /* \"Blockchain/Special variables.sol\":1194:1209  block.timestamp */\n      timestamp\n        /* \"Blockchain/Special variables.sol\":1194:1232  block.timestamp - contractCreationTime */\n      sub\n        /* \"Blockchain/Special variables.sol\":1193:1244  (block.timestamp - contractCreationTime) > _seconds */\n      gt\n        /* \"Blockchain/Special variables.sol\":1186:1244  return (block.timestamp - contractCreationTime) > _seconds */\n      swap1\n      pop\n        /* \"Blockchain/Special variables.sol\":1096:1252  function hasContractBeenActiveFor(uint256 _seconds) public view returns (bool) {\r... */\n      swap2\n      swap1\n      pop\n      jump\t// out\n        /* \"Blockchain/Special variables.sol\":1314:1441  function getUserBalanceInEther(address _user) public view returns (uint256) {\r... */\n    tag_35:\n        /* \"Blockchain/Special variables.sol\":1381:1388  uint256 */\n      0x0\n        /* \"Blockchain/Special variables.sol\":1426:1433  1 ether */\n      0xde0b6b3a7640000\n        /* \"Blockchain/Special variables.sol\":1408:1416  balances */\n      0x2\n        /* \"Blockchain/Special variables.sol\":1408:1423  balances[_user] */\n      0x0\n        /* \"Blockchain/Special variables.sol\":1417:1422  _user */\n      dup5\n        /* \"Blockchain/Special variables.sol\":1408:1423  balances[_user] */\n      0xffffffffffffffffffffffffffffffffffffffff\n      and\n      0xffffffffffffffffffffffffffffffffffffffff\n      and\n      dup2\n      mstore\n      0x20\n      add\n      swap1\n      dup2\n      mstore\n      0x20\n      add\n      0x0\n      keccak256\n      sload\n        /* \"Blockchain/Special variables.sol\":1408:1433  balances[_user] / 1 ether */\n      dup2\n      iszero\n      iszero\n      tag_42\n      jumpi\n      invalid\n    tag_42:\n      div\n        /* \"Blockchain/Special variables.sol\":1401:1433  return balances[_user] / 1 ether */\n      swap1\n      pop\n        /* \"Blockchain/Special variables.sol\":1314:1441  function getUserBalanceInEther(address _user) public view returns (uint256) {\r... */\n      swap2\n      swap1\n      pop\n      jump\t// out\n\n    auxdata: 0xa165627a7a723058205e2aaf81e9d628e12de5430c1257653122e5959e9b4d4318df6e24ea8bb416570029\n}\n",
				"bytecode": {
					"linkReferences": {},
					"object": "608060405234801561001057600080fd5b50336000806101000a81548173ffffffffffffffffffffffffffffffffffffffff021916908373ffffffffffffffffffffffffffffffffffffffff160217905550426001819055506104a9806100676000396000f3fe60806040526004361061008e576000357c0100000000000000000000000000000000000000000000000000000000900463ffffffff16806327e235e31461009357806342cbb15c146100f85780636f9fb98a146101235780638da5cb5b1461014e578063cea3e530146101a5578063d0e30db0146101d0578063d32ccab1146101da578063df76c0651461022d575b600080fd5b34801561009f57600080fd5b506100e2600480360360208110156100b657600080fd5b81019080803573ffffffffffffffffffffffffffffffffffffffff169060200190929190505050610292565b6040518082815260200191505060405180910390f35b34801561010457600080fd5b5061010d6102aa565b6040518082815260200191505060405180910390f35b34801561012f57600080fd5b506101386102b2565b6040518082815260200191505060405180910390f35b34801561015a57600080fd5b506101636102d1565b604051808273ffffffffffffffffffffffffffffffffffffffff1673ffffffffffffffffffffffffffffffffffffffff16815260200191505060405180910390f35b3480156101b157600080fd5b506101ba6102f6565b6040518082815260200191505060405180910390f35b6101d86102fc565b005b3480156101e657600080fd5b50610213600480360360208110156101fd57600080fd5b8101908080359060200190929190505050610411565b604051808215151515815260200191505060405180910390f35b34801561023957600080fd5b5061027c6004803603602081101561025057600080fd5b81019080803573ffffffffffffffffffffffffffffffffffffffff169060200190929190505050610421565b6040518082815260200191505060405180910390f35b60026020528060005260406000206000915090505481565b600043905090565b60003073ffffffffffffffffffffffffffffffffffffffff1631905090565b6000809054906101000a900473ffffffffffffffffffffffffffffffffffffffff1681565b60015481565b600034111515610374576040517f08c379a000000000000000000000000000000000000000000000000000000000815260040180806020018281038252600f8152602001807f4d7573742073656e64206574686572000000000000000000000000000000000081525060200191505060405180910390fd5b34600260003373ffffffffffffffffffffffffffffffffffffffff1673ffffffffffffffffffffffffffffffffffffffff168152602001908152602001600020600082825401925050819055503373ffffffffffffffffffffffffffffffffffffffff167f2da466a7b24304f47e87fa2e1e5a81b9831ce54fec19055ce277ca2f39ba42c4346040518082815260200191505060405180910390a2565b6000816001544203119050919050565b6000670de0b6b3a7640000600260008473ffffffffffffffffffffffffffffffffffffffff1673ffffffffffffffffffffffffffffffffffffffff1681526020019081526020016000205481151561047557fe5b04905091905056fea165627a7a723058205e2aaf81e9d628e12de5430c1257653122e5959e9b4d4318df6e24ea8bb416570029",
					"opcodes": "PUSH1 0x80 PUSH1 0x40 MSTORE CALLVALUE DUP1 ISZERO PUSH2 0x10 JUMPI PUSH1 0x0 DUP1 REVERT JUMPDEST POP CALLER PUSH1 0x0 DUP1 PUSH2 0x100 EXP DUP2 SLOAD DUP2 PUSH20 0xFFFFFFFFFFFFFFFFFFFFFFFFFFFFFFFFFFFFFFFF MUL NOT AND SWAP1 DUP4 PUSH20 0xFFFFFFFFFFFFFFFFFFFFFFFFFFFFFFFFFFFFFFFF AND MUL OR SWAP1 SSTORE POP TIMESTAMP PUSH1 0x1 DUP2 SWAP1 SSTORE POP PUSH2 0x4A9 DUP1 PUSH2 0x67 PUSH1 0x0 CODECOPY PUSH1 0x0 RETURN INVALID PUSH1 0x80 PUSH1 0x40 MSTORE PUSH1 0x4 CALLDATASIZE LT PUSH2 0x8E JUMPI PUSH1 0x0 CALLDATALOAD PUSH29 0x100000000000000000000000000000000000000000000000000000000 SWAP1 DIV PUSH4 0xFFFFFFFF AND DUP1 PUSH4 0x27E235E3 EQ PUSH2 0x93 JUMPI DUP1 PUSH4 0x42CBB15C EQ PUSH2 0xF8 JUMPI DUP1 PUSH4 0x6F9FB98A EQ PUSH2 0x123 JUMPI DUP1 PUSH4 0x8DA5CB5B EQ PUSH2 0x14E JUMPI DUP1 PUSH4 0xCEA3E530 EQ PUSH2 0x1A5 JUMPI DUP1 PUSH4 0xD0E30DB0 EQ PUSH2 0x1D0 JUMPI DUP1 PUSH4 0xD32CCAB1 EQ PUSH2 0x1DA JUMPI DUP1 PUSH4 0xDF76C065 EQ PUSH2 0x22D JUMPI JUMPDEST PUSH1 0x0 DUP1 REVERT JUMPDEST CALLVALUE DUP1 ISZERO PUSH2 0x9F JUMPI PUSH1 0x0 DUP1 REVERT JUMPDEST POP PUSH2 0xE2 PUSH1 0x4 DUP1 CALLDATASIZE SUB PUSH1 0x20 DUP2 LT ISZERO PUSH2 0xB6 JUMPI PUSH1 0x0 DUP1 REVERT JUMPDEST DUP2 ADD SWAP1 DUP1 DUP1 CALLDATALOAD PUSH20 0xFFFFFFFFFFFFFFFFFFFFFFFFFFFFFFFFFFFFFFFF AND SWAP1 PUSH1 0x20 ADD SWAP1 SWAP3 SWAP2 SWAP1 POP POP POP PUSH2 0x292 JUMP JUMPDEST PUSH1 0x40 MLOAD DUP1 DUP3 DUP2 MSTORE PUSH1 0x20 ADD SWAP2 POP POP PUSH1 0x40 MLOAD DUP1 SWAP2 SUB SWAP1 RETURN JUMPDEST CALLVALUE DUP1 ISZERO PUSH2 0x104 JUMPI PUSH1 0x0 DUP1 REVERT JUMPDEST POP PUSH2 0x10D PUSH2 0x2AA JUMP JUMPDEST PUSH1 0x40 MLOAD DUP1 DUP3 DUP2 MSTORE PUSH1 0x20 ADD SWAP2 POP POP PUSH1 0x40 MLOAD DUP1 SWAP2 SUB SWAP1 RETURN JUMPDEST CALLVALUE DUP1 ISZERO PUSH2 0x12F JUMPI PUSH1 0x0 DUP1 REVERT JUMPDEST POP PUSH2 0x138 PUSH2 0x2B2 JUMP JUMPDEST PUSH1 0x40 MLOAD DUP1 DUP3 DUP2 MSTORE PUSH1 0x20 ADD SWAP2 POP POP PUSH1 0x40 MLOAD DUP1 SWAP2 SUB SWAP1 RETURN JUMPDEST CALLVALUE DUP1 ISZERO PUSH2 0x15A JUMPI PUSH1 0x0 DUP1 REVERT JUMPDEST POP PUSH2 0x163 PUSH2 0x2D1 JUMP JUMPDEST PUSH1 0x40 MLOAD DUP1 DUP3 PUSH20 0xFFFFFFFFFFFFFFFFFFFFFFFFFFFFFFFFFFFFFFFF AND PUSH20 0xFFFFFFFFFFFFFFFFFFFFFFFFFFFFFFFFFFFFFFFF AND DUP2 MSTORE PUSH1 0x20 ADD SWAP2 POP POP PUSH1 0x40 MLOAD DUP1 SWAP2 SUB SWAP1 RETURN JUMPDEST CALLVALUE DUP1 ISZERO PUSH2 0x1B1 JUMPI PUSH1 0x0 DUP1 REVERT JUMPDEST POP PUSH2 0x1BA PUSH2 0x2F6 JUMP JUMPDEST PUSH1 0x40 MLOAD DUP1 DUP3 DUP2 MSTORE PUSH1 0x20 ADD SWAP2 POP POP PUSH1 0x40 MLOAD DUP1 SWAP2 SUB SWAP1 RETURN JUMPDEST PUSH2 0x1D8 PUSH2 0x2FC JUMP JUMPDEST STOP JUMPDEST CALLVALUE DUP1 ISZERO PUSH2 0x1E6 JUMPI PUSH1 0x0 DUP1 REVERT JUMPDEST POP PUSH2 0x213 PUSH1 0x4 DUP1 CALLDATASIZE SUB PUSH1 0x20 DUP2 LT ISZERO PUSH2 0x1FD JUMPI PUSH1 0x0 DUP1 REVERT JUMPDEST DUP2 ADD SWAP1 DUP1 DUP1 CALLDATALOAD SWAP1 PUSH1 0x20 ADD SWAP1 SWAP3 SWAP2 SWAP1 POP POP POP PUSH2 0x411 JUMP JUMPDEST PUSH1 0x40 MLOAD DUP1 DUP3 ISZERO ISZERO ISZERO ISZERO DUP2 MSTORE PUSH1 0x20 ADD SWAP2 POP POP PUSH1 0x40 MLOAD DUP1 SWAP2 SUB SWAP1 RETURN JUMPDEST CALLVALUE DUP1 ISZERO PUSH2 0x239 JUMPI PUSH1 0x0 DUP1 REVERT JUMPDEST POP PUSH2 0x27C PUSH1 0x4 DUP1 CALLDATASIZE SUB PUSH1 0x20 DUP2 LT ISZERO PUSH2 0x250 JUMPI PUSH1 0x0 DUP1 REVERT JUMPDEST DUP2 ADD SWAP1 DUP1 DUP1 CALLDATALOAD PUSH20 0xFFFFFFFFFFFFFFFFFFFFFFFFFFFFFFFFFFFFFFFF AND SWAP1 PUSH1 0x20 ADD SWAP1 SWAP3 SWAP2 SWAP1 POP POP POP PUSH2 0x421 JUMP JUMPDEST PUSH1 0x40 MLOAD DUP1 DUP3 DUP2 MSTORE PUSH1 0x20 ADD SWAP2 POP POP PUSH1 0x40 MLOAD DUP1 SWAP2 SUB SWAP1 RETURN JUMPDEST PUSH1 0x2 PUSH1 0x20 MSTORE DUP1 PUSH1 0x0 MSTORE PUSH1 0x40 PUSH1 0x0 KECCAK256 PUSH1 0x0 SWAP2 POP SWAP1 POP SLOAD DUP2 JUMP JUMPDEST PUSH1 0x0 NUMBER SWAP1 POP SWAP1 JUMP JUMPDEST PUSH1 0x0 ADDRESS PUSH20 0xFFFFFFFFFFFFFFFFFFFFFFFFFFFFFFFFFFFFFFFF AND BALANCE SWAP1 POP SWAP1 JUMP JUMPDEST PUSH1 0x0 DUP1 SWAP1 SLOAD SWAP1 PUSH2 0x100 EXP SWAP1 DIV PUSH20 0xFFFFFFFFFFFFFFFFFFFFFFFFFFFFFFFFFFFFFFFF AND DUP2 JUMP JUMPDEST PUSH1 0x1 SLOAD DUP2 JUMP JUMPDEST PUSH1 0x0 CALLVALUE GT ISZERO ISZERO PUSH2 0x374 JUMPI PUSH1 0x40 MLOAD PUSH32 0x8C379A000000000000000000000000000000000000000000000000000000000 DUP2 MSTORE PUSH1 0x4 ADD DUP1 DUP1 PUSH1 0x20 ADD DUP3 DUP2 SUB DUP3 MSTORE PUSH1 0xF DUP2 MSTORE PUSH1 0x20 ADD DUP1 PUSH32 0x4D7573742073656E642065746865720000000000000000000000000000000000 DUP2 MSTORE POP PUSH1 0x20 ADD SWAP2 POP POP PUSH1 0x40 MLOAD DUP1 SWAP2 SUB SWAP1 REVERT JUMPDEST CALLVALUE PUSH1 0x2 PUSH1 0x0 CALLER PUSH20 0xFFFFFFFFFFFFFFFFFFFFFFFFFFFFFFFFFFFFFFFF AND PUSH20 0xFFFFFFFFFFFFFFFFFFFFFFFFFFFFFFFFFFFFFFFF AND DUP2 MSTORE PUSH1 0x20 ADD SWAP1 DUP2 MSTORE PUSH1 0x20 ADD PUSH1 0x0 KECCAK256 PUSH1 0x0 DUP3 DUP3 SLOAD ADD SWAP3 POP POP DUP2 SWAP1 SSTORE POP CALLER PUSH20 0xFFFFFFFFFFFFFFFFFFFFFFFFFFFFFFFFFFFFFFFF AND PUSH32 0x2DA466A7B24304F47E87FA2E1E5A81B9831CE54FEC19055CE277CA2F39BA42C4 CALLVALUE PUSH1 0x40 MLOAD DUP1 DUP3 DUP2 MSTORE PUSH1 0x20 ADD SWAP2 POP POP PUSH1 0x40 MLOAD DUP1 SWAP2 SUB SWAP1 LOG2 JUMP JUMPDEST PUSH1 0x0 DUP2 PUSH1 0x1 SLOAD TIMESTAMP SUB GT SWAP1 POP SWAP2 SWAP1 POP JUMP JUMPDEST PUSH1 0x0 PUSH8 0xDE0B6B3A7640000 PUSH1 0x2 PUSH1 0x0 DUP5 PUSH20 0xFFFFFFFFFFFFFFFFFFFFFFFFFFFFFFFFFFFFFFFF AND PUSH20 0xFFFFFFFFFFFFFFFFFFFFFFFFFFFFFFFFFFFFFFFF AND DUP2 MSTORE PUSH1 0x20 ADD SWAP1 DUP2 MSTORE PUSH1 0x20 ADD PUSH1 0x0 KECCAK256 SLOAD DUP2 ISZERO ISZERO PUSH2 0x475 JUMPI INVALID JUMPDEST DIV SWAP1 POP SWAP2 SWAP1 POP JUMP INVALID LOG1 PUSH6 0x627A7A723058 KECCAK256 0x5e 0x2a 0xaf DUP2 0xe9 0xd6 0x28 0xe1 0x2d 0xe5 NUMBER 0xc SLT JUMPI PUSH6 0x3122E5959E9B 0x4d NUMBER XOR 0xdf PUSH15 0x24EA8BB41657002900000000000000 "
				},
				"gasEstimates": {
					"creation": {
						"codeDepositCost": "238600",
						"executionCost": "40560",
						"totalCost": "279160"
					},
					"external": {
						"balances(address)": "558",
						"contractCreationTime()": "482",
						"deposit()": "22017",
						"getBlockNumber()": "223",
						"getContractBalance()": "651",
						"getUserBalanceInEther(address)": "770",
						"hasContractBeenActiveFor(uint256)": "644",
						"owner()": "508"
					}
				},
				"methodIdentifiers": {
					"balances(address)": "27e235e3",
					"contractCreationTime()": "cea3e530",
					"deposit()": "d0e30db0",
					"getBlockNumber()": "42cbb15c",
					"getContractBalance()": "6f9fb98a",
					"getUserBalanceInEther(address)": "df76c065",
					"hasContractBeenActiveFor(uint256)": "d32ccab1",
					"owner()": "8da5cb5b"
				}
			},
			"userdoc": {
				"methods": {}
			}
		}
	}
}