{
	"Blockchain/sum.sol": {
		"Sum": {
			"abi": [
				{
					"constant": true,
					"inputs": [
						{
							"name": "_data",
							"type": "uint256[]"
						}
					],
					"name": "sumUsingInlineAssembly",
					"outputs": [
						{
							"name": "o_sum",
							"type": "uint256"
						}
					],
					"payable": false,
					"stateMutability": "view",
					"type": "function"
				}
			],
			"devdoc": {
				"methods": {}
			},
			"evm": {
				"assembly": "    /* \"Blockchain/sum.sol\":27:726  library Sum {\r... */\n  dataSize(sub_0)\n  dataOffset(sub_0)\n    /* \"--CODEGEN--\":132:134   */\n  0xb\n    /* \"--CODEGEN--\":166:173   */\n  dup3\n    /* \"--CODEGEN--\":155:164   */\n  dup3\n    /* \"--CODEGEN--\":146:153   */\n  dup3\n    /* \"--CODEGEN--\":137:174   */\n  codecopy\n    /* \"--CODEGEN--\":252:259   */\n  dup1\n    /* \"--CODEGEN--\":246:260   */\n  mload\n    /* \"--CODEGEN--\":243:244   */\n  0x0\n    /* \"--CODEGEN--\":238:261   */\n  byte\n    /* \"--CODEGEN--\":232:236   */\n  0x73\n    /* \"--CODEGEN--\":229:262   */\n  eq\n    /* \"--CODEGEN--\":270:271   */\n  0x0\n    /* \"--CODEGEN--\":265:285   */\n  dup2\n  eq\n  tag_2\n  jumpi\n    /* \"--CODEGEN--\":222:285   */\n  jump(tag_1)\n    /* \"--CODEGEN--\":265:285   */\ntag_2:\n    /* \"--CODEGEN--\":274:283   */\n  invalid\n    /* \"--CODEGEN--\":222:285   */\ntag_1:\n  pop\n    /* \"--CODEGEN--\":298:307   */\n  address\n    /* \"--CODEGEN--\":295:296   */\n  0x0\n    /* \"--CODEGEN--\":288:308   */\n  mstore\n    /* \"--CODEGEN--\":328:332   */\n  0x73\n    /* \"--CODEGEN--\":319:326   */\n  dup2\n    /* \"--CODEGEN--\":311:333   */\n  mstore8\n    /* \"--CODEGEN--\":352:359   */\n  dup3\n    /* \"--CODEGEN--\":343:350   */\n  dup2\n    /* \"--CODEGEN--\":336:360   */\n  return\nstop\n\nsub_0: assembly {\n        /* \"Blockchain/sum.sol\":27:726  library Sum {\r... */\n      eq(address, deployTimeAddress())\n      mstore(0x40, 0x80)\n      jumpi(tag_1, lt(calldatasize, 0x4))\n      calldataload(0x0)\n      0x100000000000000000000000000000000000000000000000000000000\n      swap1\n      div\n      0xffffffff\n      and\n      dup1\n      0x87fbcc77\n      eq\n      tag_2\n      jumpi\n    tag_1:\n      0x0\n      dup1\n      revert\n        /* \"Blockchain/sum.sol\":46:723  function sumUsingInlineAssembly(uint[] memory _data) public pure returns (uint o_sum) {\r... */\n    tag_2:\n      tag_3\n      0x4\n      dup1\n      calldatasize\n      sub\n        /* \"--CODEGEN--\":13:15   */\n      0x20\n        /* \"--CODEGEN--\":8:11   */\n      dup2\n        /* \"--CODEGEN--\":5:16   */\n      lt\n        /* \"--CODEGEN--\":2:4   */\n      iszero\n      tag_4\n      jumpi\n        /* \"--CODEGEN--\":29:30   */\n      0x0\n        /* \"--CODEGEN--\":26:27   */\n      dup1\n        /* \"--CODEGEN--\":19:31   */\n      revert\n        /* \"--CODEGEN--\":2:4   */\n    tag_4:\n        /* \"Blockchain/sum.sol\":46:723  function sumUsingInlineAssembly(uint[] memory _data) public pure returns (uint o_sum) {\r... */\n      dup2\n      add\n      swap1\n      dup1\n      dup1\n      calldataload\n      swap1\n      0x20\n      add\n      swap1\n        /* \"--CODEGEN--\":21:32   */\n      0x100000000\n        /* \"--CODEGEN--\":8:19   */\n      dup2\n        /* \"--CODEGEN--\":5:33   */\n      gt\n        /* \"--CODEGEN--\":2:4   */\n      iszero\n      tag_5\n      jumpi\n        /* \"--CODEGEN--\":46:47   */\n      0x0\n        /* \"--CODEGEN--\":43:44   */\n      dup1\n        /* \"--CODEGEN--\":36:48   */\n      revert\n        /* \"--CODEGEN--\":2:4   */\n    tag_5:\n        /* \"Blockchain/sum.sol\":46:723  function sumUsingInlineAssembly(uint[] memory _data) public pure returns (uint o_sum) {\r... */\n      dup3\n      add\n        /* \"--CODEGEN--\":35:44   */\n      dup4\n        /* \"--CODEGEN--\":28:32   */\n      0x20\n        /* \"--CODEGEN--\":12:26   */\n      dup3\n        /* \"--CODEGEN--\":8:33   */\n      add\n        /* \"--CODEGEN--\":5:45   */\n      gt\n        /* \"--CODEGEN--\":2:4   */\n      iszero\n      tag_6\n      jumpi\n        /* \"--CODEGEN--\":58:59   */\n      0x0\n        /* \"--CODEGEN--\":55:56   */\n      dup1\n        /* \"--CODEGEN--\":48:60   */\n      revert\n        /* \"--CODEGEN--\":2:4   */\n    tag_6:\n        /* \"Blockchain/sum.sol\":46:723  function sumUsingInlineAssembly(uint[] memory _data) public pure returns (uint o_sum) {\r... */\n      dup1\n      calldataload\n      swap1\n      0x20\n      add\n      swap2\n        /* \"--CODEGEN--\":101:110   */\n      dup5\n        /* \"--CODEGEN--\":95:97   */\n      0x20\n        /* \"--CODEGEN--\":81:93   */\n      dup4\n        /* \"--CODEGEN--\":77:98   */\n      mul\n        /* \"--CODEGEN--\":67:75   */\n      dup5\n        /* \"--CODEGEN--\":63:99   */\n      add\n        /* \"--CODEGEN--\":60:111   */\n      gt\n        /* \"--CODEGEN--\":39:50   */\n      0x100000000\n        /* \"--CODEGEN--\":25:37   */\n      dup4\n        /* \"--CODEGEN--\":22:51   */\n      gt\n        /* \"--CODEGEN--\":11:119   */\n      or\n        /* \"--CODEGEN--\":8:10   */\n      iszero\n      tag_7\n      jumpi\n        /* \"--CODEGEN--\":132:133   */\n      0x0\n        /* \"--CODEGEN--\":129:130   */\n      dup1\n        /* \"--CODEGEN--\":122:134   */\n      revert\n        /* \"--CODEGEN--\":8:10   */\n    tag_7:\n        /* \"Blockchain/sum.sol\":46:723  function sumUsingInlineAssembly(uint[] memory _data) public pure returns (uint o_sum) {\r... */\n      swap2\n      swap1\n      dup1\n      dup1\n      0x20\n      mul\n      0x20\n      add\n      mload(0x40)\n      swap1\n      dup2\n      add\n      0x40\n      mstore\n      dup1\n      swap4\n      swap3\n      swap2\n      swap1\n      dup2\n      dup2\n      mstore\n      0x20\n      add\n      dup4\n      dup4\n      0x20\n      mul\n        /* \"--CODEGEN--\":30:33   */\n      dup1\n        /* \"--CODEGEN--\":22:28   */\n      dup3\n        /* \"--CODEGEN--\":14:20   */\n      dup5\n        /* \"--CODEGEN--\":1:34   */\n      calldatacopy\n        /* \"--CODEGEN--\":99:100   */\n      0x0\n        /* \"--CODEGEN--\":93:96   */\n      dup2\n        /* \"--CODEGEN--\":85:91   */\n      dup5\n        /* \"--CODEGEN--\":81:97   */\n      add\n        /* \"--CODEGEN--\":74:101   */\n      mstore\n        /* \"--CODEGEN--\":137:141   */\n      0x1f\n        /* \"--CODEGEN--\":133:142   */\n      not\n        /* \"--CODEGEN--\":126:130   */\n      0x1f\n        /* \"--CODEGEN--\":121:124   */\n      dup3\n        /* \"--CODEGEN--\":117:131   */\n      add\n        /* \"--CODEGEN--\":113:143   */\n      and\n        /* \"--CODEGEN--\":106:143   */\n      swap1\n      pop\n        /* \"--CODEGEN--\":169:172   */\n      dup1\n        /* \"--CODEGEN--\":161:167   */\n      dup4\n        /* \"--CODEGEN--\":157:173   */\n      add\n        /* \"--CODEGEN--\":147:173   */\n      swap3\n      pop\n        /* \"Blockchain/sum.sol\":46:723  function sumUsingInlineAssembly(uint[] memory _data) public pure returns (uint o_sum) {\r... */\n      pop\n      pop\n      pop\n      pop\n      pop\n      pop\n      swap2\n      swap3\n      swap2\n      swap3\n      swap1\n      pop\n      pop\n      pop\n      jump(tag_8)\n    tag_3:\n      mload(0x40)\n      dup1\n      dup3\n      dup2\n      mstore\n      0x20\n      add\n      swap2\n      pop\n      pop\n      mload(0x40)\n      dup1\n      swap2\n      sub\n      swap1\n      return\n    tag_8:\n        /* \"Blockchain/sum.sol\":120:130  uint o_sum */\n      0x0\n        /* \"Blockchain/sum.sol\":229:234  _data */\n      dup2\n        /* \"Blockchain/sum.sol\":223:235  mload(_data) */\n      mload\n        /* \"Blockchain/sum.sol\":312:313  0 */\n      0x0\n        /* \"Blockchain/sum.sol\":303:313  o_sum := 0 */\n      swap2\n      pop\n        /* \"Blockchain/sum.sol\":429:433  0x20 */\n      0x20\n        /* \"Blockchain/sum.sol\":424:427  len */\n      dup2\n        /* \"Blockchain/sum.sol\":420:434  mul(len, 0x20) */\n      mul\n        /* \"Blockchain/sum.sol\":413:418  _data */\n      dup4\n        /* \"Blockchain/sum.sol\":409:435  add(_data, mul(len, 0x20)) */\n      add\n        /* \"Blockchain/sum.sol\":471:475  0x20 */\n      0x20\n        /* \"Blockchain/sum.sol\":464:469  _data */\n      dup5\n        /* \"Blockchain/sum.sol\":460:476  add(_data, 0x20) */\n      add\n        /* \"Blockchain/sum.sol\":546:705  for {} lt(ptr, end) { ptr := add(ptr, 0x20) } {\r... */\n    tag_10:\n        /* \"Blockchain/sum.sol\":561:564  end */\n      dup2\n        /* \"Blockchain/sum.sol\":556:559  ptr */\n      dup2\n        /* \"Blockchain/sum.sol\":553:565  lt(ptr, end) */\n      lt\n        /* \"Blockchain/sum.sol\":546:705  for {} lt(ptr, end) { ptr := add(ptr, 0x20) } {\r... */\n      iszero\n      tag_11\n      jumpi\n        /* \"Blockchain/sum.sol\":685:688  ptr */\n      dup1\n        /* \"Blockchain/sum.sol\":679:689  mload(ptr) */\n      mload\n        /* \"Blockchain/sum.sol\":672:677  o_sum */\n      dup5\n        /* \"Blockchain/sum.sol\":668:690  add(o_sum, mload(ptr)) */\n      add\n        /* \"Blockchain/sum.sol\":659:690  o_sum := add(o_sum, mload(ptr)) */\n      swap4\n      pop\n        /* \"Blockchain/sum.sol\":584:588  0x20 */\n      0x20\n        /* \"Blockchain/sum.sol\":579:582  ptr */\n      dup2\n        /* \"Blockchain/sum.sol\":575:589  add(ptr, 0x20) */\n      add\n        /* \"Blockchain/sum.sol\":568:589  ptr := add(ptr, 0x20) */\n      swap1\n      pop\n        /* \"Blockchain/sum.sol\":546:705  for {} lt(ptr, end) { ptr := add(ptr, 0x20) } {\r... */\n      jump(tag_10)\n    tag_11:\n        /* \"Blockchain/sum.sol\":152:716  {\r... */\n      pop\n      pop\n      pop\n      swap2\n      swap1\n      pop\n      jump\t// out\n\n    auxdata: 0xa165627a7a723058206d398fdb17ea9e07a284818184c6665f5608ad5a2c6c3fd0c1e27b30fe9561940029\n}\n",
				"bytecode": {
					"linkReferences": {},
					"object": "610189610030600b82828239805160001a6073146000811461002057610022565bfe5b5030600052607381538281f3fe7300000000000000000000000000000000000000003014608060405260043610610058576000357c0100000000000000000000000000000000000000000000000000000000900463ffffffff16806387fbcc771461005d575b600080fd5b6101136004803603602081101561007357600080fd5b810190808035906020019064010000000081111561009057600080fd5b8201836020820111156100a257600080fd5b803590602001918460208302840111640100000000831117156100c457600080fd5b919080806020026020016040519081016040528093929190818152602001838360200280828437600081840152601f19601f820116905080830192505050505050509192919290505050610129565b6040518082815260200191505060405180910390f35b6000815160009150602081028301602084015b818110156101555780518401935060208101905061013c565b50505091905056fea165627a7a723058206d398fdb17ea9e07a284818184c6665f5608ad5a2c6c3fd0c1e27b30fe9561940029",
					"opcodes": "PUSH2 0x189 PUSH2 0x30 PUSH1 0xB DUP3 DUP3 DUP3 CODECOPY DUP1 MLOAD PUSH1 0x0 BYTE PUSH1 0x73 EQ PUSH1 0x0 DUP2 EQ PUSH2 0x20 JUMPI PUSH2 0x22 JUMP JUMPDEST INVALID JUMPDEST POP ADDRESS PUSH1 0x0 MSTORE PUSH1 0x73 DUP2 MSTORE8 DUP3 DUP2 RETURN INVALID PUSH20 0x0 ADDRESS EQ PUSH1 0x80 PUSH1 0x40 MSTORE PUSH1 0x4 CALLDATASIZE LT PUSH2 0x58 JUMPI PUSH1 0x0 CALLDATALOAD PUSH29 0x100000000000000000000000000000000000000000000000000000000 SWAP1 DIV PUSH4 0xFFFFFFFF AND DUP1 PUSH4 0x87FBCC77 EQ PUSH2 0x5D JUMPI JUMPDEST PUSH1 0x0 DUP1 REVERT JUMPDEST PUSH2 0x113 PUSH1 0x4 DUP1 CALLDATASIZE SUB PUSH1 0x20 DUP2 LT ISZERO PUSH2 0x73 JUMPI PUSH1 0x0 DUP1 REVERT JUMPDEST DUP2 ADD SWAP1 DUP1 DUP1 CALLDATALOAD SWAP1 PUSH1 0x20 ADD SWAP1 PUSH5 0x100000000 DUP2 GT ISZERO PUSH2 0x90 JUMPI PUSH1 0x0 DUP1 REVERT JUMPDEST DUP3 ADD DUP4 PUSH1 0x20 DUP3 ADD GT ISZERO PUSH2 0xA2 JUMPI PUSH1 0x0 DUP1 REVERT JUMPDEST DUP1 CALLDATALOAD SWAP1 PUSH1 0x20 ADD SWAP2 DUP5 PUSH1 0x20 DUP4 MUL DUP5 ADD GT PUSH5 0x100000000 DUP4 GT OR ISZERO PUSH2 0xC4 JUMPI PUSH1 0x0 DUP1 REVERT JUMPDEST SWAP2 SWAP1 DUP1 DUP1 PUSH1 0x20 MUL PUSH1 0x20 ADD PUSH1 0x40 MLOAD SWAP1 DUP2 ADD PUSH1 0x40 MSTORE DUP1 SWAP4 SWAP3 SWAP2 SWAP1 DUP2 DUP2 MSTORE PUSH1 0x20 ADD DUP4 DUP4 PUSH1 0x20 MUL DUP1 DUP3 DUP5 CALLDATACOPY PUSH1 0x0 DUP2 DUP5 ADD MSTORE PUSH1 0x1F NOT PUSH1 0x1F DUP3 ADD AND SWAP1 POP DUP1 DUP4 ADD SWAP3 POP POP POP POP POP POP POP SWAP2 SWAP3 SWAP2 SWAP3 SWAP1 POP POP POP PUSH2 0x129 JUMP JUMPDEST PUSH1 0x40 MLOAD DUP1 DUP3 DUP2 MSTORE PUSH1 0x20 ADD SWAP2 POP POP PUSH1 0x40 MLOAD DUP1 SWAP2 SUB SWAP1 RETURN JUMPDEST PUSH1 0x0 DUP2 MLOAD PUSH1 0x0 SWAP2 POP PUSH1 0x20 DUP2 MUL DUP4 ADD PUSH1 0x20 DUP5 ADD JUMPDEST DUP2 DUP2 LT ISZERO PUSH2 0x155 JUMPI DUP1 MLOAD DUP5 ADD SWAP4 POP PUSH1 0x20 DUP2 ADD SWAP1 POP PUSH2 0x13C JUMP JUMPDEST POP POP POP SWAP2 SWAP1 POP JUMP INVALID LOG1 PUSH6 0x627A7A723058 KECCAK256 PUSH14 0x398FDB17EA9E07A284818184C666 0x5f JUMP ADDMOD 0xad GAS 0x2c PUSH13 0x3FD0C1E27B30FE956194002900 "
				},
				"gasEstimates": {
					"creation": {
						"codeDepositCost": "78600",
						"executionCost": "176",
						"totalCost": "78776"
					},
					"external": {
						"sumUsingInlineAssembly(uint256[])": "infinite"
					}
				},
				"methodIdentifiers": {
					"sumUsingInlineAssembly(uint256[])": "87fbcc77"
				}
			},
			"userdoc": {
				"methods": {}
			}
		}
	}
}