{
	"Blockchain/enums.sol": {
		"test": {
			"abi": [
				{
					"constant": true,
					"inputs": [],
					"name": "getChoice",
					"outputs": [
						{
							"name": "",
							"type": "uint8"
						}
					],
					"payable": false,
					"stateMutability": "view",
					"type": "function"
				},
				{
					"constant": false,
					"inputs": [],
					"name": "setLarge",
					"outputs": [],
					"payable": false,
					"stateMutability": "nonpayable",
					"type": "function"
				},
				{
					"constant": true,
					"inputs": [],
					"name": "getDefaultChoice",
					"outputs": [
						{
							"name": "",
							"type": "uint256"
						}
					],
					"payable": false,
					"stateMutability": "view",
					"type": "function"
				}
			],
			"devdoc": {
				"methods": {}
			},
			"evm": {
				"assembly": "    /* \"Blockchain/enums.sol\":25:411  contract test {\r... */\n  mstore(0x40, 0x80)\n  callvalue\n    /* \"--CODEGEN--\":8:17   */\n  dup1\n    /* \"--CODEGEN--\":5:7   */\n  iszero\n  tag_1\n  jumpi\n    /* \"--CODEGEN--\":30:31   */\n  0x0\n    /* \"--CODEGEN--\":27:28   */\n  dup1\n    /* \"--CODEGEN--\":20:32   */\n  revert\n    /* \"--CODEGEN--\":5:7   */\ntag_1:\n    /* \"Blockchain/enums.sol\":25:411  contract test {\r... */\n  pop\n  dataSize(sub_0)\n  dup1\n  dataOffset(sub_0)\n  0x0\n  codecopy\n  0x0\n  return\nstop\n\nsub_0: assembly {\n        /* \"Blockchain/enums.sol\":25:411  contract test {\r... */\n      mstore(0x40, 0x80)\n      jumpi(tag_1, lt(calldatasize, 0x4))\n      calldataload(0x0)\n      0x100000000000000000000000000000000000000000000000000000000\n      swap1\n      div\n      0xffffffff\n      and\n      dup1\n      0x67cb61b6\n      eq\n      tag_2\n      jumpi\n      dup1\n      0x694ebe4f\n      eq\n      tag_3\n      jumpi\n      dup1\n      0x843f7258\n      eq\n      tag_4\n      jumpi\n    tag_1:\n      0x0\n      dup1\n      revert\n        /* \"Blockchain/enums.sol\":240:318  function getChoice() public view returns (FreshJuiceSize) {\r... */\n    tag_2:\n      callvalue\n        /* \"--CODEGEN--\":8:17   */\n      dup1\n        /* \"--CODEGEN--\":5:7   */\n      iszero\n      tag_5\n      jumpi\n        /* \"--CODEGEN--\":30:31   */\n      0x0\n        /* \"--CODEGEN--\":27:28   */\n      dup1\n        /* \"--CODEGEN--\":20:32   */\n      revert\n        /* \"--CODEGEN--\":5:7   */\n    tag_5:\n        /* \"Blockchain/enums.sol\":240:318  function getChoice() public view returns (FreshJuiceSize) {\r... */\n      pop\n      tag_6\n      jump(tag_7)\n    tag_6:\n      mload(0x40)\n      dup1\n      dup3\n      0x2\n      dup2\n      gt\n      iszero\n      tag_8\n      jumpi\n      invalid\n    tag_8:\n      0xff\n      and\n      dup2\n      mstore\n      0x20\n      add\n      swap2\n      pop\n      pop\n      mload(0x40)\n      dup1\n      swap2\n      sub\n      swap1\n      return\n        /* \"Blockchain/enums.sol\":175:238  function setLarge() public {\r... */\n    tag_3:\n      callvalue\n        /* \"--CODEGEN--\":8:17   */\n      dup1\n        /* \"--CODEGEN--\":5:7   */\n      iszero\n      tag_9\n      jumpi\n        /* \"--CODEGEN--\":30:31   */\n      0x0\n        /* \"--CODEGEN--\":27:28   */\n      dup1\n        /* \"--CODEGEN--\":20:32   */\n      revert\n        /* \"--CODEGEN--\":5:7   */\n    tag_9:\n        /* \"Blockchain/enums.sol\":175:238  function setLarge() public {\r... */\n      pop\n      tag_10\n      jump(tag_11)\n    tag_10:\n      stop\n        /* \"Blockchain/enums.sol\":320:408  function getDefaultChoice() public pure returns (uint) {\r... */\n    tag_4:\n      callvalue\n        /* \"--CODEGEN--\":8:17   */\n      dup1\n        /* \"--CODEGEN--\":5:7   */\n      iszero\n      tag_12\n      jumpi\n        /* \"--CODEGEN--\":30:31   */\n      0x0\n        /* \"--CODEGEN--\":27:28   */\n      dup1\n        /* \"--CODEGEN--\":20:32   */\n      revert\n        /* \"--CODEGEN--\":5:7   */\n    tag_12:\n        /* \"Blockchain/enums.sol\":320:408  function getDefaultChoice() public pure returns (uint) {\r... */\n      pop\n      tag_13\n      jump(tag_14)\n    tag_13:\n      mload(0x40)\n      dup1\n      dup3\n      dup2\n      mstore\n      0x20\n      add\n      swap2\n      pop\n      pop\n      mload(0x40)\n      dup1\n      swap2\n      sub\n      swap1\n      return\n        /* \"Blockchain/enums.sol\":240:318  function getChoice() public view returns (FreshJuiceSize) {\r... */\n    tag_7:\n        /* \"Blockchain/enums.sol\":282:296  FreshJuiceSize */\n      0x0\n        /* \"Blockchain/enums.sol\":308:314  choice */\n      dup1\n      0x0\n      swap1\n      sload\n      swap1\n      0x100\n      exp\n      swap1\n      div\n      0xff\n      and\n        /* \"Blockchain/enums.sol\":301:314  return choice */\n      swap1\n      pop\n        /* \"Blockchain/enums.sol\":240:318  function getChoice() public view returns (FreshJuiceSize) {\r... */\n      swap1\n      jump\t// out\n        /* \"Blockchain/enums.sol\":175:238  function setLarge() public {\r... */\n    tag_11:\n        /* \"Blockchain/enums.sol\":214:234  FreshJuiceSize.LARGE */\n      0x2\n        /* \"Blockchain/enums.sol\":205:211  choice */\n      0x0\n      dup1\n        /* \"Blockchain/enums.sol\":205:234  choice = FreshJuiceSize.LARGE */\n      0x100\n      exp\n      dup2\n      sload\n      dup2\n      0xff\n      mul\n      not\n      and\n      swap1\n      dup4\n      0x2\n      dup2\n      gt\n      iszero\n      tag_17\n      jumpi\n      invalid\n    tag_17:\n      mul\n      or\n      swap1\n      sstore\n      pop\n        /* \"Blockchain/enums.sol\":175:238  function setLarge() public {\r... */\n      jump\t// out\n        /* \"Blockchain/enums.sol\":320:408  function getDefaultChoice() public pure returns (uint) {\r... */\n    tag_14:\n        /* \"Blockchain/enums.sol\":369:373  uint */\n      0x0\n        /* \"Blockchain/enums.sol\":151:172  FreshJuiceSize.MEDIUM */\n      0x1\n        /* \"Blockchain/enums.sol\":385:404  uint(defaultChoice) */\n      0x2\n      dup2\n      gt\n      iszero\n      tag_19\n      jumpi\n      invalid\n    tag_19:\n        /* \"Blockchain/enums.sol\":378:404  return uint(defaultChoice) */\n      swap1\n      pop\n        /* \"Blockchain/enums.sol\":320:408  function getDefaultChoice() public pure returns (uint) {\r... */\n      swap1\n      jump\t// out\n\n    auxdata: 0xa165627a7a7230582023c09ce0b316b691a17871ad308fbcd5afd7104b131b5383d0ec1c3ac3a3b3630029\n}\n",
				"bytecode": {
					"linkReferences": {},
					"object": "608060405234801561001057600080fd5b50610152806100206000396000f3fe608060405260043610610057576000357c0100000000000000000000000000000000000000000000000000000000900463ffffffff16806367cb61b61461005c578063694ebe4f14610095578063843f7258146100ac575b600080fd5b34801561006857600080fd5b506100716100d7565b6040518082600281111561008157fe5b60ff16815260200191505060405180910390f35b3480156100a157600080fd5b506100aa6100ed565b005b3480156100b857600080fd5b506100c1610112565b6040518082815260200191505060405180910390f35b60008060009054906101000a900460ff16905090565b60026000806101000a81548160ff0219169083600281111561010b57fe5b0217905550565b60006001600281111561012157fe5b90509056fea165627a7a7230582023c09ce0b316b691a17871ad308fbcd5afd7104b131b5383d0ec1c3ac3a3b3630029",
					"opcodes": "PUSH1 0x80 PUSH1 0x40 MSTORE CALLVALUE DUP1 ISZERO PUSH2 0x10 JUMPI PUSH1 0x0 DUP1 REVERT JUMPDEST POP PUSH2 0x152 DUP1 PUSH2 0x20 PUSH1 0x0 CODECOPY PUSH1 0x0 RETURN INVALID PUSH1 0x80 PUSH1 0x40 MSTORE PUSH1 0x4 CALLDATASIZE LT PUSH2 0x57 JUMPI PUSH1 0x0 CALLDATALOAD PUSH29 0x100000000000000000000000000000000000000000000000000000000 SWAP1 DIV PUSH4 0xFFFFFFFF AND DUP1 PUSH4 0x67CB61B6 EQ PUSH2 0x5C JUMPI DUP1 PUSH4 0x694EBE4F EQ PUSH2 0x95 JUMPI DUP1 PUSH4 0x843F7258 EQ PUSH2 0xAC JUMPI JUMPDEST PUSH1 0x0 DUP1 REVERT JUMPDEST CALLVALUE DUP1 ISZERO PUSH2 0x68 JUMPI PUSH1 0x0 DUP1 REVERT JUMPDEST POP PUSH2 0x71 PUSH2 0xD7 JUMP JUMPDEST PUSH1 0x40 MLOAD DUP1 DUP3 PUSH1 0x2 DUP2 GT ISZERO PUSH2 0x81 JUMPI INVALID JUMPDEST PUSH1 0xFF AND DUP2 MSTORE PUSH1 0x20 ADD SWAP2 POP POP PUSH1 0x40 MLOAD DUP1 SWAP2 SUB SWAP1 RETURN JUMPDEST CALLVALUE DUP1 ISZERO PUSH2 0xA1 JUMPI PUSH1 0x0 DUP1 REVERT JUMPDEST POP PUSH2 0xAA PUSH2 0xED JUMP JUMPDEST STOP JUMPDEST CALLVALUE DUP1 ISZERO PUSH2 0xB8 JUMPI PUSH1 0x0 DUP1 REVERT JUMPDEST POP PUSH2 0xC1 PUSH2 0x112 JUMP JUMPDEST PUSH1 0x40 MLOAD DUP1 DUP3 DUP2 MSTORE PUSH1 0x20 ADD SWAP2 POP POP PUSH1 0x40 MLOAD DUP1 SWAP2 SUB SWAP1 RETURN JUMPDEST PUSH1 0x0 DUP1 PUSH1 0x0 SWAP1 SLOAD SWAP1 PUSH2 0x100 EXP SWAP1 DIV PUSH1 0xFF AND SWAP1 POP SWAP1 JUMP JUMPDEST PUSH1 0x2 PUSH1 0x0 DUP1 PUSH2 0x100 EXP DUP2 SLOAD DUP2 PUSH1 0xFF MUL NOT AND SWAP1 DUP4 PUSH1 0x2 DUP2 GT ISZERO PUSH2 0x10B JUMPI INVALID JUMPDEST MUL OR SWAP1 SSTORE POP JUMP JUMPDEST PUSH1 0x0 PUSH1 0x1 PUSH1 0x2 DUP2 GT ISZERO PUSH2 0x121 JUMPI INVALID JUMPDEST SWAP1 POP SWAP1 JUMP INVALID LOG1 PUSH6 0x627A7A723058 KECCAK256 0x23 0xc0 SWAP13 0xe0 0xb3 AND 0xb6 SWAP2 LOG1 PUSH25 0x71AD308FBCD5AFD7104B131B5383D0EC1C3AC3A3B363002900 "
				},
				"gasEstimates": {
					"creation": {
						"codeDepositCost": "67600",
						"executionCost": "117",
						"totalCost": "67717"
					},
					"external": {
						"getChoice()": "470",
						"getDefaultChoice()": "272",
						"setLarge()": "20442"
					}
				},
				"methodIdentifiers": {
					"getChoice()": "67cb61b6",
					"getDefaultChoice()": "843f7258",
					"setLarge()": "694ebe4f"
				}
			},
			"userdoc": {
				"methods": {}
			}
		}
	}
}