{
	"Blockchain/Fallback function.sol": {
		"Test": {
			"abi": [
				{
					"constant": true,
					"inputs": [],
					"name": "x",
					"outputs": [
						{
							"name": "",
							"type": "uint256"
						}
					],
					"payable": false,
					"stateMutability": "view",
					"type": "function"
				},
				{
					"payable": false,
					"stateMutability": "nonpayable",
					"type": "fallback"
				}
			],
			"devdoc": {
				"methods": {}
			},
			"evm": {
				"assembly": "    /* \"Blockchain/Fallback function.sol\":25:92  contract Test {\r... */\n  mstore(0x40, 0x80)\n  callvalue\n    /* \"--CODEGEN--\":8:17   */\n  dup1\n    /* \"--CODEGEN--\":5:7   */\n  iszero\n  tag_1\n  jumpi\n    /* \"--CODEGEN--\":30:31   */\n  0x0\n    /* \"--CODEGEN--\":27:28   */\n  dup1\n    /* \"--CODEGEN--\":20:32   */\n  revert\n    /* \"--CODEGEN--\":5:7   */\ntag_1:\n    /* \"Blockchain/Fallback function.sol\":25:92  contract Test {\r... */\n  pop\n  dataSize(sub_0)\n  dup1\n  dataOffset(sub_0)\n  0x0\n  codecopy\n  0x0\n  return\nstop\n\nsub_0: assembly {\n        /* \"Blockchain/Fallback function.sol\":25:92  contract Test {\r... */\n      mstore(0x40, 0x80)\n      jumpi(tag_1, lt(calldatasize, 0x4))\n      calldataload(0x0)\n      0x100000000000000000000000000000000000000000000000000000000\n      swap1\n      div\n      0xffffffff\n      and\n      dup1\n      0xc55699c\n      eq\n      tag_2\n      jumpi\n    tag_1:\n      callvalue\n        /* \"--CODEGEN--\":8:17   */\n      dup1\n        /* \"--CODEGEN--\":5:7   */\n      iszero\n      tag_3\n      jumpi\n        /* \"--CODEGEN--\":30:31   */\n      0x0\n        /* \"--CODEGEN--\":27:28   */\n      dup1\n        /* \"--CODEGEN--\":20:32   */\n      revert\n        /* \"--CODEGEN--\":5:7   */\n    tag_3:\n        /* \"Blockchain/Fallback function.sol\":25:92  contract Test {\r... */\n      pop\n        /* \"Blockchain/Fallback function.sol\":85:86  1 */\n      0x1\n        /* \"Blockchain/Fallback function.sol\":81:82  x */\n      0x0\n        /* \"Blockchain/Fallback function.sol\":81:86  x = 1 */\n      dup2\n      swap1\n      sstore\n      pop\n        /* \"Blockchain/Fallback function.sol\":25:92  contract Test {\r... */\n      stop\n        /* \"Blockchain/Fallback function.sol\":42:55  uint public x */\n    tag_2:\n      callvalue\n        /* \"--CODEGEN--\":8:17   */\n      dup1\n        /* \"--CODEGEN--\":5:7   */\n      iszero\n      tag_6\n      jumpi\n        /* \"--CODEGEN--\":30:31   */\n      0x0\n        /* \"--CODEGEN--\":27:28   */\n      dup1\n        /* \"--CODEGEN--\":20:32   */\n      revert\n        /* \"--CODEGEN--\":5:7   */\n    tag_6:\n        /* \"Blockchain/Fallback function.sol\":42:55  uint public x */\n      pop\n      tag_7\n      jump(tag_8)\n    tag_7:\n      mload(0x40)\n      dup1\n      dup3\n      dup2\n      mstore\n      0x20\n      add\n      swap2\n      pop\n      pop\n      mload(0x40)\n      dup1\n      swap2\n      sub\n      swap1\n      return\n    tag_8:\n      sload(0x0)\n      dup2\n      jump\t// out\n\n    auxdata: 0xa165627a7a72305820a7f3c43a37ff98cb52418e5849ead629fdc8abec1ba1701132cc6667dfdec4400029\n}\n",
				"bytecode": {
					"linkReferences": {},
					"object": "608060405234801561001057600080fd5b5060af8061001f6000396000f3fe608060405260043610603f576000357c0100000000000000000000000000000000000000000000000000000000900463ffffffff1680630c55699c146055575b348015604a57600080fd5b506001600081905550005b348015606057600080fd5b506067607d565b6040518082815260200191505060405180910390f35b6000548156fea165627a7a72305820a7f3c43a37ff98cb52418e5849ead629fdc8abec1ba1701132cc6667dfdec4400029",
					"opcodes": "PUSH1 0x80 PUSH1 0x40 MSTORE CALLVALUE DUP1 ISZERO PUSH2 0x10 JUMPI PUSH1 0x0 DUP1 REVERT JUMPDEST POP PUSH1 0xAF DUP1 PUSH2 0x1F PUSH1 0x0 CODECOPY PUSH1 0x0 RETURN INVALID PUSH1 0x80 PUSH1 0x40 MSTORE PUSH1 0x4 CALLDATASIZE LT PUSH1 0x3F JUMPI PUSH1 0x0 CALLDATALOAD PUSH29 0x100000000000000000000000000000000000000000000000000000000 SWAP1 DIV PUSH4 0xFFFFFFFF AND DUP1 PUSH4 0xC55699C EQ PUSH1 0x55 JUMPI JUMPDEST CALLVALUE DUP1 ISZERO PUSH1 0x4A JUMPI PUSH1 0x0 DUP1 REVERT JUMPDEST POP PUSH1 0x1 PUSH1 0x0 DUP2 SWAP1 SSTORE POP STOP JUMPDEST CALLVALUE DUP1 ISZERO PUSH1 0x60 JUMPI PUSH1 0x0 DUP1 REVERT JUMPDEST POP PUSH1 0x67 PUSH1 0x7D JUMP JUMPDEST PUSH1 0x40 MLOAD DUP1 DUP3 DUP2 MSTORE PUSH1 0x20 ADD SWAP2 POP POP PUSH1 0x40 MLOAD DUP1 SWAP2 SUB SWAP1 RETURN JUMPDEST PUSH1 0x0 SLOAD DUP2 JUMP INVALID LOG1 PUSH6 0x627A7A723058 KECCAK256 0xa7 RETURN 0xc4 GASPRICE CALLDATACOPY SELFDESTRUCT SWAP9 0xcb MSTORE COINBASE DUP15 PC 0x49 0xea 0xd6 0x29 REVERT 0xc8 0xab 0xec SHL LOG1 PUSH17 0x1132CC6667DFDEC4400029000000000000 "
				},
				"gasEstimates": {
					"creation": {
						"codeDepositCost": "35000",
						"executionCost": "87",
						"totalCost": "35087"
					},
					"external": {
						"": "20123",
						"x()": "394"
					}
				},
				"methodIdentifiers": {
					"x()": "0c55699c"
				}
			},
			"userdoc": {
				"methods": {}
			}
		}
	}
}