{
	"Blockchain/if else if statement.sol": {
		"SolidityTest": {
			"abi": [
				{
					"constant": true,
					"inputs": [],
					"name": "getResult",
					"outputs": [
						{
							"name": "",
							"type": "string"
						}
					],
					"payable": false,
					"stateMutability": "view",
					"type": "function"
				},
				{
					"inputs": [],
					"payable": false,
					"stateMutability": "nonpayable",
					"type": "constructor"
				}
			],
			"devdoc": {
				"methods": {}
			},
			"evm": {
				"assembly": "    /* \"Blockchain/if else if statement.sol\":27:1329  contract SolidityTest {\r... */\n  mstore(0x40, 0x80)\n    /* \"Blockchain/if else if statement.sol\":143:198  constructor() public {\r... */\n  callvalue\n    /* \"--CODEGEN--\":8:17   */\n  dup1\n    /* \"--CODEGEN--\":5:7   */\n  iszero\n  tag_1\n  jumpi\n    /* \"--CODEGEN--\":30:31   */\n  0x0\n    /* \"--CODEGEN--\":27:28   */\n  dup1\n    /* \"--CODEGEN--\":20:32   */\n  revert\n    /* \"--CODEGEN--\":5:7   */\ntag_1:\n    /* \"Blockchain/if else if statement.sol\":143:198  constructor() public {\r... */\n  pop\n    /* \"Blockchain/if else if statement.sol\":188:190  10 */\n  0xa\n    /* \"Blockchain/if else if statement.sol\":175:185  storedData */\n  0x0\n    /* \"Blockchain/if else if statement.sol\":175:190  storedData = 10 */\n  dup2\n  swap1\n  sstore\n  pop\n    /* \"Blockchain/if else if statement.sol\":27:1329  contract SolidityTest {\r... */\n  dataSize(sub_0)\n  dup1\n  dataOffset(sub_0)\n  0x0\n  codecopy\n  0x0\n  return\nstop\n\nsub_0: assembly {\n        /* \"Blockchain/if else if statement.sol\":27:1329  contract SolidityTest {\r... */\n      mstore(0x40, 0x80)\n      jumpi(tag_1, lt(calldatasize, 0x4))\n      calldataload(0x0)\n      0x100000000000000000000000000000000000000000000000000000000\n      swap1\n      div\n      0xffffffff\n      and\n      dup1\n      0xde292789\n      eq\n      tag_2\n      jumpi\n    tag_1:\n      0x0\n      dup1\n      revert\n        /* \"Blockchain/if else if statement.sol\":364:790  function getResult() public pure returns (string memory) {\r... */\n    tag_2:\n      callvalue\n        /* \"--CODEGEN--\":8:17   */\n      dup1\n        /* \"--CODEGEN--\":5:7   */\n      iszero\n      tag_3\n      jumpi\n        /* \"--CODEGEN--\":30:31   */\n      0x0\n        /* \"--CODEGEN--\":27:28   */\n      dup1\n        /* \"--CODEGEN--\":20:32   */\n      revert\n        /* \"--CODEGEN--\":5:7   */\n    tag_3:\n        /* \"Blockchain/if else if statement.sol\":364:790  function getResult() public pure returns (string memory) {\r... */\n      pop\n      tag_4\n      jump(tag_5)\n    tag_4:\n      mload(0x40)\n      dup1\n      dup1\n      0x20\n      add\n      dup3\n      dup2\n      sub\n      dup3\n      mstore\n      dup4\n      dup2\n      dup2\n      mload\n      dup2\n      mstore\n      0x20\n      add\n      swap2\n      pop\n      dup1\n      mload\n      swap1\n      0x20\n      add\n      swap1\n      dup1\n      dup4\n      dup4\n        /* \"--CODEGEN--\":23:24   */\n      0x0\n        /* \"--CODEGEN--\":8:108   */\n    tag_6:\n        /* \"--CODEGEN--\":33:36   */\n      dup4\n        /* \"--CODEGEN--\":30:31   */\n      dup2\n        /* \"--CODEGEN--\":27:37   */\n      lt\n        /* \"--CODEGEN--\":8:108   */\n      iszero\n      tag_7\n      jumpi\n        /* \"--CODEGEN--\":99:100   */\n      dup1\n        /* \"--CODEGEN--\":94:97   */\n      dup3\n        /* \"--CODEGEN--\":90:101   */\n      add\n        /* \"--CODEGEN--\":84:102   */\n      mload\n        /* \"--CODEGEN--\":80:81   */\n      dup2\n        /* \"--CODEGEN--\":75:78   */\n      dup5\n        /* \"--CODEGEN--\":71:82   */\n      add\n        /* \"--CODEGEN--\":64:103   */\n      mstore\n        /* \"--CODEGEN--\":52:54   */\n      0x20\n        /* \"--CODEGEN--\":49:50   */\n      dup2\n        /* \"--CODEGEN--\":45:55   */\n      add\n        /* \"--CODEGEN--\":40:55   */\n      swap1\n      pop\n        /* \"--CODEGEN--\":8:108   */\n      jump(tag_6)\n    tag_7:\n        /* \"--CODEGEN--\":12:26   */\n      pop\n        /* \"Blockchain/if else if statement.sol\":364:790  function getResult() public pure returns (string memory) {\r... */\n      pop\n      pop\n      pop\n      swap1\n      pop\n      swap1\n      dup2\n      add\n      swap1\n      0x1f\n      and\n      dup1\n      iszero\n      tag_9\n      jumpi\n      dup1\n      dup3\n      sub\n      dup1\n      mload\n      0x1\n      dup4\n      0x20\n      sub\n      0x100\n      exp\n      sub\n      not\n      and\n      dup2\n      mstore\n      0x20\n      add\n      swap2\n      pop\n    tag_9:\n      pop\n      swap3\n      pop\n      pop\n      pop\n      mload(0x40)\n      dup1\n      swap2\n      sub\n      swap1\n      return\n    tag_5:\n        /* \"Blockchain/if else if statement.sol\":406:419  string memory */\n      0x60\n        /* \"Blockchain/if else if statement.sol\":432:438  uint a */\n      0x0\n        /* \"Blockchain/if else if statement.sol\":441:442  1 */\n      0x1\n        /* \"Blockchain/if else if statement.sol\":432:442  uint a = 1 */\n      swap1\n      pop\n        /* \"Blockchain/if else if statement.sol\":453:459  uint b */\n      0x0\n        /* \"Blockchain/if else if statement.sol\":462:463  2 */\n      0x2\n        /* \"Blockchain/if else if statement.sol\":453:463  uint b = 2 */\n      swap1\n      pop\n        /* \"Blockchain/if else if statement.sol\":474:480  uint c */\n      0x0\n        /* \"Blockchain/if else if statement.sol\":483:484  3 */\n      0x3\n        /* \"Blockchain/if else if statement.sol\":474:484  uint c = 3 */\n      swap1\n      pop\n        /* \"Blockchain/if else if statement.sol\":495:506  uint result */\n      0x0\n        /* \"Blockchain/if else if statement.sol\":584:585  b */\n      dup3\n        /* \"Blockchain/if else if statement.sol\":580:581  a */\n      dup5\n        /* \"Blockchain/if else if statement.sol\":580:585  a > b */\n      gt\n        /* \"Blockchain/if else if statement.sol\":580:594  a > b && a > c */\n      dup1\n      iszero\n      tag_11\n      jumpi\n      pop\n        /* \"Blockchain/if else if statement.sol\":593:594  c */\n      dup2\n        /* \"Blockchain/if else if statement.sol\":589:590  a */\n      dup5\n        /* \"Blockchain/if else if statement.sol\":589:594  a > c */\n      gt\n        /* \"Blockchain/if else if statement.sol\":580:594  a > b && a > c */\n    tag_11:\n        /* \"Blockchain/if else if statement.sol\":576:740  if( a > b && a > c) {\r... */\n      iszero\n      tag_12\n      jumpi\n        /* \"Blockchain/if else if statement.sol\":620:621  a */\n      dup4\n        /* \"Blockchain/if else if statement.sol\":611:621  result = a */\n      swap1\n      pop\n        /* \"Blockchain/if else if statement.sol\":576:740  if( a > b && a > c) {\r... */\n      jump(tag_13)\n    tag_12:\n        /* \"Blockchain/if else if statement.sol\":647:648  a */\n      dup4\n        /* \"Blockchain/if else if statement.sol\":643:644  b */\n      dup4\n        /* \"Blockchain/if else if statement.sol\":643:648  b > a */\n      gt\n        /* \"Blockchain/if else if statement.sol\":643:657  b > a && b > c */\n      dup1\n      iszero\n      tag_14\n      jumpi\n      pop\n        /* \"Blockchain/if else if statement.sol\":656:657  c */\n      dup2\n        /* \"Blockchain/if else if statement.sol\":652:653  b */\n      dup4\n        /* \"Blockchain/if else if statement.sol\":652:657  b > c */\n      gt\n        /* \"Blockchain/if else if statement.sol\":643:657  b > a && b > c */\n    tag_14:\n        /* \"Blockchain/if else if statement.sol\":639:740  if( b > a && b > c ) {\r... */\n      iszero\n      tag_15\n      jumpi\n        /* \"Blockchain/if else if statement.sol\":684:685  b */\n      dup3\n        /* \"Blockchain/if else if statement.sol\":675:685  result = b */\n      swap1\n      pop\n        /* \"Blockchain/if else if statement.sol\":639:740  if( b > a && b > c ) {\r... */\n      jump(tag_16)\n    tag_15:\n        /* \"Blockchain/if else if statement.sol\":727:728  c */\n      dup2\n        /* \"Blockchain/if else if statement.sol\":718:728  result = c */\n      swap1\n      pop\n        /* \"Blockchain/if else if statement.sol\":639:740  if( b > a && b > c ) {\r... */\n    tag_16:\n        /* \"Blockchain/if else if statement.sol\":576:740  if( a > b && a > c) {\r... */\n    tag_13:\n        /* \"Blockchain/if else if statement.sol\":759:782  integerToString(result) */\n      tag_17\n        /* \"Blockchain/if else if statement.sol\":775:781  result */\n      dup2\n        /* \"Blockchain/if else if statement.sol\":759:774  integerToString */\n      tag_18\n        /* \"Blockchain/if else if statement.sol\":759:782  integerToString(result) */\n      jump\t// in\n    tag_17:\n        /* \"Blockchain/if else if statement.sol\":752:782  return integerToString(result) */\n      swap5\n      pop\n      pop\n      pop\n      pop\n      pop\n        /* \"Blockchain/if else if statement.sol\":364:790  function getResult() public pure returns (string memory) {\r... */\n      swap1\n      jump\t// out\n        /* \"Blockchain/if else if statement.sol\":849:1326  function integerToString(uint _i) internal pure returns (string memory) {\r... */\n    tag_18:\n        /* \"Blockchain/if else if statement.sol\":906:919  string memory */\n      0x60\n        /* \"Blockchain/if else if statement.sol\":942:943  0 */\n      0x0\n        /* \"Blockchain/if else if statement.sol\":936:938  _i */\n      dup3\n        /* \"Blockchain/if else if statement.sol\":936:943  _i == 0 */\n      eq\n        /* \"Blockchain/if else if statement.sol\":932:982  if (_i == 0) {\r... */\n      iszero\n      tag_20\n      jumpi\n        /* \"Blockchain/if else if statement.sol\":960:970  return \"0\" */\n      0x40\n      dup1\n      mload\n      swap1\n      dup2\n      add\n      0x40\n      mstore\n      dup1\n      0x1\n      dup2\n      mstore\n      0x20\n      add\n      0x3000000000000000000000000000000000000000000000000000000000000000\n      dup2\n      mstore\n      pop\n      swap1\n      pop\n      jump(tag_19)\n        /* \"Blockchain/if else if statement.sol\":932:982  if (_i == 0) {\r... */\n    tag_20:\n        /* \"Blockchain/if else if statement.sol\":992:998  uint j */\n      0x0\n        /* \"Blockchain/if else if statement.sol\":1001:1003  _i */\n      dup3\n        /* \"Blockchain/if else if statement.sol\":992:1003  uint j = _i */\n      swap1\n      pop\n        /* \"Blockchain/if else if statement.sol\":1014:1022  uint len */\n      0x0\n        /* \"Blockchain/if else if statement.sol\":1033:1102  while (j != 0) {\r... */\n    tag_21:\n        /* \"Blockchain/if else if statement.sol\":1045:1046  0 */\n      0x0\n        /* \"Blockchain/if else if statement.sol\":1040:1041  j */\n      dup3\n        /* \"Blockchain/if else if statement.sol\":1040:1046  j != 0 */\n      eq\n      iszero\n        /* \"Blockchain/if else if statement.sol\":1033:1102  while (j != 0) {\r... */\n      iszero\n      tag_22\n      jumpi\n        /* \"Blockchain/if else if statement.sol\":1063:1068  len++ */\n      dup1\n      dup1\n      0x1\n      add\n      swap2\n      pop\n      pop\n        /* \"Blockchain/if else if statement.sol\":1088:1090  10 */\n      0xa\n        /* \"Blockchain/if else if statement.sol\":1083:1090  j /= 10 */\n      dup3\n      dup2\n      iszero\n      iszero\n      tag_23\n      jumpi\n      invalid\n    tag_23:\n      div\n      swap2\n      pop\n        /* \"Blockchain/if else if statement.sol\":1033:1102  while (j != 0) {\r... */\n      jump(tag_21)\n    tag_22:\n        /* \"Blockchain/if else if statement.sol\":1112:1129  bytes memory bstr */\n      0x60\n        /* \"Blockchain/if else if statement.sol\":1142:1145  len */\n      dup2\n        /* \"Blockchain/if else if statement.sol\":1132:1146  new bytes(len) */\n      mload(0x40)\n      swap1\n      dup1\n      dup3\n      mstore\n      dup1\n      0x1f\n      add\n      not(0x1f)\n      and\n      0x20\n      add\n      dup3\n      add\n      0x40\n      mstore\n      dup1\n      iszero\n      tag_24\n      jumpi\n      dup2\n      0x20\n      add\n        /* \"--CODEGEN--\":29:30   */\n      0x1\n        /* \"--CODEGEN--\":21:27   */\n      dup3\n        /* \"--CODEGEN--\":17:31   */\n      mul\n        /* \"--CODEGEN--\":116:120   */\n      dup1\n        /* \"--CODEGEN--\":104:114   */\n      codesize\n        /* \"--CODEGEN--\":96:102   */\n      dup4\n        /* \"--CODEGEN--\":87:121   */\n      codecopy\n        /* \"--CODEGEN--\":147:151   */\n      dup1\n        /* \"--CODEGEN--\":139:145   */\n      dup3\n        /* \"--CODEGEN--\":135:152   */\n      add\n        /* \"--CODEGEN--\":125:152   */\n      swap2\n      pop\n        /* \"--CODEGEN--\":0:156   */\n      pop\n        /* \"Blockchain/if else if statement.sol\":1132:1146  new bytes(len) */\n      swap1\n      pop\n    tag_24:\n      pop\n        /* \"Blockchain/if else if statement.sol\":1112:1146  bytes memory bstr = new bytes(len) */\n      swap1\n      pop\n        /* \"Blockchain/if else if statement.sol\":1157:1163  uint k */\n      0x0\n        /* \"Blockchain/if else if statement.sol\":1172:1173  1 */\n      0x1\n        /* \"Blockchain/if else if statement.sol\":1166:1169  len */\n      dup4\n        /* \"Blockchain/if else if statement.sol\":1166:1173  len - 1 */\n      sub\n        /* \"Blockchain/if else if statement.sol\":1157:1173  uint k = len - 1 */\n      swap1\n      pop\n        /* \"Blockchain/if else if statement.sol\":1184:1289  while (_i != 0) {\r... */\n    tag_25:\n        /* \"Blockchain/if else if statement.sol\":1197:1198  0 */\n      0x0\n        /* \"Blockchain/if else if statement.sol\":1191:1193  _i */\n      dup7\n        /* \"Blockchain/if else if statement.sol\":1191:1198  _i != 0 */\n      eq\n      iszero\n        /* \"Blockchain/if else if statement.sol\":1184:1289  while (_i != 0) {\r... */\n      iszero\n      tag_26\n      jumpi\n        /* \"Blockchain/if else if statement.sol\":1250:1252  10 */\n      0xa\n        /* \"Blockchain/if else if statement.sol\":1245:1247  _i */\n      dup7\n        /* \"Blockchain/if else if statement.sol\":1245:1252  _i % 10 */\n      dup2\n      iszero\n      iszero\n      tag_27\n      jumpi\n      invalid\n    tag_27:\n      mod\n        /* \"Blockchain/if else if statement.sol\":1240:1242  48 */\n      0x30\n        /* \"Blockchain/if else if statement.sol\":1240:1252  48 + _i % 10 */\n      add\n        /* \"Blockchain/if else if statement.sol\":1227:1254  bytes1(uint8(48 + _i % 10)) */\n      0x100000000000000000000000000000000000000000000000000000000000000\n      mul\n        /* \"Blockchain/if else if statement.sol\":1215:1219  bstr */\n      dup3\n        /* \"Blockchain/if else if statement.sol\":1220:1223  k-- */\n      dup3\n      dup1\n      0x1\n      swap1\n      sub\n      swap4\n      pop\n        /* \"Blockchain/if else if statement.sol\":1215:1224  bstr[k--] */\n      dup2\n      mload\n      dup2\n      lt\n      iszero\n      iszero\n      tag_28\n      jumpi\n      invalid\n    tag_28:\n      swap1\n      0x20\n      add\n      add\n        /* \"Blockchain/if else if statement.sol\":1215:1254  bstr[k--] = bytes1(uint8(48 + _i % 10)) */\n      swap1\n      not(0xffffffffffffffffffffffffffffffffffffffffffffffffffffffffffffff)\n      and\n      swap1\n      dup2\n      0x0\n      byte\n      swap1\n      mstore8\n      pop\n        /* \"Blockchain/if else if statement.sol\":1275:1277  10 */\n      0xa\n        /* \"Blockchain/if else if statement.sol\":1269:1277  _i /= 10 */\n      dup7\n      dup2\n      iszero\n      iszero\n      tag_29\n      jumpi\n      invalid\n    tag_29:\n      div\n      swap6\n      pop\n        /* \"Blockchain/if else if statement.sol\":1184:1289  while (_i != 0) {\r... */\n      jump(tag_25)\n    tag_26:\n        /* \"Blockchain/if else if statement.sol\":1313:1317  bstr */\n      dup2\n        /* \"Blockchain/if else if statement.sol\":1299:1318  return string(bstr) */\n      swap5\n      pop\n      pop\n      pop\n      pop\n      pop\n        /* \"Blockchain/if else if statement.sol\":849:1326  function integerToString(uint _i) internal pure returns (string memory) {\r... */\n    tag_19:\n      swap2\n      swap1\n      pop\n      jump\t// out\n\n    auxdata: 0xa165627a7a72305820e513b179995357ec138dabbc60fe0ac894f3beb95c35076776f40d3013610f330029\n}\n",
				"bytecode": {
					"linkReferences": {},
					"object": "608060405234801561001057600080fd5b50600a6000819055506102be806100286000396000f3fe608060405260043610610041576000357c0100000000000000000000000000000000000000000000000000000000900463ffffffff168063de29278914610046575b600080fd5b34801561005257600080fd5b5061005b6100d6565b6040518080602001828103825283818151815260200191508051906020019080838360005b8381101561009b578082015181840152602081019050610080565b50505050905090810190601f1680156100c85780820380516001836020036101000a031916815260200191505b509250505060405180910390f35b6060600060019050600060029050600060039050600082841180156100fa57508184115b1561010757839050610127565b838311801561011557508183115b1561012257829050610126565b8190505b5b61013081610139565b94505050505090565b60606000821415610181576040805190810160405280600181526020017f3000000000000000000000000000000000000000000000000000000000000000815250905061028d565b600082905060005b6000821415156101af578080600101915050600a828115156101a757fe5b049150610189565b6060816040519080825280601f01601f1916602001820160405280156101e45781602001600182028038833980820191505090505b50905060006001830390505b60008614151561028557600a8681151561020657fe5b066030017f01000000000000000000000000000000000000000000000000000000000000000282828060019003935081518110151561024157fe5b9060200101907effffffffffffffffffffffffffffffffffffffffffffffffffffffffffffff1916908160001a905350600a8681151561027d57fe5b0495506101f0565b819450505050505b91905056fea165627a7a72305820e513b179995357ec138dabbc60fe0ac894f3beb95c35076776f40d3013610f330029",
					"opcodes": "PUSH1 0x80 PUSH1 0x40 MSTORE CALLVALUE DUP1 ISZERO PUSH2 0x10 JUMPI PUSH1 0x0 DUP1 REVERT JUMPDEST POP PUSH1 0xA PUSH1 0x0 DUP2 SWAP1 SSTORE POP PUSH2 0x2BE DUP1 PUSH2 0x28 PUSH1 0x0 CODECOPY PUSH1 0x0 RETURN INVALID PUSH1 0x80 PUSH1 0x40 MSTORE PUSH1 0x4 CALLDATASIZE LT PUSH2 0x41 JUMPI PUSH1 0x0 CALLDATALOAD PUSH29 0x100000000000000000000000000000000000000000000000000000000 SWAP1 DIV PUSH4 0xFFFFFFFF AND DUP1 PUSH4 0xDE292789 EQ PUSH2 0x46 JUMPI JUMPDEST PUSH1 0x0 DUP1 REVERT JUMPDEST CALLVALUE DUP1 ISZERO PUSH2 0x52 JUMPI PUSH1 0x0 DUP1 REVERT JUMPDEST POP PUSH2 0x5B PUSH2 0xD6 JUMP JUMPDEST PUSH1 0x40 MLOAD DUP1 DUP1 PUSH1 0x20 ADD DUP3 DUP2 SUB DUP3 MSTORE DUP4 DUP2 DUP2 MLOAD DUP2 MSTORE PUSH1 0x20 ADD SWAP2 POP DUP1 MLOAD SWAP1 PUSH1 0x20 ADD SWAP1 DUP1 DUP4 DUP4 PUSH1 0x0 JUMPDEST DUP4 DUP2 LT ISZERO PUSH2 0x9B JUMPI DUP1 DUP3 ADD MLOAD DUP2 DUP5 ADD MSTORE PUSH1 0x20 DUP2 ADD SWAP1 POP PUSH2 0x80 JUMP JUMPDEST POP POP POP POP SWAP1 POP SWAP1 DUP2 ADD SWAP1 PUSH1 0x1F AND DUP1 ISZERO PUSH2 0xC8 JUMPI DUP1 DUP3 SUB DUP1 MLOAD PUSH1 0x1 DUP4 PUSH1 0x20 SUB PUSH2 0x100 EXP SUB NOT AND DUP2 MSTORE PUSH1 0x20 ADD SWAP2 POP JUMPDEST POP SWAP3 POP POP POP PUSH1 0x40 MLOAD DUP1 SWAP2 SUB SWAP1 RETURN JUMPDEST PUSH1 0x60 PUSH1 0x0 PUSH1 0x1 SWAP1 POP PUSH1 0x0 PUSH1 0x2 SWAP1 POP PUSH1 0x0 PUSH1 0x3 SWAP1 POP PUSH1 0x0 DUP3 DUP5 GT DUP1 ISZERO PUSH2 0xFA JUMPI POP DUP2 DUP5 GT JUMPDEST ISZERO PUSH2 0x107 JUMPI DUP4 SWAP1 POP PUSH2 0x127 JUMP JUMPDEST DUP4 DUP4 GT DUP1 ISZERO PUSH2 0x115 JUMPI POP DUP2 DUP4 GT JUMPDEST ISZERO PUSH2 0x122 JUMPI DUP3 SWAP1 POP PUSH2 0x126 JUMP JUMPDEST DUP2 SWAP1 POP JUMPDEST JUMPDEST PUSH2 0x130 DUP2 PUSH2 0x139 JUMP JUMPDEST SWAP5 POP POP POP POP POP SWAP1 JUMP JUMPDEST PUSH1 0x60 PUSH1 0x0 DUP3 EQ ISZERO PUSH2 0x181 JUMPI PUSH1 0x40 DUP1 MLOAD SWAP1 DUP2 ADD PUSH1 0x40 MSTORE DUP1 PUSH1 0x1 DUP2 MSTORE PUSH1 0x20 ADD PUSH32 0x3000000000000000000000000000000000000000000000000000000000000000 DUP2 MSTORE POP SWAP1 POP PUSH2 0x28D JUMP JUMPDEST PUSH1 0x0 DUP3 SWAP1 POP PUSH1 0x0 JUMPDEST PUSH1 0x0 DUP3 EQ ISZERO ISZERO PUSH2 0x1AF JUMPI DUP1 DUP1 PUSH1 0x1 ADD SWAP2 POP POP PUSH1 0xA DUP3 DUP2 ISZERO ISZERO PUSH2 0x1A7 JUMPI INVALID JUMPDEST DIV SWAP2 POP PUSH2 0x189 JUMP JUMPDEST PUSH1 0x60 DUP2 PUSH1 0x40 MLOAD SWAP1 DUP1 DUP3 MSTORE DUP1 PUSH1 0x1F ADD PUSH1 0x1F NOT AND PUSH1 0x20 ADD DUP3 ADD PUSH1 0x40 MSTORE DUP1 ISZERO PUSH2 0x1E4 JUMPI DUP2 PUSH1 0x20 ADD PUSH1 0x1 DUP3 MUL DUP1 CODESIZE DUP4 CODECOPY DUP1 DUP3 ADD SWAP2 POP POP SWAP1 POP JUMPDEST POP SWAP1 POP PUSH1 0x0 PUSH1 0x1 DUP4 SUB SWAP1 POP JUMPDEST PUSH1 0x0 DUP7 EQ ISZERO ISZERO PUSH2 0x285 JUMPI PUSH1 0xA DUP7 DUP2 ISZERO ISZERO PUSH2 0x206 JUMPI INVALID JUMPDEST MOD PUSH1 0x30 ADD PUSH32 0x100000000000000000000000000000000000000000000000000000000000000 MUL DUP3 DUP3 DUP1 PUSH1 0x1 SWAP1 SUB SWAP4 POP DUP2 MLOAD DUP2 LT ISZERO ISZERO PUSH2 0x241 JUMPI INVALID JUMPDEST SWAP1 PUSH1 0x20 ADD ADD SWAP1 PUSH31 0xFFFFFFFFFFFFFFFFFFFFFFFFFFFFFFFFFFFFFFFFFFFFFFFFFFFFFFFFFFFFFF NOT AND SWAP1 DUP2 PUSH1 0x0 BYTE SWAP1 MSTORE8 POP PUSH1 0xA DUP7 DUP2 ISZERO ISZERO PUSH2 0x27D JUMPI INVALID JUMPDEST DIV SWAP6 POP PUSH2 0x1F0 JUMP JUMPDEST DUP2 SWAP5 POP POP POP POP POP JUMPDEST SWAP2 SWAP1 POP JUMP INVALID LOG1 PUSH6 0x627A7A723058 KECCAK256 0xe5 SGT 0xb1 PUSH26 0x995357EC138DABBC60FE0AC894F3BEB95C35076776F40D301361 0xf CALLER STOP 0x29 "
				},
				"gasEstimates": {
					"creation": {
						"codeDepositCost": "140400",
						"executionCost": "20197",
						"totalCost": "160597"
					},
					"external": {
						"getResult()": "infinite"
					},
					"internal": {
						"integerToString(uint256)": "infinite"
					}
				},
				"methodIdentifiers": {
					"getResult()": "de292789"
				}
			},
			"userdoc": {
				"methods": {}
			}
		}
	}
}