{
	"Blockchain/Assignment Operator.sol": {
		"SolidityTest": {
			"abi": [
				{
					"constant": true,
					"inputs": [],
					"name": "assignment",
					"outputs": [
						{
							"name": "",
							"type": "uint16"
						}
					],
					"payable": false,
					"stateMutability": "view",
					"type": "function"
				},
				{
					"constant": false,
					"inputs": [],
					"name": "getResult",
					"outputs": [],
					"payable": false,
					"stateMutability": "nonpayable",
					"type": "function"
				}
			],
			"devdoc": {
				"methods": {}
			},
			"evm": {
				"assembly": "    /* \"Blockchain/Assignment Operator.sol\":111:564  contract SolidityTest {\r... */\n  mstore(0x40, 0x80)\n    /* \"Blockchain/Assignment Operator.sol\":167:169  20 */\n  0x14\n    /* \"Blockchain/Assignment Operator.sol\":140:169  uint16 public assignment = 20 */\n  0x0\n  dup1\n  0x100\n  exp\n  dup2\n  sload\n  dup2\n  0xffff\n  mul\n  not\n  and\n  swap1\n  dup4\n  0xffff\n  and\n  mul\n  or\n  swap1\n  sstore\n  pop\n    /* \"Blockchain/Assignment Operator.sol\":198:200  50 */\n  0x32\n    /* \"Blockchain/Assignment Operator.sol\":176:200  uint assignment_add = 50 */\n  0x1\n  sstore\n    /* \"Blockchain/Assignment Operator.sol\":225:227  50 */\n  0x32\n    /* \"Blockchain/Assignment Operator.sol\":207:227  uint assign_sub = 50 */\n  0x2\n  sstore\n    /* \"Blockchain/Assignment Operator.sol\":252:254  10 */\n  0xa\n    /* \"Blockchain/Assignment Operator.sol\":234:254  uint assign_mul = 10 */\n  0x3\n  sstore\n    /* \"Blockchain/Assignment Operator.sol\":279:281  50 */\n  0x32\n    /* \"Blockchain/Assignment Operator.sol\":261:281  uint assign_div = 50 */\n  0x4\n  sstore\n    /* \"Blockchain/Assignment Operator.sol\":306:308  32 */\n  0x20\n    /* \"Blockchain/Assignment Operator.sol\":288:308  uint assign_mod = 32 */\n  0x5\n  sstore\n    /* \"Blockchain/Assignment Operator.sol\":111:564  contract SolidityTest {\r... */\n  callvalue\n    /* \"--CODEGEN--\":8:17   */\n  dup1\n    /* \"--CODEGEN--\":5:7   */\n  iszero\n  tag_1\n  jumpi\n    /* \"--CODEGEN--\":30:31   */\n  0x0\n    /* \"--CODEGEN--\":27:28   */\n  dup1\n    /* \"--CODEGEN--\":20:32   */\n  revert\n    /* \"--CODEGEN--\":5:7   */\ntag_1:\n    /* \"Blockchain/Assignment Operator.sol\":111:564  contract SolidityTest {\r... */\n  pop\n  dataSize(sub_0)\n  dup1\n  dataOffset(sub_0)\n  0x0\n  codecopy\n  0x0\n  return\nstop\n\nsub_0: assembly {\n        /* \"Blockchain/Assignment Operator.sol\":111:564  contract SolidityTest {\r... */\n      mstore(0x40, 0x80)\n      jumpi(tag_1, lt(calldatasize, 0x4))\n      calldataload(0x0)\n      0x100000000000000000000000000000000000000000000000000000000\n      swap1\n      div\n      0xffffffff\n      and\n      dup1\n      0x71ca2ecf\n      eq\n      tag_2\n      jumpi\n      dup1\n      0xde292789\n      eq\n      tag_3\n      jumpi\n    tag_1:\n      0x0\n      dup1\n      revert\n        /* \"Blockchain/Assignment Operator.sol\":140:169  uint16 public assignment = 20 */\n    tag_2:\n      callvalue\n        /* \"--CODEGEN--\":8:17   */\n      dup1\n        /* \"--CODEGEN--\":5:7   */\n      iszero\n      tag_4\n      jumpi\n        /* \"--CODEGEN--\":30:31   */\n      0x0\n        /* \"--CODEGEN--\":27:28   */\n      dup1\n        /* \"--CODEGEN--\":20:32   */\n      revert\n        /* \"--CODEGEN--\":5:7   */\n    tag_4:\n        /* \"Blockchain/Assignment Operator.sol\":140:169  uint16 public assignment = 20 */\n      pop\n      tag_5\n      jump(tag_6)\n    tag_5:\n      mload(0x40)\n      dup1\n      dup3\n      0xffff\n      and\n      0xffff\n      and\n      dup2\n      mstore\n      0x20\n      add\n      swap2\n      pop\n      pop\n      mload(0x40)\n      dup1\n      swap2\n      sub\n      swap1\n      return\n        /* \"Blockchain/Assignment Operator.sol\":386:561  function getResult() public {\r... */\n    tag_3:\n      callvalue\n        /* \"--CODEGEN--\":8:17   */\n      dup1\n        /* \"--CODEGEN--\":5:7   */\n      iszero\n      tag_7\n      jumpi\n        /* \"--CODEGEN--\":30:31   */\n      0x0\n        /* \"--CODEGEN--\":27:28   */\n      dup1\n        /* \"--CODEGEN--\":20:32   */\n      revert\n        /* \"--CODEGEN--\":5:7   */\n    tag_7:\n        /* \"Blockchain/Assignment Operator.sol\":386:561  function getResult() public {\r... */\n      pop\n      tag_8\n      jump(tag_9)\n    tag_8:\n      stop\n        /* \"Blockchain/Assignment Operator.sol\":140:169  uint16 public assignment = 20 */\n    tag_6:\n      0x0\n      dup1\n      swap1\n      sload\n      swap1\n      0x100\n      exp\n      swap1\n      div\n      0xffff\n      and\n      dup2\n      jump\t// out\n        /* \"Blockchain/Assignment Operator.sol\":386:561  function getResult() public {\r... */\n    tag_9:\n        /* \"Blockchain/Assignment Operator.sol\":443:445  10 */\n      0xa\n        /* \"Blockchain/Assignment Operator.sol\":425:439  assignment_add */\n      0x1\n      0x0\n        /* \"Blockchain/Assignment Operator.sol\":425:445  assignment_add += 10 */\n      dup3\n      dup3\n      sload\n      add\n      swap3\n      pop\n      pop\n      dup2\n      swap1\n      sstore\n      pop\n        /* \"Blockchain/Assignment Operator.sol\":470:472  20 */\n      0x14\n        /* \"Blockchain/Assignment Operator.sol\":456:466  assign_sub */\n      0x2\n      0x0\n        /* \"Blockchain/Assignment Operator.sol\":456:472  assign_sub -= 20 */\n      dup3\n      dup3\n      sload\n      sub\n      swap3\n      pop\n      pop\n      dup2\n      swap1\n      sstore\n      pop\n        /* \"Blockchain/Assignment Operator.sol\":497:499  10 */\n      0xa\n        /* \"Blockchain/Assignment Operator.sol\":483:493  assign_mul */\n      0x3\n      0x0\n        /* \"Blockchain/Assignment Operator.sol\":483:499  assign_mul *= 10 */\n      dup3\n      dup3\n      sload\n      mul\n      swap3\n      pop\n      pop\n      dup2\n      swap1\n      sstore\n      pop\n        /* \"Blockchain/Assignment Operator.sol\":524:526  10 */\n      0xa\n        /* \"Blockchain/Assignment Operator.sol\":510:520  assign_div */\n      0x4\n      0x0\n        /* \"Blockchain/Assignment Operator.sol\":510:526  assign_div /= 10 */\n      dup3\n      dup3\n      sload\n      dup2\n      iszero\n      iszero\n      tag_11\n      jumpi\n      invalid\n    tag_11:\n      div\n      swap3\n      pop\n      pop\n      dup2\n      swap1\n      sstore\n      pop\n        /* \"Blockchain/Assignment Operator.sol\":551:553  20 */\n      0x14\n        /* \"Blockchain/Assignment Operator.sol\":537:547  assign_mod */\n      0x5\n      0x0\n        /* \"Blockchain/Assignment Operator.sol\":537:553  assign_mod %= 20 */\n      dup3\n      dup3\n      sload\n      dup2\n      iszero\n      iszero\n      tag_12\n      jumpi\n      invalid\n    tag_12:\n      mod\n      swap3\n      pop\n      pop\n      dup2\n      swap1\n      sstore\n      pop\n        /* \"Blockchain/Assignment Operator.sol\":386:561  function getResult() public {\r... */\n      jump\t// out\n\n    auxdata: 0xa165627a7a72305820666f19a7d261bd142889fd7da3d74bda9987fb2406062c36fa2ea26c1dd6771d0029\n}\n",
				"bytecode": {
					"linkReferences": {},
					"object": "608060405260146000806101000a81548161ffff021916908361ffff16021790555060326001556032600255600a6003556032600455602060055534801561004657600080fd5b50610143806100566000396000f3fe60806040526004361061004c576000357c0100000000000000000000000000000000000000000000000000000000900463ffffffff16806371ca2ecf14610051578063de29278914610084575b600080fd5b34801561005d57600080fd5b5061006661009b565b604051808261ffff1661ffff16815260200191505060405180910390f35b34801561009057600080fd5b506100996100ae565b005b6000809054906101000a900461ffff1681565b600a6001600082825401925050819055506014600260008282540392505081905550600a600360008282540292505081905550600a600460008282548115156100f357fe5b049250508190555060146005600082825481151561010d57fe5b069250508190555056fea165627a7a72305820666f19a7d261bd142889fd7da3d74bda9987fb2406062c36fa2ea26c1dd6771d0029",
					"opcodes": "PUSH1 0x80 PUSH1 0x40 MSTORE PUSH1 0x14 PUSH1 0x0 DUP1 PUSH2 0x100 EXP DUP2 SLOAD DUP2 PUSH2 0xFFFF MUL NOT AND SWAP1 DUP4 PUSH2 0xFFFF AND MUL OR SWAP1 SSTORE POP PUSH1 0x32 PUSH1 0x1 SSTORE PUSH1 0x32 PUSH1 0x2 SSTORE PUSH1 0xA PUSH1 0x3 SSTORE PUSH1 0x32 PUSH1 0x4 SSTORE PUSH1 0x20 PUSH1 0x5 SSTORE CALLVALUE DUP1 ISZERO PUSH2 0x46 JUMPI PUSH1 0x0 DUP1 REVERT JUMPDEST POP PUSH2 0x143 DUP1 PUSH2 0x56 PUSH1 0x0 CODECOPY PUSH1 0x0 RETURN INVALID PUSH1 0x80 PUSH1 0x40 MSTORE PUSH1 0x4 CALLDATASIZE LT PUSH2 0x4C JUMPI PUSH1 0x0 CALLDATALOAD PUSH29 0x100000000000000000000000000000000000000000000000000000000 SWAP1 DIV PUSH4 0xFFFFFFFF AND DUP1 PUSH4 0x71CA2ECF EQ PUSH2 0x51 JUMPI DUP1 PUSH4 0xDE292789 EQ PUSH2 0x84 JUMPI JUMPDEST PUSH1 0x0 DUP1 REVERT JUMPDEST CALLVALUE DUP1 ISZERO PUSH2 0x5D JUMPI PUSH1 0x0 DUP1 REVERT JUMPDEST POP PUSH2 0x66 PUSH2 0x9B JUMP JUMPDEST PUSH1 0x40 MLOAD DUP1 DUP3 PUSH2 0xFFFF AND PUSH2 0xFFFF AND DUP2 MSTORE PUSH1 0x20 ADD SWAP2 POP POP PUSH1 0x40 MLOAD DUP1 SWAP2 SUB SWAP1 RETURN JUMPDEST CALLVALUE DUP1 ISZERO PUSH2 0x90 JUMPI PUSH1 0x0 DUP1 REVERT JUMPDEST POP PUSH2 0x99 PUSH2 0xAE JUMP JUMPDEST STOP JUMPDEST PUSH1 0x0 DUP1 SWAP1 SLOAD SWAP1 PUSH2 0x100 EXP SWAP1 DIV PUSH2 0xFFFF AND DUP2 JUMP JUMPDEST PUSH1 0xA PUSH1 0x1 PUSH1 0x0 DUP3 DUP3 SLOAD ADD SWAP3 POP POP DUP2 SWAP1 SSTORE POP PUSH1 0x14 PUSH1 0x2 PUSH1 0x0 DUP3 DUP3 SLOAD SUB SWAP3 POP POP DUP2 SWAP1 SSTORE POP PUSH1 0xA PUSH1 0x3 PUSH1 0x0 DUP3 DUP3 SLOAD MUL SWAP3 POP POP DUP2 SWAP1 SSTORE POP PUSH1 0xA PUSH1 0x4 PUSH1 0x0 DUP3 DUP3 SLOAD DUP2 ISZERO ISZERO PUSH2 0xF3 JUMPI INVALID JUMPDEST DIV SWAP3 POP POP DUP2 SWAP1 SSTORE POP PUSH1 0x14 PUSH1 0x5 PUSH1 0x0 DUP3 DUP3 SLOAD DUP2 ISZERO ISZERO PUSH2 0x10D JUMPI INVALID JUMPDEST MOD SWAP3 POP POP DUP2 SWAP1 SSTORE POP JUMP INVALID LOG1 PUSH6 0x627A7A723058 KECCAK256 PUSH7 0x6F19A7D261BD14 0x28 DUP10 REVERT PUSH30 0xA3D74BDA9987FB2406062C36FA2EA26C1DD6771D00290000000000000000 "
				},
				"gasEstimates": {
					"creation": {
						"codeDepositCost": "64600",
						"executionCost": "120414",
						"totalCost": "185014"
					},
					"external": {
						"assignment()": "442",
						"getResult()": "101372"
					}
				},
				"methodIdentifiers": {
					"assignment()": "71ca2ecf",
					"getResult()": "de292789"
				}
			},
			"userdoc": {
				"methods": {}
			}
		}
	}
}