{
	"Blockchain/Interfaces.sol": {
		"Test": {
			"abi": [
				{
					"constant": true,
					"inputs": [],
					"name": "getResult",
					"outputs": [
						{
							"name": "",
							"type": "uint256"
						}
					],
					"payable": false,
					"stateMutability": "view",
					"type": "function"
				},
				{
					"inputs": [],
					"payable": false,
					"stateMutability": "nonpayable",
					"type": "constructor"
				}
			],
			"devdoc": {
				"methods": {}
			},
			"evm": {
				"assembly": "    /* \"Blockchain/Interfaces.sol\":209:607  contract Test is Calculator {\r... */\n  mstore(0x40, 0x80)\n    /* \"Blockchain/Interfaces.sol\":340:363  constructor() public {} */\n  callvalue\n    /* \"--CODEGEN--\":8:17   */\n  dup1\n    /* \"--CODEGEN--\":5:7   */\n  iszero\n  tag_1\n  jumpi\n    /* \"--CODEGEN--\":30:31   */\n  0x0\n    /* \"--CODEGEN--\":27:28   */\n  dup1\n    /* \"--CODEGEN--\":20:32   */\n  revert\n    /* \"--CODEGEN--\":5:7   */\ntag_1:\n    /* \"Blockchain/Interfaces.sol\":340:363  constructor() public {} */\n  pop\n    /* \"Blockchain/Interfaces.sol\":209:607  contract Test is Calculator {\r... */\n  dataSize(sub_0)\n  dup1\n  dataOffset(sub_0)\n  0x0\n  codecopy\n  0x0\n  return\nstop\n\nsub_0: assembly {\n        /* \"Blockchain/Interfaces.sol\":209:607  contract Test is Calculator {\r... */\n      mstore(0x40, 0x80)\n      jumpi(tag_1, lt(calldatasize, 0x4))\n      calldataload(0x0)\n      0x100000000000000000000000000000000000000000000000000000000\n      swap1\n      div\n      0xffffffff\n      and\n      dup1\n      0xde292789\n      eq\n      tag_2\n      jumpi\n    tag_1:\n      0x0\n      dup1\n      revert\n        /* \"Blockchain/Interfaces.sol\":450:604  function getResult() external view returns (uint) {\r... */\n    tag_2:\n      callvalue\n        /* \"--CODEGEN--\":8:17   */\n      dup1\n        /* \"--CODEGEN--\":5:7   */\n      iszero\n      tag_3\n      jumpi\n        /* \"--CODEGEN--\":30:31   */\n      0x0\n        /* \"--CODEGEN--\":27:28   */\n      dup1\n        /* \"--CODEGEN--\":20:32   */\n      revert\n        /* \"--CODEGEN--\":5:7   */\n    tag_3:\n        /* \"Blockchain/Interfaces.sol\":450:604  function getResult() external view returns (uint) {\r... */\n      pop\n      tag_4\n      jump(tag_5)\n    tag_4:\n      mload(0x40)\n      dup1\n      dup3\n      dup2\n      mstore\n      0x20\n      add\n      swap2\n      pop\n      pop\n      mload(0x40)\n      dup1\n      swap2\n      sub\n      swap1\n      return\n    tag_5:\n        /* \"Blockchain/Interfaces.sol\":494:498  uint */\n      0x0\n        /* \"Blockchain/Interfaces.sol\":511:517  uint a */\n      dup1\n        /* \"Blockchain/Interfaces.sol\":520:521  1 */\n      0x1\n        /* \"Blockchain/Interfaces.sol\":511:521  uint a = 1 */\n      swap1\n      pop\n        /* \"Blockchain/Interfaces.sol\":532:538  uint b */\n      0x0\n        /* \"Blockchain/Interfaces.sol\":541:542  2 */\n      0x2\n        /* \"Blockchain/Interfaces.sol\":532:542  uint b = 2 */\n      swap1\n      pop\n        /* \"Blockchain/Interfaces.sol\":553:564  uint result */\n      0x0\n        /* \"Blockchain/Interfaces.sol\":571:572  b */\n      dup2\n        /* \"Blockchain/Interfaces.sol\":567:568  a */\n      dup4\n        /* \"Blockchain/Interfaces.sol\":567:572  a + b */\n      add\n        /* \"Blockchain/Interfaces.sol\":553:572  uint result = a + b */\n      swap1\n      pop\n        /* \"Blockchain/Interfaces.sol\":590:596  result */\n      dup1\n        /* \"Blockchain/Interfaces.sol\":583:596  return result */\n      swap4\n      pop\n      pop\n      pop\n      pop\n        /* \"Blockchain/Interfaces.sol\":450:604  function getResult() external view returns (uint) {\r... */\n      swap1\n      jump\t// out\n\n    auxdata: 0xa165627a7a723058201cb4d90cb09e311ef89e857884dfce99fd1f9ce8e2e049600162b343fb84b66d0029\n}\n",
				"bytecode": {
					"linkReferences": {},
					"object": "6080604052348015600f57600080fd5b5060b58061001e6000396000f3fe608060405260043610603f576000357c0100000000000000000000000000000000000000000000000000000000900463ffffffff168063de292789146044575b600080fd5b348015604f57600080fd5b506056606c565b6040518082815260200191505060405180910390f35b60008060019050600060029050600081830190508093505050509056fea165627a7a723058201cb4d90cb09e311ef89e857884dfce99fd1f9ce8e2e049600162b343fb84b66d0029",
					"opcodes": "PUSH1 0x80 PUSH1 0x40 MSTORE CALLVALUE DUP1 ISZERO PUSH1 0xF JUMPI PUSH1 0x0 DUP1 REVERT JUMPDEST POP PUSH1 0xB5 DUP1 PUSH2 0x1E PUSH1 0x0 CODECOPY PUSH1 0x0 RETURN INVALID PUSH1 0x80 PUSH1 0x40 MSTORE PUSH1 0x4 CALLDATASIZE LT PUSH1 0x3F JUMPI PUSH1 0x0 CALLDATALOAD PUSH29 0x100000000000000000000000000000000000000000000000000000000 SWAP1 DIV PUSH4 0xFFFFFFFF AND DUP1 PUSH4 0xDE292789 EQ PUSH1 0x44 JUMPI JUMPDEST PUSH1 0x0 DUP1 REVERT JUMPDEST CALLVALUE DUP1 ISZERO PUSH1 0x4F JUMPI PUSH1 0x0 DUP1 REVERT JUMPDEST POP PUSH1 0x56 PUSH1 0x6C JUMP JUMPDEST PUSH1 0x40 MLOAD DUP1 DUP3 DUP2 MSTORE PUSH1 0x20 ADD SWAP2 POP POP PUSH1 0x40 MLOAD DUP1 SWAP2 SUB SWAP1 RETURN JUMPDEST PUSH1 0x0 DUP1 PUSH1 0x1 SWAP1 POP PUSH1 0x0 PUSH1 0x2 SWAP1 POP PUSH1 0x0 DUP2 DUP4 ADD SWAP1 POP DUP1 SWAP4 POP POP POP POP SWAP1 JUMP INVALID LOG1 PUSH6 0x627A7A723058 KECCAK256 SHR 0xb4 0xd9 0xc 0xb0 SWAP15 BALANCE 0x1e 0xf8 SWAP15 DUP6 PUSH25 0x84DFCE99FD1F9CE8E2E049600162B343FB84B66D0029000000 "
				},
				"gasEstimates": {
					"creation": {
						"codeDepositCost": "36200",
						"executionCost": "87",
						"totalCost": "36287"
					},
					"external": {
						"getResult()": "247"
					}
				},
				"methodIdentifiers": {
					"getResult()": "de292789"
				}
			},
			"userdoc": {
				"methods": {}
			}
		}
	}
}