{
	"data": {
		"bytecode": {
			"linkReferences": {},
			"object": "608060405234801561001057600080fd5b50610141806100206000396000f3fe60806040526004361061004c576000357c0100000000000000000000000000000000000000000000000000000000900463ffffffff16806316b95176146100515780632a1afcd91461008c575b600080fd5b34801561005d57600080fd5b5061008a6004803603602081101561007457600080fd5b81019080803590602001909291905050506100b7565b005b34801561009857600080fd5b506100a161010f565b6040518082815260200191505060405180910390f35b806000819055503373ffffffffffffffffffffffffffffffffffffffff167fe42ab83e51dcfb436887e998d12b1585d6eea49b2900b0b3bcd0591dec7c3d19826040518082815260200191505060405180910390a250565b6000548156fea165627a7a72305820cc10f1f80bce3dbbb8ca0042f8cc8a961fa7182ff05d7f5dd4e23dc50f6b8cb80029",
			"opcodes": "PUSH1 0x80 PUSH1 0x40 MSTORE CALLVALUE DUP1 ISZERO PUSH2 0x10 JUMPI PUSH1 0x0 DUP1 REVERT JUMPDEST POP PUSH2 0x141 DUP1 PUSH2 0x20 PUSH1 0x0 CODECOPY PUSH1 0x0 RETURN INVALID PUSH1 0x80 PUSH1 0x40 MSTORE PUSH1 0x4 CALLDATASIZE LT PUSH2 0x4C JUMPI PUSH1 0x0 CALLDATALOAD PUSH29 0x100000000000000000000000000000000000000000000000000000000 SWAP1 DIV PUSH4 0xFFFFFFFF AND DUP1 PUSH4 0x16B95176 EQ PUSH2 0x51 JUMPI DUP1 PUSH4 0x2A1AFCD9 EQ PUSH2 0x8C JUMPI JUMPDEST PUSH1 0x0 DUP1 REVERT JUMPDEST CALLVALUE DUP1 ISZERO PUSH2 0x5D JUMPI PUSH1 0x0 DUP1 REVERT JUMPDEST POP PUSH2 0x8A PUSH1 0x4 DUP1 CALLDATASIZE SUB PUSH1 0x20 DUP2 LT ISZERO PUSH2 0x74 JUMPI PUSH1 0x0 DUP1 REVERT JUMPDEST DUP2 ADD SWAP1 DUP1 DUP1 CALLDATALOAD SWAP1 PUSH1 0x20 ADD SWAP1 SWAP3 SWAP2 SWAP1 POP POP POP PUSH2 0xB7 JUMP JUMPDEST STOP JUMPDEST CALLVALUE DUP1 ISZERO PUSH2 0x98 JUMPI PUSH1 0x0 DUP1 REVERT JUMPDEST POP PUSH2 0xA1 PUSH2 0x10F JUMP JUMPDEST PUSH1 0x40 MLOAD DUP1 DUP3 DUP2 MSTORE PUSH1 0x20 ADD SWAP2 POP POP PUSH1 0x40 MLOAD DUP1 SWAP2 SUB SWAP1 RETURN JUMPDEST DUP1 PUSH1 0x0 DUP2 SWAP1 SSTORE POP CALLER PUSH20 0xFFFFFFFFFFFFFFFFFFFFFFFFFFFFFFFFFFFFFFFF AND PUSH32 0xE42AB83E51DCFB436887E998D12B1585D6EEA49B2900B0B3BCD0591DEC7C3D19 DUP3 PUSH1 0x40 MLOAD DUP1 DUP3 DUP2 MSTORE PUSH1 0x20 ADD SWAP2 POP POP PUSH1 0x40 MLOAD DUP1 SWAP2 SUB SWAP1 LOG2 POP JUMP JUMPDEST PUSH1 0x0 SLOAD DUP2 JUMP INVALID LOG1 PUSH6 0x627A7A723058 KECCAK256 0xcc LT CALL 0xf8 SIGNEXTEND 0xce RETURNDATASIZE 0xbb 0xb8 0xca STOP TIMESTAMP 0xf8 0xcc DUP11 SWAP7 0x1f 0xa7 XOR 0x2f CREATE 0x5d PUSH32 0x5DD4E23DC50F6B8CB80029000000000000000000000000000000000000000000 "
		},
		"gasEstimates": {
			"creation": {
				"codeDepositCost": "64200",
				"executionCost": "117",
				"totalCost": "64317"
			},
			"external": {
				"storeData(uint256)": "21681",
				"storedData()": "416"
			}
		},
		"methodIdentifiers": {
			"storeData(uint256)": "16b95176",
			"storedData()": "2a1afcd9"
		}
	},
	"abi": [
		{
			"constant": false,
			"inputs": [
				{
					"name": "_value",
					"type": "uint256"
				}
			],
			"name": "storeData",
			"outputs": [],
			"payable": false,
			"stateMutability": "nonpayable",
			"type": "function"
		},
		{
			"constant": true,
			"inputs": [],
			"name": "storedData",
			"outputs": [
				{
					"name": "",
					"type": "uint256"
				}
			],
			"payable": false,
			"stateMutability": "view",
			"type": "function"
		},
		{
			"anonymous": false,
			"inputs": [
				{
					"indexed": true,
					"name": "sender",
					"type": "address"
				},
				{
					"indexed": false,
					"name": "value",
					"type": "uint256"
				}
			],
			"name": "DataStored",
			"type": "event"
		}
	]
}