{
	"data": {
		"bytecode": {
			"linkReferences": {},
			"object": "608060405234801561001057600080fd5b50600a600181905550610124806100286000396000f3fe6080604052600436106053576000357c0100000000000000000000000000000000000000000000000000000000900463ffffffff16806309e96008146058578063370158ea14608f5780633bc5de301460b7575b600080fd5b348015606357600080fd5b50608d60048036036020811015607857600080fd5b810190808035906020019092919050505060df565b005b348015609a57600080fd5b5060a160e9565b6040518082815260200191505060405180910390f35b34801560c257600080fd5b5060c960ef565b6040518082815260200191505060405180910390f35b8060008190555050565b60015481565b6000805490509056fea165627a7a723058206f4e4e9472ace7ef316af29dc5393276bde01a2b1f24ba4e44f3e13d84e7b6e90029",
			"opcodes": "PUSH1 0x80 PUSH1 0x40 MSTORE CALLVALUE DUP1 ISZERO PUSH2 0x10 JUMPI PUSH1 0x0 DUP1 REVERT JUMPDEST POP PUSH1 0xA PUSH1 0x1 DUP2 SWAP1 SSTORE POP PUSH2 0x124 DUP1 PUSH2 0x28 PUSH1 0x0 CODECOPY PUSH1 0x0 RETURN INVALID PUSH1 0x80 PUSH1 0x40 MSTORE PUSH1 0x4 CALLDATASIZE LT PUSH1 0x53 JUMPI PUSH1 0x0 CALLDATALOAD PUSH29 0x100000000000000000000000000000000000000000000000000000000 SWAP1 DIV PUSH4 0xFFFFFFFF AND DUP1 PUSH4 0x9E96008 EQ PUSH1 0x58 JUMPI DUP1 PUSH4 0x370158EA EQ PUSH1 0x8F JUMPI DUP1 PUSH4 0x3BC5DE30 EQ PUSH1 0xB7 JUMPI JUMPDEST PUSH1 0x0 DUP1 REVERT JUMPDEST CALLVALUE DUP1 ISZERO PUSH1 0x63 JUMPI PUSH1 0x0 DUP1 REVERT JUMPDEST POP PUSH1 0x8D PUSH1 0x4 DUP1 CALLDATASIZE SUB PUSH1 0x20 DUP2 LT ISZERO PUSH1 0x78 JUMPI PUSH1 0x0 DUP1 REVERT JUMPDEST DUP2 ADD SWAP1 DUP1 DUP1 CALLDATALOAD SWAP1 PUSH1 0x20 ADD SWAP1 SWAP3 SWAP2 SWAP1 POP POP POP PUSH1 0xDF JUMP JUMPDEST STOP JUMPDEST CALLVALUE DUP1 ISZERO PUSH1 0x9A JUMPI PUSH1 0x0 DUP1 REVERT JUMPDEST POP PUSH1 0xA1 PUSH1 0xE9 JUMP JUMPDEST PUSH1 0x40 MLOAD DUP1 DUP3 DUP2 MSTORE PUSH1 0x20 ADD SWAP2 POP POP PUSH1 0x40 MLOAD DUP1 SWAP2 SUB SWAP1 RETURN JUMPDEST CALLVALUE DUP1 ISZERO PUSH1 0xC2 JUMPI PUSH1 0x0 DUP1 REVERT JUMPDEST POP PUSH1 0xC9 PUSH1 0xEF JUMP JUMPDEST PUSH1 0x40 MLOAD DUP1 DUP3 DUP2 MSTORE PUSH1 0x20 ADD SWAP2 POP POP PUSH1 0x40 MLOAD DUP1 SWAP2 SUB SWAP1 RETURN JUMPDEST DUP1 PUSH1 0x0 DUP2 SWAP1 SSTORE POP POP JUMP JUMPDEST PUSH1 0x1 SLOAD DUP2 JUMP JUMPDEST PUSH1 0x0 DUP1 SLOAD SWAP1 POP SWAP1 JUMP INVALID LOG1 PUSH6 0x627A7A723058 KECCAK256 PUSH16 0x4E4E9472ACE7EF316AF29DC5393276BD 0xe0 BYTE 0x2b 0x1f 0x24 0xba 0x4e DIFFICULTY RETURN 0xe1 RETURNDATASIZE DUP5 0xe7 0xb6 0xe9 STOP 0x29 "
		},
		"gasEstimates": {
			"creation": {
				"codeDepositCost": "58400",
				"executionCost": "20125",
				"totalCost": "78525"
			},
			"external": {
				"getData()": "446",
				"info()": "416",
				"updateData(uint256)": "20231"
			},
			"internal": {
				"compute(uint256,uint256)": "infinite",
				"increment(uint256)": "infinite"
			}
		},
		"methodIdentifiers": {
			"getData()": "3bc5de30",
			"info()": "370158ea",
			"updateData(uint256)": "09e96008"
		}
	},
	"abi": [
		{
			"constant": false,
			"inputs": [
				{
					"name": "a",
					"type": "uint256"
				}
			],
			"name": "updateData",
			"outputs": [],
			"payable": false,
			"stateMutability": "nonpayable",
			"type": "function"
		},
		{
			"constant": true,
			"inputs": [],
			"name": "info",
			"outputs": [
				{
					"name": "",
					"type": "uint256"
				}
			],
			"payable": false,
			"stateMutability": "view",
			"type": "function"
		},
		{
			"constant": true,
			"inputs": [],
			"name": "getData",
			"outputs": [
				{
					"name": "",
					"type": "uint256"
				}
			],
			"payable": false,
			"stateMutability": "view",
			"type": "function"
		},
		{
			"inputs": [],
			"payable": false,
			"stateMutability": "nonpayable",
			"type": "constructor"
		}
	]
}