{
	"data": {
		"bytecode": {
			"linkReferences": {},
			"object": "610185610030600b82828239805160001a6073146000811461002057610022565bfe5b5030600052607381538281f3fe7300000000000000000000000000000000000000003014608060405260043610610058576000357c0100000000000000000000000000000000000000000000000000000000900463ffffffff16806387fbcc771461005d575b600080fd5b6101136004803603602081101561007357600080fd5b810190808035906020019064010000000081111561009057600080fd5b8201836020820111156100a257600080fd5b803590602001918460208302840111640100000000831117156100c457600080fd5b919080806020026020016040519081016040528093929190818152602001838360200280828437600081840152601f19601f820116905080830192505050505050509192919290505050610129565b6040518082815260200191505060405180910390f35b600080600090505b8251811015610153576020810260208401015182019150806001019050610131565b5091905056fea165627a7a72305820b6f784d263bb3b931ad21742df50206a68e80866b883aac0d7cc2fe4b4460ea00029",
			"opcodes": "PUSH2 0x185 PUSH2 0x30 PUSH1 0xB DUP3 DUP3 DUP3 CODECOPY DUP1 MLOAD PUSH1 0x0 BYTE PUSH1 0x73 EQ PUSH1 0x0 DUP2 EQ PUSH2 0x20 JUMPI PUSH2 0x22 JUMP JUMPDEST INVALID JUMPDEST POP ADDRESS PUSH1 0x0 MSTORE PUSH1 0x73 DUP2 MSTORE8 DUP3 DUP2 RETURN INVALID PUSH20 0x0 ADDRESS EQ PUSH1 0x80 PUSH1 0x40 MSTORE PUSH1 0x4 CALLDATASIZE LT PUSH2 0x58 JUMPI PUSH1 0x0 CALLDATALOAD PUSH29 0x100000000000000000000000000000000000000000000000000000000 SWAP1 DIV PUSH4 0xFFFFFFFF AND DUP1 PUSH4 0x87FBCC77 EQ PUSH2 0x5D JUMPI JUMPDEST PUSH1 0x0 DUP1 REVERT JUMPDEST PUSH2 0x113 PUSH1 0x4 DUP1 CALLDATASIZE SUB PUSH1 0x20 DUP2 LT ISZERO PUSH2 0x73 JUMPI PUSH1 0x0 DUP1 REVERT JUMPDEST DUP2 ADD SWAP1 DUP1 DUP1 CALLDATALOAD SWAP1 PUSH1 0x20 ADD SWAP1 PUSH5 0x100000000 DUP2 GT ISZERO PUSH2 0x90 JUMPI PUSH1 0x0 DUP1 REVERT JUMPDEST DUP3 ADD DUP4 PUSH1 0x20 DUP3 ADD GT ISZERO PUSH2 0xA2 JUMPI PUSH1 0x0 DUP1 REVERT JUMPDEST DUP1 CALLDATALOAD SWAP1 PUSH1 0x20 ADD SWAP2 DUP5 PUSH1 0x20 DUP4 MUL DUP5 ADD GT PUSH5 0x100000000 DUP4 GT OR ISZERO PUSH2 0xC4 JUMPI PUSH1 0x0 DUP1 REVERT JUMPDEST SWAP2 SWAP1 DUP1 DUP1 PUSH1 0x20 MUL PUSH1 0x20 ADD PUSH1 0x40 MLOAD SWAP1 DUP2 ADD PUSH1 0x40 MSTORE DUP1 SWAP4 SWAP3 SWAP2 SWAP1 DUP2 DUP2 MSTORE PUSH1 0x20 ADD DUP4 DUP4 PUSH1 0x20 MUL DUP1 DUP3 DUP5 CALLDATACOPY PUSH1 0x0 DUP2 DUP5 ADD MSTORE PUSH1 0x1F NOT PUSH1 0x1F DUP3 ADD AND SWAP1 POP DUP1 DUP4 ADD SWAP3 POP POP POP POP POP POP POP SWAP2 SWAP3 SWAP2 SWAP3 SWAP1 POP POP POP PUSH2 0x129 JUMP JUMPDEST PUSH1 0x40 MLOAD DUP1 DUP3 DUP2 MSTORE PUSH1 0x20 ADD SWAP2 POP POP PUSH1 0x40 MLOAD DUP1 SWAP2 SUB SWAP1 RETURN JUMPDEST PUSH1 0x0 DUP1 PUSH1 0x0 SWAP1 POP JUMPDEST DUP3 MLOAD DUP2 LT ISZERO PUSH2 0x153 JUMPI PUSH1 0x20 DUP2 MUL PUSH1 0x20 DUP5 ADD ADD MLOAD DUP3 ADD SWAP2 POP DUP1 PUSH1 0x1 ADD SWAP1 POP PUSH2 0x131 JUMP JUMPDEST POP SWAP2 SWAP1 POP JUMP INVALID LOG1 PUSH6 0x627A7A723058 KECCAK256 0xb6 0xf7 DUP5 0xd2 PUSH4 0xBB3B931A 0xd2 OR TIMESTAMP 0xdf POP KECCAK256 PUSH11 0x68E80866B883AAC0D7CC2F 0xe4 0xb4 0x46 0xe LOG0 STOP 0x29 "
		},
		"gasEstimates": {
			"creation": {
				"codeDepositCost": "77800",
				"executionCost": "176",
				"totalCost": "77976"
			},
			"external": {
				"sumUsingInlineAssembly(uint256[])": "infinite"
			}
		},
		"methodIdentifiers": {
			"sumUsingInlineAssembly(uint256[])": "87fbcc77"
		}
	},
	"abi": [
		{
			"constant": true,
			"inputs": [
				{
					"name": "_data",
					"type": "uint256[]"
				}
			],
			"name": "sumUsingInlineAssembly",
			"outputs": [
				{
					"name": "o_sum",
					"type": "uint256"
				}
			],
			"payable": false,
			"stateMutability": "view",
			"type": "function"
		}
	]
}